{"abi":[{"inputs":[{"internalType":"uint256","name":"minimum","type":"uint256"}],"name":"createCompaign","outputs":[],"stateMutability":"nonpayable","type":"function"},{"inputs":[{"internalType":"uint256","name":"","type":"uint256"}],"name":"deployedCompaigns","outputs":[{"internalType":"address","name":"","type":"address"}],"stateMutability":"view","type":"function"},{"inputs":[],"name":"getDeployedCompaigns","outputs":[{"internalType":"address[]","name":"","type":"address[]"}],"stateMutability":"view","type":"function"}],"devdoc":{"kind":"dev","methods":{},"version":1},"evm":{"assembly":"    /* \"Campaign.sol\":57:421  contract Compaignfactory {... */\n  mstore(0x40, 0x80)\n  callvalue\n  dup1\n  iszero\n  tag_1\n  jumpi\n  0x00\n  dup1\n  revert\ntag_1:\n  pop\n  dataSize(sub_0)\n  dup1\n  dataOffset(sub_0)\n  0x00\n  codecopy\n  0x00\n  return\nstop\n\nsub_0: assembly {\n        /* \"Campaign.sol\":57:421  contract Compaignfactory {... */\n      mstore(0x40, 0x80)\n      callvalue\n      dup1\n      iszero\n      tag_1\n      jumpi\n      0x00\n      dup1\n      revert\n    tag_1:\n      pop\n      jumpi(tag_2, lt(calldatasize, 0x04))\n      shr(0xe0, calldataload(0x00))\n      dup1\n      0x58c9aa44\n      eq\n      tag_3\n      jumpi\n      dup1\n      0xd37b127b\n      eq\n      tag_4\n      jumpi\n      dup1\n      0xe698bdf1\n      eq\n      tag_5\n      jumpi\n    tag_2:\n      0x00\n      dup1\n      revert\n        /* \"Campaign.sol\":307:419  function getDeployedCompaigns() public view returns (address[] memory) {... */\n    tag_3:\n      tag_6\n      tag_7\n      jump\t// in\n    tag_6:\n      mload(0x40)\n      tag_8\n      swap2\n      swap1\n      tag_9\n      jump\t// in\n    tag_8:\n      mload(0x40)\n      dup1\n      swap2\n      sub\n      swap1\n      return\n        /* \"Campaign.sol\":129:301  function createCompaign(uint minimum) public {... */\n    tag_4:\n      tag_10\n      0x04\n      dup1\n      calldatasize\n      sub\n      dup2\n      add\n      swap1\n      tag_11\n      swap2\n      swap1\n      tag_12\n      jump\t// in\n    tag_11:\n      tag_13\n      jump\t// in\n    tag_10:\n      stop\n        /* \"Campaign.sol\":88:122  address[] public deployedCompaigns */\n    tag_5:\n      tag_14\n      0x04\n      dup1\n      calldatasize\n      sub\n      dup2\n      add\n      swap1\n      tag_15\n      swap2\n      swap1\n      tag_12\n      jump\t// in\n    tag_15:\n      tag_16\n      jump\t// in\n    tag_14:\n      mload(0x40)\n      tag_17\n      swap2\n      swap1\n      tag_18\n      jump\t// in\n    tag_17:\n      mload(0x40)\n      dup1\n      swap2\n      sub\n      swap1\n      return\n        /* \"Campaign.sol\":307:419  function getDeployedCompaigns() public view returns (address[] memory) {... */\n    tag_7:\n        /* \"Campaign.sol\":360:376  address[] memory */\n      0x60\n        /* \"Campaign.sol\":395:412  deployedCompaigns */\n      0x00\n        /* \"Campaign.sol\":388:412  return deployedCompaigns */\n      dup1\n      sload\n      dup1\n      0x20\n      mul\n      0x20\n      add\n      mload(0x40)\n      swap1\n      dup2\n      add\n      0x40\n      mstore\n      dup1\n      swap3\n      swap2\n      swap1\n      dup2\n      dup2\n      mstore\n      0x20\n      add\n      dup3\n      dup1\n      sload\n      dup1\n      iszero\n      tag_20\n      jumpi\n      0x20\n      mul\n      dup3\n      add\n      swap2\n      swap1\n      0x00\n      mstore\n      keccak256(0x00, 0x20)\n      swap1\n    tag_21:\n      dup2\n      0x00\n      swap1\n      sload\n      swap1\n      0x0100\n      exp\n      swap1\n      div\n      0xffffffffffffffffffffffffffffffffffffffff\n      and\n      0xffffffffffffffffffffffffffffffffffffffff\n      and\n      dup2\n      mstore\n      0x20\n      add\n      swap1\n      0x01\n      add\n      swap1\n      dup1\n      dup4\n      gt\n      tag_21\n      jumpi\n    tag_20:\n      pop\n      pop\n      pop\n      pop\n      pop\n      swap1\n      pop\n        /* \"Campaign.sol\":307:419  function getDeployedCompaigns() public view returns (address[] memory) {... */\n      swap1\n      jump\t// out\n        /* \"Campaign.sol\":129:301  function createCompaign(uint minimum) public {... */\n    tag_13:\n        /* \"Campaign.sol\":184:204  Campaign newCampaing */\n      0x00\n        /* \"Campaign.sol\":220:227  minimum */\n      dup2\n        /* \"Campaign.sol\":229:239  msg.sender */\n      caller\n        /* \"Campaign.sol\":207:240  new Campaign(minimum, msg.sender) */\n      mload(0x40)\n      tag_23\n      swap1\n      tag_24\n      jump\t// in\n    tag_23:\n      tag_25\n      swap3\n      swap2\n      swap1\n      tag_26\n      jump\t// in\n    tag_25:\n      mload(0x40)\n      dup1\n      swap2\n      sub\n      swap1\n      0x00\n      create\n      dup1\n      iszero\n      dup1\n      iszero\n      tag_27\n      jumpi\n      returndatasize\n      0x00\n      dup1\n      returndatacopy\n      revert(0x00, returndatasize)\n    tag_27:\n      pop\n        /* \"Campaign.sol\":184:240  Campaign newCampaing = new Campaign(minimum, msg.sender) */\n      swap1\n      pop\n        /* \"Campaign.sol\":250:267  deployedCompaigns */\n      0x00\n        /* \"Campaign.sol\":281:292  newCampaing */\n      dup2\n        /* \"Campaign.sol\":250:294  deployedCompaigns.push(address(newCampaing)) */\n      swap1\n      dup1\n      0x01\n      dup2\n      sload\n      add\n      dup1\n      dup3\n      sstore\n      dup1\n      swap2\n      pop\n      pop\n      0x01\n      swap1\n      sub\n      swap1\n      0x00\n      mstore\n      keccak256(0x00, 0x20)\n      add\n      0x00\n      swap1\n      swap2\n      swap1\n      swap2\n      swap1\n      swap2\n      0x0100\n      exp\n      dup2\n      sload\n      dup2\n      0xffffffffffffffffffffffffffffffffffffffff\n      mul\n      not\n      and\n      swap1\n      dup4\n      0xffffffffffffffffffffffffffffffffffffffff\n      and\n      mul\n      or\n      swap1\n      sstore\n      pop\n        /* \"Campaign.sol\":174:301  {... */\n      pop\n        /* \"Campaign.sol\":129:301  function createCompaign(uint minimum) public {... */\n      pop\n      jump\t// out\n        /* \"Campaign.sol\":88:122  address[] public deployedCompaigns */\n    tag_16:\n      0x00\n      dup2\n      dup2\n      sload\n      dup2\n      lt\n      tag_29\n      jumpi\n      0x00\n      dup1\n      revert\n    tag_29:\n      swap1\n      0x00\n      mstore\n      keccak256(0x00, 0x20)\n      add\n      0x00\n      swap2\n      pop\n      sload\n      swap1\n      0x0100\n      exp\n      swap1\n      div\n      0xffffffffffffffffffffffffffffffffffffffff\n      and\n      dup2\n      jump\t// out\n    tag_24:\n      dataSize(sub_0)\n      dup1\n      dataOffset(sub_0)\n      dup4\n      codecopy\n      add\n      swap1\n      jump\t// out\n        /* \"#utility.yul\":7:121   */\n    tag_31:\n        /* \"#utility.yul\":74:80   */\n      0x00\n        /* \"#utility.yul\":108:113   */\n      dup2\n        /* \"#utility.yul\":102:114   */\n      mload\n        /* \"#utility.yul\":92:114   */\n      swap1\n      pop\n        /* \"#utility.yul\":7:121   */\n      swap2\n      swap1\n      pop\n      jump\t// out\n        /* \"#utility.yul\":127:311   */\n    tag_32:\n        /* \"#utility.yul\":226:237   */\n      0x00\n        /* \"#utility.yul\":260:266   */\n      dup3\n        /* \"#utility.yul\":255:258   */\n      dup3\n        /* \"#utility.yul\":248:267   */\n      mstore\n        /* \"#utility.yul\":300:304   */\n      0x20\n        /* \"#utility.yul\":295:298   */\n      dup3\n        /* \"#utility.yul\":291:305   */\n      add\n        /* \"#utility.yul\":276:305   */\n      swap1\n      pop\n        /* \"#utility.yul\":127:311   */\n      swap3\n      swap2\n      pop\n      pop\n      jump\t// out\n        /* \"#utility.yul\":317:449   */\n    tag_33:\n        /* \"#utility.yul\":384:388   */\n      0x00\n        /* \"#utility.yul\":407:410   */\n      dup2\n        /* \"#utility.yul\":399:410   */\n      swap1\n      pop\n        /* \"#utility.yul\":437:441   */\n      0x20\n        /* \"#utility.yul\":432:435   */\n      dup3\n        /* \"#utility.yul\":428:442   */\n      add\n        /* \"#utility.yul\":420:442   */\n      swap1\n      pop\n        /* \"#utility.yul\":317:449   */\n      swap2\n      swap1\n      pop\n      jump\t// out\n        /* \"#utility.yul\":455:581   */\n    tag_34:\n        /* \"#utility.yul\":492:499   */\n      0x00\n        /* \"#utility.yul\":532:574   */\n      0xffffffffffffffffffffffffffffffffffffffff\n        /* \"#utility.yul\":525:530   */\n      dup3\n        /* \"#utility.yul\":521:575   */\n      and\n        /* \"#utility.yul\":510:575   */\n      swap1\n      pop\n        /* \"#utility.yul\":455:581   */\n      swap2\n      swap1\n      pop\n      jump\t// out\n        /* \"#utility.yul\":587:683   */\n    tag_35:\n        /* \"#utility.yul\":624:631   */\n      0x00\n        /* \"#utility.yul\":653:677   */\n      tag_54\n        /* \"#utility.yul\":671:676   */\n      dup3\n        /* \"#utility.yul\":653:677   */\n      tag_34\n      jump\t// in\n    tag_54:\n        /* \"#utility.yul\":642:677   */\n      swap1\n      pop\n        /* \"#utility.yul\":587:683   */\n      swap2\n      swap1\n      pop\n      jump\t// out\n        /* \"#utility.yul\":689:797   */\n    tag_36:\n        /* \"#utility.yul\":766:790   */\n      tag_56\n        /* \"#utility.yul\":784:789   */\n      dup2\n        /* \"#utility.yul\":766:790   */\n      tag_35\n      jump\t// in\n    tag_56:\n        /* \"#utility.yul\":761:764   */\n      dup3\n        /* \"#utility.yul\":754:791   */\n      mstore\n        /* \"#utility.yul\":689:797   */\n      pop\n      pop\n      jump\t// out\n        /* \"#utility.yul\":803:982   */\n    tag_37:\n        /* \"#utility.yul\":872:882   */\n      0x00\n        /* \"#utility.yul\":893:939   */\n      tag_58\n        /* \"#utility.yul\":935:938   */\n      dup4\n        /* \"#utility.yul\":927:933   */\n      dup4\n        /* \"#utility.yul\":893:939   */\n      tag_36\n      jump\t// in\n    tag_58:\n        /* \"#utility.yul\":971:975   */\n      0x20\n        /* \"#utility.yul\":966:969   */\n      dup4\n        /* \"#utility.yul\":962:976   */\n      add\n        /* \"#utility.yul\":948:976   */\n      swap1\n      pop\n        /* \"#utility.yul\":803:982   */\n      swap3\n      swap2\n      pop\n      pop\n      jump\t// out\n        /* \"#utility.yul\":988:1101   */\n    tag_38:\n        /* \"#utility.yul\":1058:1062   */\n      0x00\n        /* \"#utility.yul\":1090:1094   */\n      0x20\n        /* \"#utility.yul\":1085:1088   */\n      dup3\n        /* \"#utility.yul\":1081:1095   */\n      add\n        /* \"#utility.yul\":1073:1095   */\n      swap1\n      pop\n        /* \"#utility.yul\":988:1101   */\n      swap2\n      swap1\n      pop\n      jump\t// out\n        /* \"#utility.yul\":1137:1869   */\n    tag_39:\n        /* \"#utility.yul\":1256:1259   */\n      0x00\n        /* \"#utility.yul\":1285:1339   */\n      tag_61\n        /* \"#utility.yul\":1333:1338   */\n      dup3\n        /* \"#utility.yul\":1285:1339   */\n      tag_31\n      jump\t// in\n    tag_61:\n        /* \"#utility.yul\":1355:1441   */\n      tag_62\n        /* \"#utility.yul\":1434:1440   */\n      dup2\n        /* \"#utility.yul\":1429:1432   */\n      dup6\n        /* \"#utility.yul\":1355:1441   */\n      tag_32\n      jump\t// in\n    tag_62:\n        /* \"#utility.yul\":1348:1441   */\n      swap4\n      pop\n        /* \"#utility.yul\":1465:1521   */\n      tag_63\n        /* \"#utility.yul\":1515:1520   */\n      dup4\n        /* \"#utility.yul\":1465:1521   */\n      tag_33\n      jump\t// in\n    tag_63:\n        /* \"#utility.yul\":1544:1551   */\n      dup1\n        /* \"#utility.yul\":1575:1576   */\n      0x00\n        /* \"#utility.yul\":1560:1844   */\n    tag_64:\n        /* \"#utility.yul\":1585:1591   */\n      dup4\n        /* \"#utility.yul\":1582:1583   */\n      dup2\n        /* \"#utility.yul\":1579:1592   */\n      lt\n        /* \"#utility.yul\":1560:1844   */\n      iszero\n      tag_66\n      jumpi\n        /* \"#utility.yul\":1661:1667   */\n      dup2\n        /* \"#utility.yul\":1655:1668   */\n      mload\n        /* \"#utility.yul\":1688:1751   */\n      tag_67\n        /* \"#utility.yul\":1747:1750   */\n      dup9\n        /* \"#utility.yul\":1732:1745   */\n      dup3\n        /* \"#utility.yul\":1688:1751   */\n      tag_37\n      jump\t// in\n    tag_67:\n        /* \"#utility.yul\":1681:1751   */\n      swap8\n      pop\n        /* \"#utility.yul\":1774:1834   */\n      tag_68\n        /* \"#utility.yul\":1827:1833   */\n      dup4\n        /* \"#utility.yul\":1774:1834   */\n      tag_38\n      jump\t// in\n    tag_68:\n        /* \"#utility.yul\":1764:1834   */\n      swap3\n      pop\n        /* \"#utility.yul\":1620:1844   */\n      pop\n        /* \"#utility.yul\":1607:1608   */\n      0x01\n        /* \"#utility.yul\":1604:1605   */\n      dup2\n        /* \"#utility.yul\":1600:1609   */\n      add\n        /* \"#utility.yul\":1595:1609   */\n      swap1\n      pop\n        /* \"#utility.yul\":1560:1844   */\n      jump(tag_64)\n    tag_66:\n        /* \"#utility.yul\":1564:1578   */\n      pop\n        /* \"#utility.yul\":1860:1863   */\n      dup6\n        /* \"#utility.yul\":1853:1863   */\n      swap4\n      pop\n        /* \"#utility.yul\":1261:1869   */\n      pop\n      pop\n      pop\n        /* \"#utility.yul\":1137:1869   */\n      swap3\n      swap2\n      pop\n      pop\n      jump\t// out\n        /* \"#utility.yul\":1875:2248   */\n    tag_9:\n        /* \"#utility.yul\":2018:2022   */\n      0x00\n        /* \"#utility.yul\":2056:2058   */\n      0x20\n        /* \"#utility.yul\":2045:2054   */\n      dup3\n        /* \"#utility.yul\":2041:2059   */\n      add\n        /* \"#utility.yul\":2033:2059   */\n      swap1\n      pop\n        /* \"#utility.yul\":2105:2114   */\n      dup2\n        /* \"#utility.yul\":2099:2103   */\n      dup2\n        /* \"#utility.yul\":2095:2115   */\n      sub\n        /* \"#utility.yul\":2091:2092   */\n      0x00\n        /* \"#utility.yul\":2080:2089   */\n      dup4\n        /* \"#utility.yul\":2076:2093   */\n      add\n        /* \"#utility.yul\":2069:2116   */\n      mstore\n        /* \"#utility.yul\":2133:2241   */\n      tag_70\n        /* \"#utility.yul\":2236:2240   */\n      dup2\n        /* \"#utility.yul\":2227:2233   */\n      dup5\n        /* \"#utility.yul\":2133:2241   */\n      tag_39\n      jump\t// in\n    tag_70:\n        /* \"#utility.yul\":2125:2241   */\n      swap1\n      pop\n        /* \"#utility.yul\":1875:2248   */\n      swap3\n      swap2\n      pop\n      pop\n      jump\t// out\n        /* \"#utility.yul\":2335:2452   */\n    tag_41:\n        /* \"#utility.yul\":2444:2445   */\n      0x00\n        /* \"#utility.yul\":2441:2442   */\n      dup1\n        /* \"#utility.yul\":2434:2446   */\n      revert\n        /* \"#utility.yul\":2581:2658   */\n    tag_43:\n        /* \"#utility.yul\":2618:2625   */\n      0x00\n        /* \"#utility.yul\":2647:2652   */\n      dup2\n        /* \"#utility.yul\":2636:2652   */\n      swap1\n      pop\n        /* \"#utility.yul\":2581:2658   */\n      swap2\n      swap1\n      pop\n      jump\t// out\n        /* \"#utility.yul\":2664:2786   */\n    tag_44:\n        /* \"#utility.yul\":2737:2761   */\n      tag_76\n        /* \"#utility.yul\":2755:2760   */\n      dup2\n        /* \"#utility.yul\":2737:2761   */\n      tag_43\n      jump\t// in\n    tag_76:\n        /* \"#utility.yul\":2730:2735   */\n      dup2\n        /* \"#utility.yul\":2727:2762   */\n      eq\n        /* \"#utility.yul\":2717:2780   */\n      tag_77\n      jumpi\n        /* \"#utility.yul\":2776:2777   */\n      0x00\n        /* \"#utility.yul\":2773:2774   */\n      dup1\n        /* \"#utility.yul\":2766:2778   */\n      revert\n        /* \"#utility.yul\":2717:2780   */\n    tag_77:\n        /* \"#utility.yul\":2664:2786   */\n      pop\n      jump\t// out\n        /* \"#utility.yul\":2792:2931   */\n    tag_45:\n        /* \"#utility.yul\":2838:2843   */\n      0x00\n        /* \"#utility.yul\":2876:2882   */\n      dup2\n        /* \"#utility.yul\":2863:2883   */\n      calldataload\n        /* \"#utility.yul\":2854:2883   */\n      swap1\n      pop\n        /* \"#utility.yul\":2892:2925   */\n      tag_79\n        /* \"#utility.yul\":2919:2924   */\n      dup2\n        /* \"#utility.yul\":2892:2925   */\n      tag_44\n      jump\t// in\n    tag_79:\n        /* \"#utility.yul\":2792:2931   */\n      swap3\n      swap2\n      pop\n      pop\n      jump\t// out\n        /* \"#utility.yul\":2937:3266   */\n    tag_12:\n        /* \"#utility.yul\":2996:3002   */\n      0x00\n        /* \"#utility.yul\":3045:3047   */\n      0x20\n        /* \"#utility.yul\":3033:3042   */\n      dup3\n        /* \"#utility.yul\":3024:3031   */\n      dup5\n        /* \"#utility.yul\":3020:3043   */\n      sub\n        /* \"#utility.yul\":3016:3048   */\n      slt\n        /* \"#utility.yul\":3013:3132   */\n      iszero\n      tag_81\n      jumpi\n        /* \"#utility.yul\":3051:3130   */\n      tag_82\n      tag_41\n      jump\t// in\n    tag_82:\n        /* \"#utility.yul\":3013:3132   */\n    tag_81:\n        /* \"#utility.yul\":3171:3172   */\n      0x00\n        /* \"#utility.yul\":3196:3249   */\n      tag_83\n        /* \"#utility.yul\":3241:3248   */\n      dup5\n        /* \"#utility.yul\":3232:3238   */\n      dup3\n        /* \"#utility.yul\":3221:3230   */\n      dup6\n        /* \"#utility.yul\":3217:3239   */\n      add\n        /* \"#utility.yul\":3196:3249   */\n      tag_45\n      jump\t// in\n    tag_83:\n        /* \"#utility.yul\":3186:3249   */\n      swap2\n      pop\n        /* \"#utility.yul\":3142:3259   */\n      pop\n        /* \"#utility.yul\":2937:3266   */\n      swap3\n      swap2\n      pop\n      pop\n      jump\t// out\n        /* \"#utility.yul\":3272:3390   */\n    tag_46:\n        /* \"#utility.yul\":3359:3383   */\n      tag_85\n        /* \"#utility.yul\":3377:3382   */\n      dup2\n        /* \"#utility.yul\":3359:3383   */\n      tag_35\n      jump\t// in\n    tag_85:\n        /* \"#utility.yul\":3354:3357   */\n      dup3\n        /* \"#utility.yul\":3347:3384   */\n      mstore\n        /* \"#utility.yul\":3272:3390   */\n      pop\n      pop\n      jump\t// out\n        /* \"#utility.yul\":3396:3618   */\n    tag_18:\n        /* \"#utility.yul\":3489:3493   */\n      0x00\n        /* \"#utility.yul\":3527:3529   */\n      0x20\n        /* \"#utility.yul\":3516:3525   */\n      dup3\n        /* \"#utility.yul\":3512:3530   */\n      add\n        /* \"#utility.yul\":3504:3530   */\n      swap1\n      pop\n        /* \"#utility.yul\":3540:3611   */\n      tag_87\n        /* \"#utility.yul\":3608:3609   */\n      0x00\n        /* \"#utility.yul\":3597:3606   */\n      dup4\n        /* \"#utility.yul\":3593:3610   */\n      add\n        /* \"#utility.yul\":3584:3590   */\n      dup5\n        /* \"#utility.yul\":3540:3611   */\n      tag_46\n      jump\t// in\n    tag_87:\n        /* \"#utility.yul\":3396:3618   */\n      swap3\n      swap2\n      pop\n      pop\n      jump\t// out\n        /* \"#utility.yul\":3624:3742   */\n    tag_47:\n        /* \"#utility.yul\":3711:3735   */\n      tag_89\n        /* \"#utility.yul\":3729:3734   */\n      dup2\n        /* \"#utility.yul\":3711:3735   */\n      tag_43\n      jump\t// in\n    tag_89:\n        /* \"#utility.yul\":3706:3709   */\n      dup3\n        /* \"#utility.yul\":3699:3736   */\n      mstore\n        /* \"#utility.yul\":3624:3742   */\n      pop\n      pop\n      jump\t// out\n        /* \"#utility.yul\":3748:4080   */\n    tag_26:\n        /* \"#utility.yul\":3869:3873   */\n      0x00\n        /* \"#utility.yul\":3907:3909   */\n      0x40\n        /* \"#utility.yul\":3896:3905   */\n      dup3\n        /* \"#utility.yul\":3892:3910   */\n      add\n        /* \"#utility.yul\":3884:3910   */\n      swap1\n      pop\n        /* \"#utility.yul\":3920:3991   */\n      tag_91\n        /* \"#utility.yul\":3988:3989   */\n      0x00\n        /* \"#utility.yul\":3977:3986   */\n      dup4\n        /* \"#utility.yul\":3973:3990   */\n      add\n        /* \"#utility.yul\":3964:3970   */\n      dup6\n        /* \"#utility.yul\":3920:3991   */\n      tag_47\n      jump\t// in\n    tag_91:\n        /* \"#utility.yul\":4001:4073   */\n      tag_92\n        /* \"#utility.yul\":4069:4071   */\n      0x20\n        /* \"#utility.yul\":4058:4067   */\n      dup4\n        /* \"#utility.yul\":4054:4072   */\n      add\n        /* \"#utility.yul\":4045:4051   */\n      dup5\n        /* \"#utility.yul\":4001:4073   */\n      tag_46\n      jump\t// in\n    tag_92:\n        /* \"#utility.yul\":3748:4080   */\n      swap4\n      swap3\n      pop\n      pop\n      pop\n      jump\t// out\n    stop\n\n    sub_0: assembly {\n            /* \"Campaign.sol\":423:2290  contract Campaign {... */\n          mstore(0x40, 0x80)\n            /* \"Campaign.sol\":944:1060  constructor(uint minimum, address creater) {... */\n          callvalue\n          dup1\n          iszero\n          tag_1\n          jumpi\n          0x00\n          dup1\n          revert\n        tag_1:\n          pop\n          mload(0x40)\n          sub(codesize, bytecodeSize)\n          dup1\n          bytecodeSize\n          dup4\n          codecopy\n          dup2\n          dup2\n          add\n          0x40\n          mstore\n          dup2\n          add\n          swap1\n          tag_2\n          swap2\n          swap1\n          tag_3\n          jump\t// in\n        tag_2:\n            /* \"Campaign.sol\":1007:1014  creater */\n          dup1\n            /* \"Campaign.sol\":997:1004  manager */\n          0x01\n          0x00\n            /* \"Campaign.sol\":997:1014  manager = creater */\n          0x0100\n          exp\n          dup2\n          sload\n          dup2\n          0xffffffffffffffffffffffffffffffffffffffff\n          mul\n          not\n          and\n          swap1\n          dup4\n          0xffffffffffffffffffffffffffffffffffffffff\n          and\n          mul\n          or\n          swap1\n          sstore\n          pop\n            /* \"Campaign.sol\":1046:1053  minimum */\n          dup2\n            /* \"Campaign.sol\":1024:1043  minimumContribution */\n          0x02\n            /* \"Campaign.sol\":1024:1053  minimumContribution = minimum */\n          dup2\n          swap1\n          sstore\n          pop\n            /* \"Campaign.sol\":944:1060  constructor(uint minimum, address creater) {... */\n          pop\n          pop\n            /* \"Campaign.sol\":423:2290  contract Campaign {... */\n          jump(tag_6)\n            /* \"#utility.yul\":88:205   */\n        tag_8:\n            /* \"#utility.yul\":197:198   */\n          0x00\n            /* \"#utility.yul\":194:195   */\n          dup1\n            /* \"#utility.yul\":187:199   */\n          revert\n            /* \"#utility.yul\":334:411   */\n        tag_10:\n            /* \"#utility.yul\":371:378   */\n          0x00\n            /* \"#utility.yul\":400:405   */\n          dup2\n            /* \"#utility.yul\":389:405   */\n          swap1\n          pop\n            /* \"#utility.yul\":334:411   */\n          swap2\n          swap1\n          pop\n          jump\t// out\n            /* \"#utility.yul\":417:539   */\n        tag_11:\n            /* \"#utility.yul\":490:514   */\n          tag_23\n            /* \"#utility.yul\":508:513   */\n          dup2\n            /* \"#utility.yul\":490:514   */\n          tag_10\n          jump\t// in\n        tag_23:\n            /* \"#utility.yul\":483:488   */\n          dup2\n            /* \"#utility.yul\":480:515   */\n          eq\n            /* \"#utility.yul\":470:533   */\n          tag_24\n          jumpi\n            /* \"#utility.yul\":529:530   */\n          0x00\n            /* \"#utility.yul\":526:527   */\n          dup1\n            /* \"#utility.yul\":519:531   */\n          revert\n            /* \"#utility.yul\":470:533   */\n        tag_24:\n            /* \"#utility.yul\":417:539   */\n          pop\n          jump\t// out\n            /* \"#utility.yul\":545:688   */\n        tag_12:\n            /* \"#utility.yul\":602:607   */\n          0x00\n            /* \"#utility.yul\":633:639   */\n          dup2\n            /* \"#utility.yul\":627:640   */\n          mload\n            /* \"#utility.yul\":618:640   */\n          swap1\n          pop\n            /* \"#utility.yul\":649:682   */\n          tag_26\n            /* \"#utility.yul\":676:681   */\n          dup2\n            /* \"#utility.yul\":649:682   */\n          tag_11\n          jump\t// in\n        tag_26:\n            /* \"#utility.yul\":545:688   */\n          swap3\n          swap2\n          pop\n          pop\n          jump\t// out\n            /* \"#utility.yul\":694:820   */\n        tag_13:\n            /* \"#utility.yul\":731:738   */\n          0x00\n            /* \"#utility.yul\":771:813   */\n          0xffffffffffffffffffffffffffffffffffffffff\n            /* \"#utility.yul\":764:769   */\n          dup3\n            /* \"#utility.yul\":760:814   */\n          and\n            /* \"#utility.yul\":749:814   */\n          swap1\n          pop\n            /* \"#utility.yul\":694:820   */\n          swap2\n          swap1\n          pop\n          jump\t// out\n            /* \"#utility.yul\":826:922   */\n        tag_14:\n            /* \"#utility.yul\":863:870   */\n          0x00\n            /* \"#utility.yul\":892:916   */\n          tag_29\n            /* \"#utility.yul\":910:915   */\n          dup3\n            /* \"#utility.yul\":892:916   */\n          tag_13\n          jump\t// in\n        tag_29:\n            /* \"#utility.yul\":881:916   */\n          swap1\n          pop\n            /* \"#utility.yul\":826:922   */\n          swap2\n          swap1\n          pop\n          jump\t// out\n            /* \"#utility.yul\":928:1050   */\n        tag_15:\n            /* \"#utility.yul\":1001:1025   */\n          tag_31\n            /* \"#utility.yul\":1019:1024   */\n          dup2\n            /* \"#utility.yul\":1001:1025   */\n          tag_14\n          jump\t// in\n        tag_31:\n            /* \"#utility.yul\":994:999   */\n          dup2\n            /* \"#utility.yul\":991:1026   */\n          eq\n            /* \"#utility.yul\":981:1044   */\n          tag_32\n          jumpi\n            /* \"#utility.yul\":1040:1041   */\n          0x00\n            /* \"#utility.yul\":1037:1038   */\n          dup1\n            /* \"#utility.yul\":1030:1042   */\n          revert\n            /* \"#utility.yul\":981:1044   */\n        tag_32:\n            /* \"#utility.yul\":928:1050   */\n          pop\n          jump\t// out\n            /* \"#utility.yul\":1056:1199   */\n        tag_16:\n            /* \"#utility.yul\":1113:1118   */\n          0x00\n            /* \"#utility.yul\":1144:1150   */\n          dup2\n            /* \"#utility.yul\":1138:1151   */\n          mload\n            /* \"#utility.yul\":1129:1151   */\n          swap1\n          pop\n            /* \"#utility.yul\":1160:1193   */\n          tag_34\n            /* \"#utility.yul\":1187:1192   */\n          dup2\n            /* \"#utility.yul\":1160:1193   */\n          tag_15\n          jump\t// in\n        tag_34:\n            /* \"#utility.yul\":1056:1199   */\n          swap3\n          swap2\n          pop\n          pop\n          jump\t// out\n            /* \"#utility.yul\":1205:1712   */\n        tag_3:\n            /* \"#utility.yul\":1284:1290   */\n          0x00\n            /* \"#utility.yul\":1292:1298   */\n          dup1\n            /* \"#utility.yul\":1341:1343   */\n          0x40\n            /* \"#utility.yul\":1329:1338   */\n          dup4\n            /* \"#utility.yul\":1320:1327   */\n          dup6\n            /* \"#utility.yul\":1316:1339   */\n          sub\n            /* \"#utility.yul\":1312:1344   */\n          slt\n            /* \"#utility.yul\":1309:1428   */\n          iszero\n          tag_36\n          jumpi\n            /* \"#utility.yul\":1347:1426   */\n          tag_37\n          tag_8\n          jump\t// in\n        tag_37:\n            /* \"#utility.yul\":1309:1428   */\n        tag_36:\n            /* \"#utility.yul\":1467:1468   */\n          0x00\n            /* \"#utility.yul\":1492:1556   */\n          tag_38\n            /* \"#utility.yul\":1548:1555   */\n          dup6\n            /* \"#utility.yul\":1539:1545   */\n          dup3\n            /* \"#utility.yul\":1528:1537   */\n          dup7\n            /* \"#utility.yul\":1524:1546   */\n          add\n            /* \"#utility.yul\":1492:1556   */\n          tag_12\n          jump\t// in\n        tag_38:\n            /* \"#utility.yul\":1482:1556   */\n          swap3\n          pop\n            /* \"#utility.yul\":1438:1566   */\n          pop\n            /* \"#utility.yul\":1605:1607   */\n          0x20\n            /* \"#utility.yul\":1631:1695   */\n          tag_39\n            /* \"#utility.yul\":1687:1694   */\n          dup6\n            /* \"#utility.yul\":1678:1684   */\n          dup3\n            /* \"#utility.yul\":1667:1676   */\n          dup7\n            /* \"#utility.yul\":1663:1685   */\n          add\n            /* \"#utility.yul\":1631:1695   */\n          tag_16\n          jump\t// in\n        tag_39:\n            /* \"#utility.yul\":1621:1695   */\n          swap2\n          pop\n            /* \"#utility.yul\":1576:1705   */\n          pop\n            /* \"#utility.yul\":1205:1712   */\n          swap3\n          pop\n          swap3\n          swap1\n          pop\n          jump\t// out\n            /* \"Campaign.sol\":423:2290  contract Campaign {... */\n        tag_6:\n          dataSize(sub_0)\n          dup1\n          dataOffset(sub_0)\n          0x00\n          codecopy\n          0x00\n          return\n        stop\n\n        sub_0: assembly {\n                /* \"Campaign.sol\":423:2290  contract Campaign {... */\n              mstore(0x40, 0x80)\n              jumpi(tag_1, lt(calldatasize, 0x04))\n              shr(0xe0, calldataload(0x00))\n              dup1\n              0x82fde093\n              gt\n              tag_11\n              jumpi\n              dup1\n              0x82fde093\n              eq\n              tag_6\n              jumpi\n              dup1\n              0x8a9cfd55\n              eq\n              tag_7\n              jumpi\n              dup1\n              0x937e09b1\n              eq\n              tag_8\n              jumpi\n              dup1\n              0xd7bb99ba\n              eq\n              tag_9\n              jumpi\n              dup1\n              0xd7d1bbdb\n              eq\n              tag_10\n              jumpi\n              jump(tag_1)\n            tag_11:\n              dup1\n              0x03441006\n              eq\n              tag_2\n              jumpi\n              dup1\n              0x0a144391\n              eq\n              tag_3\n              jumpi\n              dup1\n              0x481c6a75\n              eq\n              tag_4\n              jumpi\n              dup1\n              0x81d12c58\n              eq\n              tag_5\n              jumpi\n            tag_1:\n              0x00\n              dup1\n              revert\n                /* \"Campaign.sol\":1990:2288  function finalizeRequest(uint index) public restricted {... */\n            tag_2:\n              callvalue\n              dup1\n              iszero\n              tag_12\n              jumpi\n              0x00\n              dup1\n              revert\n            tag_12:\n              pop\n              tag_13\n              0x04\n              dup1\n              calldatasize\n              sub\n              dup2\n              add\n              swap1\n              tag_14\n              swap2\n              swap1\n              tag_15\n              jump\t// in\n            tag_14:\n              tag_16\n              jump\t// in\n            tag_13:\n              stop\n                /* \"Campaign.sol\":749:790  mapping(address => bool) public approvers */\n            tag_3:\n              callvalue\n              dup1\n              iszero\n              tag_17\n              jumpi\n              0x00\n              dup1\n              revert\n            tag_17:\n              pop\n              tag_18\n              0x04\n              dup1\n              calldatasize\n              sub\n              dup2\n              add\n              swap1\n              tag_19\n              swap2\n              swap1\n              tag_20\n              jump\t// in\n            tag_19:\n              tag_21\n              jump\t// in\n            tag_18:\n              mload(0x40)\n              tag_22\n              swap2\n              swap1\n              tag_23\n              jump\t// in\n            tag_22:\n              mload(0x40)\n              dup1\n              swap2\n              sub\n              swap1\n              return\n                /* \"Campaign.sol\":684:706  address public manager */\n            tag_4:\n              callvalue\n              dup1\n              iszero\n              tag_24\n              jumpi\n              0x00\n              dup1\n              revert\n            tag_24:\n              pop\n              tag_25\n              tag_26\n              jump\t// in\n            tag_25:\n              mload(0x40)\n              tag_27\n              swap2\n              swap1\n              tag_28\n              jump\t// in\n            tag_27:\n              mload(0x40)\n              dup1\n              swap2\n              sub\n              swap1\n              return\n                /* \"Campaign.sol\":653:678  Request[] public requests */\n            tag_5:\n              callvalue\n              dup1\n              iszero\n              tag_29\n              jumpi\n              0x00\n              dup1\n              revert\n            tag_29:\n              pop\n              tag_30\n              0x04\n              dup1\n              calldatasize\n              sub\n              dup2\n              add\n              swap1\n              tag_31\n              swap2\n              swap1\n              tag_15\n              jump\t// in\n            tag_31:\n              tag_32\n              jump\t// in\n            tag_30:\n              mload(0x40)\n              tag_33\n              swap6\n              swap5\n              swap4\n              swap3\n              swap2\n              swap1\n              tag_34\n              jump\t// in\n            tag_33:\n              mload(0x40)\n              dup1\n              swap2\n              sub\n              swap1\n              return\n                /* \"Campaign.sol\":796:822  uint public approversCount */\n            tag_6:\n              callvalue\n              dup1\n              iszero\n              tag_35\n              jumpi\n              0x00\n              dup1\n              revert\n            tag_35:\n              pop\n              tag_36\n              tag_37\n              jump\t// in\n            tag_36:\n              mload(0x40)\n              tag_38\n              swap2\n              swap1\n              tag_39\n              jump\t// in\n            tag_38:\n              mload(0x40)\n              dup1\n              swap2\n              sub\n              swap1\n              return\n                /* \"Campaign.sol\":1318:1680  function createRequest(... */\n            tag_7:\n              callvalue\n              dup1\n              iszero\n              tag_40\n              jumpi\n              0x00\n              dup1\n              revert\n            tag_40:\n              pop\n              tag_41\n              0x04\n              dup1\n              calldatasize\n              sub\n              dup2\n              add\n              swap1\n              tag_42\n              swap2\n              swap1\n              tag_43\n              jump\t// in\n            tag_42:\n              tag_44\n              jump\t// in\n            tag_41:\n              stop\n                /* \"Campaign.sol\":712:743  uint public minimumContribution */\n            tag_8:\n              callvalue\n              dup1\n              iszero\n              tag_45\n              jumpi\n              0x00\n              dup1\n              revert\n            tag_45:\n              pop\n              tag_46\n              tag_47\n              jump\t// in\n            tag_46:\n              mload(0x40)\n              tag_48\n              swap2\n              swap1\n              tag_39\n              jump\t// in\n            tag_48:\n              mload(0x40)\n              dup1\n              swap2\n              sub\n              swap1\n              return\n                /* \"Campaign.sol\":1066:1312  function contribute() public payable {... */\n            tag_9:\n              tag_49\n              tag_50\n              jump\t// in\n            tag_49:\n              stop\n                /* \"Campaign.sol\":1686:1984  function approveRequest(uint index) public {... */\n            tag_10:\n              callvalue\n              dup1\n              iszero\n              tag_51\n              jumpi\n              0x00\n              dup1\n              revert\n            tag_51:\n              pop\n              tag_52\n              0x04\n              dup1\n              calldatasize\n              sub\n              dup2\n              add\n              swap1\n              tag_53\n              swap2\n              swap1\n              tag_15\n              jump\t// in\n            tag_53:\n              tag_54\n              jump\t// in\n            tag_52:\n              stop\n                /* \"Campaign.sol\":1990:2288  function finalizeRequest(uint index) public restricted {... */\n            tag_16:\n                /* \"Campaign.sol\":883:890  manager */\n              0x01\n              0x00\n              swap1\n              sload\n              swap1\n              0x0100\n              exp\n              swap1\n              div\n              0xffffffffffffffffffffffffffffffffffffffff\n              and\n                /* \"Campaign.sol\":869:890  msg.sender == manager */\n              0xffffffffffffffffffffffffffffffffffffffff\n              and\n                /* \"Campaign.sol\":869:879  msg.sender */\n              caller\n                /* \"Campaign.sol\":869:890  msg.sender == manager */\n              0xffffffffffffffffffffffffffffffffffffffff\n              and\n              eq\n                /* \"Campaign.sol\":861:920  require(msg.sender == manager, \"Not authorized as manager\") */\n              tag_56\n              jumpi\n              mload(0x40)\n              0x08c379a000000000000000000000000000000000000000000000000000000000\n              dup2\n              mstore\n              0x04\n              add\n              tag_57\n              swap1\n              tag_58\n              jump\t// in\n            tag_57:\n              mload(0x40)\n              dup1\n              swap2\n              sub\n              swap1\n              revert\n            tag_56:\n                /* \"Campaign.sol\":2055:2078  Request storage request */\n              0x00\n                /* \"Campaign.sol\":2081:2089  requests */\n              dup1\n                /* \"Campaign.sol\":2090:2095  index */\n              dup3\n                /* \"Campaign.sol\":2081:2096  requests[index] */\n              dup2\n              sload\n              dup2\n              lt\n              tag_60\n              jumpi\n              tag_61\n              tag_62\n              jump\t// in\n            tag_61:\n            tag_60:\n              swap1\n              0x00\n              mstore\n              keccak256(0x00, 0x20)\n              swap1\n              0x05\n              mul\n              add\n                /* \"Campaign.sol\":2055:2096  Request storage request = requests[index] */\n              swap1\n              pop\n                /* \"Campaign.sol\":2157:2158  2 */\n              0x02\n                /* \"Campaign.sol\":2140:2154  approversCount */\n              sload(0x04)\n                /* \"Campaign.sol\":2140:2158  approversCount / 2 */\n              tag_64\n              swap2\n              swap1\n              tag_65\n              jump\t// in\n            tag_64:\n                /* \"Campaign.sol\":2115:2122  request */\n              dup2\n                /* \"Campaign.sol\":2115:2136  request.approvalCount */\n              0x03\n              add\n              sload\n                /* \"Campaign.sol\":2115:2159  request.approvalCount > (approversCount / 2) */\n              gt\n                /* \"Campaign.sol\":2107:2160  require(request.approvalCount > (approversCount / 2)) */\n              tag_66\n              jumpi\n              0x00\n              dup1\n              revert\n            tag_66:\n                /* \"Campaign.sol\":2179:2186  request */\n              dup1\n                /* \"Campaign.sol\":2179:2195  request.complete */\n              0x02\n              add\n              0x14\n              swap1\n              sload\n              swap1\n              0x0100\n              exp\n              swap1\n              div\n              0xff\n              and\n                /* \"Campaign.sol\":2178:2195  !request.complete */\n              iszero\n                /* \"Campaign.sol\":2170:2196  require(!request.complete) */\n              tag_67\n              jumpi\n              0x00\n              dup1\n              revert\n            tag_67:\n                /* \"Campaign.sol\":2207:2214  request */\n              dup1\n                /* \"Campaign.sol\":2207:2224  request.recepient */\n              0x02\n              add\n              0x00\n              swap1\n              sload\n              swap1\n              0x0100\n              exp\n              swap1\n              div\n              0xffffffffffffffffffffffffffffffffffffffff\n              and\n                /* \"Campaign.sol\":2207:2233  request.recepient.transfer */\n              0xffffffffffffffffffffffffffffffffffffffff\n              and\n                /* \"Campaign.sol\":2207:2248  request.recepient.transfer(request.value) */\n              0x08fc\n                /* \"Campaign.sol\":2234:2241  request */\n              dup3\n                /* \"Campaign.sol\":2234:2247  request.value */\n              0x01\n              add\n              sload\n                /* \"Campaign.sol\":2207:2248  request.recepient.transfer(request.value) */\n              swap1\n              dup2\n              iszero\n              mul\n              swap1\n              mload(0x40)\n              0x00\n              mload(0x40)\n              dup1\n              dup4\n              sub\n              dup2\n              dup6\n              dup9\n              dup9\n              call\n              swap4\n              pop\n              pop\n              pop\n              pop\n              iszero\n              dup1\n              iszero\n              tag_69\n              jumpi\n              returndatasize\n              0x00\n              dup1\n              returndatacopy\n              revert(0x00, returndatasize)\n            tag_69:\n              pop\n                /* \"Campaign.sol\":2277:2281  true */\n              0x01\n                /* \"Campaign.sol\":2258:2265  request */\n              dup2\n                /* \"Campaign.sol\":2258:2274  request.complete */\n              0x02\n              add\n              0x14\n                /* \"Campaign.sol\":2258:2281  request.complete = true */\n              0x0100\n              exp\n              dup2\n              sload\n              dup2\n              0xff\n              mul\n              not\n              and\n              swap1\n              dup4\n              iszero\n              iszero\n              mul\n              or\n              swap1\n              sstore\n              pop\n                /* \"Campaign.sol\":2045:2288  {... */\n              pop\n                /* \"Campaign.sol\":1990:2288  function finalizeRequest(uint index) public restricted {... */\n              pop\n              jump\t// out\n                /* \"Campaign.sol\":749:790  mapping(address => bool) public approvers */\n            tag_21:\n              mstore(0x20, 0x03)\n              dup1\n              0x00\n              mstore\n              keccak256(0x00, 0x40)\n              0x00\n              swap2\n              pop\n              sload\n              swap1\n              0x0100\n              exp\n              swap1\n              div\n              0xff\n              and\n              dup2\n              jump\t// out\n                /* \"Campaign.sol\":684:706  address public manager */\n            tag_26:\n              0x01\n              0x00\n              swap1\n              sload\n              swap1\n              0x0100\n              exp\n              swap1\n              div\n              0xffffffffffffffffffffffffffffffffffffffff\n              and\n              dup2\n              jump\t// out\n                /* \"Campaign.sol\":653:678  Request[] public requests */\n            tag_32:\n              0x00\n              dup2\n              dup2\n              sload\n              dup2\n              lt\n              tag_70\n              jumpi\n              0x00\n              dup1\n              revert\n            tag_70:\n              swap1\n              0x00\n              mstore\n              keccak256(0x00, 0x20)\n              swap1\n              0x05\n              mul\n              add\n              0x00\n              swap2\n              pop\n              swap1\n              pop\n              dup1\n              0x00\n              add\n              dup1\n              sload\n              tag_72\n              swap1\n              tag_73\n              jump\t// in\n            tag_72:\n              dup1\n              0x1f\n              add\n              0x20\n              dup1\n              swap2\n              div\n              mul\n              0x20\n              add\n              mload(0x40)\n              swap1\n              dup2\n              add\n              0x40\n              mstore\n              dup1\n              swap3\n              swap2\n              swap1\n              dup2\n              dup2\n              mstore\n              0x20\n              add\n              dup3\n              dup1\n              sload\n              tag_74\n              swap1\n              tag_73\n              jump\t// in\n            tag_74:\n              dup1\n              iszero\n              tag_75\n              jumpi\n              dup1\n              0x1f\n              lt\n              tag_76\n              jumpi\n              0x0100\n              dup1\n              dup4\n              sload\n              div\n              mul\n              dup4\n              mstore\n              swap2\n              0x20\n              add\n              swap2\n              jump(tag_75)\n            tag_76:\n              dup3\n              add\n              swap2\n              swap1\n              0x00\n              mstore\n              keccak256(0x00, 0x20)\n              swap1\n            tag_77:\n              dup2\n              sload\n              dup2\n              mstore\n              swap1\n              0x01\n              add\n              swap1\n              0x20\n              add\n              dup1\n              dup4\n              gt\n              tag_77\n              jumpi\n              dup3\n              swap1\n              sub\n              0x1f\n              and\n              dup3\n              add\n              swap2\n            tag_75:\n              pop\n              pop\n              pop\n              pop\n              pop\n              swap1\n              dup1\n              0x01\n              add\n              sload\n              swap1\n              dup1\n              0x02\n              add\n              0x00\n              swap1\n              sload\n              swap1\n              0x0100\n              exp\n              swap1\n              div\n              0xffffffffffffffffffffffffffffffffffffffff\n              and\n              swap1\n              dup1\n              0x02\n              add\n              0x14\n              swap1\n              sload\n              swap1\n              0x0100\n              exp\n              swap1\n              div\n              0xff\n              and\n              swap1\n              dup1\n              0x03\n              add\n              sload\n              swap1\n              pop\n              dup6\n              jump\t// out\n                /* \"Campaign.sol\":796:822  uint public approversCount */\n            tag_37:\n              sload(0x04)\n              dup2\n              jump\t// out\n                /* \"Campaign.sol\":1318:1680  function createRequest(... */\n            tag_44:\n                /* \"Campaign.sol\":883:890  manager */\n              0x01\n              0x00\n              swap1\n              sload\n              swap1\n              0x0100\n              exp\n              swap1\n              div\n              0xffffffffffffffffffffffffffffffffffffffff\n              and\n                /* \"Campaign.sol\":869:890  msg.sender == manager */\n              0xffffffffffffffffffffffffffffffffffffffff\n              and\n                /* \"Campaign.sol\":869:879  msg.sender */\n              caller\n                /* \"Campaign.sol\":869:890  msg.sender == manager */\n              0xffffffffffffffffffffffffffffffffffffffff\n              and\n              eq\n                /* \"Campaign.sol\":861:920  require(msg.sender == manager, \"Not authorized as manager\") */\n              tag_79\n              jumpi\n              mload(0x40)\n              0x08c379a000000000000000000000000000000000000000000000000000000000\n              dup2\n              mstore\n              0x04\n              add\n              tag_80\n              swap1\n              tag_58\n              jump\t// in\n            tag_80:\n              mload(0x40)\n              dup1\n              swap2\n              sub\n              swap1\n              revert\n            tag_79:\n                /* \"Campaign.sol\":1469:1495  Request storage newRequest */\n              0x00\n                /* \"Campaign.sol\":1498:1506  requests */\n              dup1\n                /* \"Campaign.sol\":1498:1513  requests.push() */\n              0x01\n              dup2\n              0x01\n              dup2\n              sload\n              add\n              dup1\n              dup3\n              sstore\n              dup1\n              swap2\n              pop\n              pop\n              sub\n              swap1\n              0x00\n              mstore\n              keccak256(0x00, 0x20)\n              swap1\n              0x05\n              mul\n              add\n                /* \"Campaign.sol\":1469:1513  Request storage newRequest = requests.push() */\n              swap1\n              pop\n                /* \"Campaign.sol\":1550:1551  0 */\n              0x00\n                /* \"Campaign.sol\":1523:1533  newRequest */\n              dup2\n                /* \"Campaign.sol\":1523:1547  newRequest.approvalCount */\n              0x03\n              add\n                /* \"Campaign.sol\":1523:1551  newRequest.approvalCount = 0 */\n              dup2\n              swap1\n              sstore\n              pop\n                /* \"Campaign.sol\":1584:1593  recepient */\n              dup2\n                /* \"Campaign.sol\":1561:1571  newRequest */\n              dup2\n                /* \"Campaign.sol\":1561:1581  newRequest.recepient */\n              0x02\n              add\n              0x00\n                /* \"Campaign.sol\":1561:1593  newRequest.recepient = recepient */\n              0x0100\n              exp\n              dup2\n              sload\n              dup2\n              0xffffffffffffffffffffffffffffffffffffffff\n              mul\n              not\n              and\n              swap1\n              dup4\n              0xffffffffffffffffffffffffffffffffffffffff\n              and\n              mul\n              or\n              swap1\n              sstore\n              pop\n                /* \"Campaign.sol\":1622:1627  value */\n              dup3\n                /* \"Campaign.sol\":1603:1613  newRequest */\n              dup2\n                /* \"Campaign.sol\":1603:1619  newRequest.value */\n              0x01\n              add\n                /* \"Campaign.sol\":1603:1627  newRequest.value = value */\n              dup2\n              swap1\n              sstore\n              pop\n                /* \"Campaign.sol\":1662:1673  description */\n              dup5\n              dup5\n                /* \"Campaign.sol\":1637:1647  newRequest */\n              dup3\n                /* \"Campaign.sol\":1637:1659  newRequest.description */\n              0x00\n              add\n                /* \"Campaign.sol\":1637:1673  newRequest.description = description */\n              swap2\n              dup3\n              tag_83\n              swap3\n              swap2\n              swap1\n              tag_84\n              jump\t// in\n            tag_83:\n              pop\n                /* \"Campaign.sol\":1459:1680  {... */\n              pop\n                /* \"Campaign.sol\":1318:1680  function createRequest(... */\n              pop\n              pop\n              pop\n              pop\n              jump\t// out\n                /* \"Campaign.sol\":712:743  uint public minimumContribution */\n            tag_47:\n              sload(0x02)\n              dup2\n              jump\t// out\n                /* \"Campaign.sol\":1066:1312  function contribute() public payable {... */\n            tag_50:\n                /* \"Campaign.sol\":1133:1152  minimumContribution */\n              sload(0x02)\n                /* \"Campaign.sol\":1121:1130  msg.value */\n              callvalue\n                /* \"Campaign.sol\":1121:1152  msg.value > minimumContribution */\n              gt\n                /* \"Campaign.sol\":1113:1184  require(msg.value > minimumContribution, \"You need to contribute more\") */\n              tag_86\n              jumpi\n              mload(0x40)\n              0x08c379a000000000000000000000000000000000000000000000000000000000\n              dup2\n              mstore\n              0x04\n              add\n              tag_87\n              swap1\n              tag_88\n              jump\t// in\n            tag_87:\n              mload(0x40)\n              dup1\n              swap2\n              sub\n              swap1\n              revert\n            tag_86:\n                /* \"Campaign.sol\":1200:1209  approvers */\n              0x03\n                /* \"Campaign.sol\":1200:1221  approvers[msg.sender] */\n              0x00\n                /* \"Campaign.sol\":1210:1220  msg.sender */\n              caller\n                /* \"Campaign.sol\":1200:1221  approvers[msg.sender] */\n              0xffffffffffffffffffffffffffffffffffffffff\n              and\n              0xffffffffffffffffffffffffffffffffffffffff\n              and\n              dup2\n              mstore\n              0x20\n              add\n              swap1\n              dup2\n              mstore\n              0x20\n              add\n              0x00\n              keccak256\n              0x00\n              swap1\n              sload\n              swap1\n              0x0100\n              exp\n              swap1\n              div\n              0xff\n              and\n                /* \"Campaign.sol\":1195:1306  if (!approvers[msg.sender]) {... */\n              tag_89\n              jumpi\n                /* \"Campaign.sol\":1261:1265  true */\n              0x01\n                /* \"Campaign.sol\":1237:1246  approvers */\n              0x03\n                /* \"Campaign.sol\":1237:1258  approvers[msg.sender] */\n              0x00\n                /* \"Campaign.sol\":1247:1257  msg.sender */\n              caller\n                /* \"Campaign.sol\":1237:1258  approvers[msg.sender] */\n              0xffffffffffffffffffffffffffffffffffffffff\n              and\n              0xffffffffffffffffffffffffffffffffffffffff\n              and\n              dup2\n              mstore\n              0x20\n              add\n              swap1\n              dup2\n              mstore\n              0x20\n              add\n              0x00\n              keccak256\n              0x00\n                /* \"Campaign.sol\":1237:1265  approvers[msg.sender] = true */\n              0x0100\n              exp\n              dup2\n              sload\n              dup2\n              0xff\n              mul\n              not\n              and\n              swap1\n              dup4\n              iszero\n              iszero\n              mul\n              or\n              swap1\n              sstore\n              pop\n                /* \"Campaign.sol\":1279:1293  approversCount */\n              0x04\n              0x00\n                /* \"Campaign.sol\":1279:1295  approversCount++ */\n              dup2\n              sload\n              dup1\n              swap3\n              swap2\n              swap1\n              tag_90\n              swap1\n              tag_91\n              jump\t// in\n            tag_90:\n              swap2\n              swap1\n              pop\n              sstore\n              pop\n                /* \"Campaign.sol\":1195:1306  if (!approvers[msg.sender]) {... */\n            tag_89:\n                /* \"Campaign.sol\":1066:1312  function contribute() public payable {... */\n              jump\t// out\n                /* \"Campaign.sol\":1686:1984  function approveRequest(uint index) public {... */\n            tag_54:\n                /* \"Campaign.sol\":1739:1762  Request storage request */\n              0x00\n                /* \"Campaign.sol\":1765:1773  requests */\n              dup1\n                /* \"Campaign.sol\":1774:1779  index */\n              dup3\n                /* \"Campaign.sol\":1765:1780  requests[index] */\n              dup2\n              sload\n              dup2\n              lt\n              tag_93\n              jumpi\n              tag_94\n              tag_62\n              jump\t// in\n            tag_94:\n            tag_93:\n              swap1\n              0x00\n              mstore\n              keccak256(0x00, 0x20)\n              swap1\n              0x05\n              mul\n              add\n                /* \"Campaign.sol\":1739:1780  Request storage request = requests[index] */\n              swap1\n              pop\n                /* \"Campaign.sol\":1799:1808  approvers */\n              0x03\n                /* \"Campaign.sol\":1799:1820  approvers[msg.sender] */\n              0x00\n                /* \"Campaign.sol\":1809:1819  msg.sender */\n              caller\n                /* \"Campaign.sol\":1799:1820  approvers[msg.sender] */\n              0xffffffffffffffffffffffffffffffffffffffff\n              and\n              0xffffffffffffffffffffffffffffffffffffffff\n              and\n              dup2\n              mstore\n              0x20\n              add\n              swap1\n              dup2\n              mstore\n              0x20\n              add\n              0x00\n              keccak256\n              0x00\n              swap1\n              sload\n              swap1\n              0x0100\n              exp\n              swap1\n              div\n              0xff\n              and\n                /* \"Campaign.sol\":1791:1848  require(approvers[msg.sender], \"You are not contributor\") */\n              tag_96\n              jumpi\n              mload(0x40)\n              0x08c379a000000000000000000000000000000000000000000000000000000000\n              dup2\n              mstore\n              0x04\n              add\n              tag_97\n              swap1\n              tag_98\n              jump\t// in\n            tag_97:\n              mload(0x40)\n              dup1\n              swap2\n              sub\n              swap1\n              revert\n            tag_96:\n                /* \"Campaign.sol\":1867:1874  request */\n              dup1\n                /* \"Campaign.sol\":1867:1884  request.approvals */\n              0x04\n              add\n                /* \"Campaign.sol\":1867:1896  request.approvals[msg.sender] */\n              0x00\n                /* \"Campaign.sol\":1885:1895  msg.sender */\n              caller\n                /* \"Campaign.sol\":1867:1896  request.approvals[msg.sender] */\n              0xffffffffffffffffffffffffffffffffffffffff\n              and\n              0xffffffffffffffffffffffffffffffffffffffff\n              and\n              dup2\n              mstore\n              0x20\n              add\n              swap1\n              dup2\n              mstore\n              0x20\n              add\n              0x00\n              keccak256\n              0x00\n              swap1\n              sload\n              swap1\n              0x0100\n              exp\n              swap1\n              div\n              0xff\n              and\n                /* \"Campaign.sol\":1866:1896  !request.approvals[msg.sender] */\n              iszero\n                /* \"Campaign.sol\":1858:1897  require(!request.approvals[msg.sender]) */\n              tag_99\n              jumpi\n              0x00\n              dup1\n              revert\n            tag_99:\n                /* \"Campaign.sol\":1940:1944  true */\n              0x01\n                /* \"Campaign.sol\":1908:1915  request */\n              dup2\n                /* \"Campaign.sol\":1908:1925  request.approvals */\n              0x04\n              add\n                /* \"Campaign.sol\":1908:1937  request.approvals[msg.sender] */\n              0x00\n                /* \"Campaign.sol\":1926:1936  msg.sender */\n              caller\n                /* \"Campaign.sol\":1908:1937  request.approvals[msg.sender] */\n              0xffffffffffffffffffffffffffffffffffffffff\n              and\n              0xffffffffffffffffffffffffffffffffffffffff\n              and\n              dup2\n              mstore\n              0x20\n              add\n              swap1\n              dup2\n              mstore\n              0x20\n              add\n              0x00\n              keccak256\n              0x00\n                /* \"Campaign.sol\":1908:1944  request.approvals[msg.sender] = true */\n              0x0100\n              exp\n              dup2\n              sload\n              dup2\n              0xff\n              mul\n              not\n              and\n              swap1\n              dup4\n              iszero\n              iszero\n              mul\n              or\n              swap1\n              sstore\n              pop\n                /* \"Campaign.sol\":1954:1961  request */\n              dup1\n                /* \"Campaign.sol\":1954:1975  request.approvalCount */\n              0x03\n              add\n              0x00\n                /* \"Campaign.sol\":1954:1977  request.approvalCount++ */\n              dup2\n              sload\n              dup1\n              swap3\n              swap2\n              swap1\n              tag_100\n              swap1\n              tag_91\n              jump\t// in\n            tag_100:\n              swap2\n              swap1\n              pop\n              sstore\n              pop\n                /* \"Campaign.sol\":1729:1984  {... */\n              pop\n                /* \"Campaign.sol\":1686:1984  function approveRequest(uint index) public {... */\n              pop\n              jump\t// out\n                /* \"#utility.yul\":88:205   */\n            tag_102:\n                /* \"#utility.yul\":197:198   */\n              0x00\n                /* \"#utility.yul\":194:195   */\n              dup1\n                /* \"#utility.yul\":187:199   */\n              revert\n                /* \"#utility.yul\":211:328   */\n            tag_103:\n                /* \"#utility.yul\":320:321   */\n              0x00\n                /* \"#utility.yul\":317:318   */\n              dup1\n                /* \"#utility.yul\":310:322   */\n              revert\n                /* \"#utility.yul\":334:411   */\n            tag_104:\n                /* \"#utility.yul\":371:378   */\n              0x00\n                /* \"#utility.yul\":400:405   */\n              dup2\n                /* \"#utility.yul\":389:405   */\n              swap1\n              pop\n                /* \"#utility.yul\":334:411   */\n              swap2\n              swap1\n              pop\n              jump\t// out\n                /* \"#utility.yul\":417:539   */\n            tag_105:\n                /* \"#utility.yul\":490:514   */\n              tag_160\n                /* \"#utility.yul\":508:513   */\n              dup2\n                /* \"#utility.yul\":490:514   */\n              tag_104\n              jump\t// in\n            tag_160:\n                /* \"#utility.yul\":483:488   */\n              dup2\n                /* \"#utility.yul\":480:515   */\n              eq\n                /* \"#utility.yul\":470:533   */\n              tag_161\n              jumpi\n                /* \"#utility.yul\":529:530   */\n              0x00\n                /* \"#utility.yul\":526:527   */\n              dup1\n                /* \"#utility.yul\":519:531   */\n              revert\n                /* \"#utility.yul\":470:533   */\n            tag_161:\n                /* \"#utility.yul\":417:539   */\n              pop\n              jump\t// out\n                /* \"#utility.yul\":545:684   */\n            tag_106:\n                /* \"#utility.yul\":591:596   */\n              0x00\n                /* \"#utility.yul\":629:635   */\n              dup2\n                /* \"#utility.yul\":616:636   */\n              calldataload\n                /* \"#utility.yul\":607:636   */\n              swap1\n              pop\n                /* \"#utility.yul\":645:678   */\n              tag_163\n                /* \"#utility.yul\":672:677   */\n              dup2\n                /* \"#utility.yul\":645:678   */\n              tag_105\n              jump\t// in\n            tag_163:\n                /* \"#utility.yul\":545:684   */\n              swap3\n              swap2\n              pop\n              pop\n              jump\t// out\n                /* \"#utility.yul\":690:1019   */\n            tag_15:\n                /* \"#utility.yul\":749:755   */\n              0x00\n                /* \"#utility.yul\":798:800   */\n              0x20\n                /* \"#utility.yul\":786:795   */\n              dup3\n                /* \"#utility.yul\":777:784   */\n              dup5\n                /* \"#utility.yul\":773:796   */\n              sub\n                /* \"#utility.yul\":769:801   */\n              slt\n                /* \"#utility.yul\":766:885   */\n              iszero\n              tag_165\n              jumpi\n                /* \"#utility.yul\":804:883   */\n              tag_166\n              tag_102\n              jump\t// in\n            tag_166:\n                /* \"#utility.yul\":766:885   */\n            tag_165:\n                /* \"#utility.yul\":924:925   */\n              0x00\n                /* \"#utility.yul\":949:1002   */\n              tag_167\n                /* \"#utility.yul\":994:1001   */\n              dup5\n                /* \"#utility.yul\":985:991   */\n              dup3\n                /* \"#utility.yul\":974:983   */\n              dup6\n                /* \"#utility.yul\":970:992   */\n              add\n                /* \"#utility.yul\":949:1002   */\n              tag_106\n              jump\t// in\n            tag_167:\n                /* \"#utility.yul\":939:1002   */\n              swap2\n              pop\n                /* \"#utility.yul\":895:1012   */\n              pop\n                /* \"#utility.yul\":690:1019   */\n              swap3\n              swap2\n              pop\n              pop\n              jump\t// out\n                /* \"#utility.yul\":1025:1151   */\n            tag_107:\n                /* \"#utility.yul\":1062:1069   */\n              0x00\n                /* \"#utility.yul\":1102:1144   */\n              0xffffffffffffffffffffffffffffffffffffffff\n                /* \"#utility.yul\":1095:1100   */\n              dup3\n                /* \"#utility.yul\":1091:1145   */\n              and\n                /* \"#utility.yul\":1080:1145   */\n              swap1\n              pop\n                /* \"#utility.yul\":1025:1151   */\n              swap2\n              swap1\n              pop\n              jump\t// out\n                /* \"#utility.yul\":1157:1253   */\n            tag_108:\n                /* \"#utility.yul\":1194:1201   */\n              0x00\n                /* \"#utility.yul\":1223:1247   */\n              tag_170\n                /* \"#utility.yul\":1241:1246   */\n              dup3\n                /* \"#utility.yul\":1223:1247   */\n              tag_107\n              jump\t// in\n            tag_170:\n                /* \"#utility.yul\":1212:1247   */\n              swap1\n              pop\n                /* \"#utility.yul\":1157:1253   */\n              swap2\n              swap1\n              pop\n              jump\t// out\n                /* \"#utility.yul\":1259:1381   */\n            tag_109:\n                /* \"#utility.yul\":1332:1356   */\n              tag_172\n                /* \"#utility.yul\":1350:1355   */\n              dup2\n                /* \"#utility.yul\":1332:1356   */\n              tag_108\n              jump\t// in\n            tag_172:\n                /* \"#utility.yul\":1325:1330   */\n              dup2\n                /* \"#utility.yul\":1322:1357   */\n              eq\n                /* \"#utility.yul\":1312:1375   */\n              tag_173\n              jumpi\n                /* \"#utility.yul\":1371:1372   */\n              0x00\n                /* \"#utility.yul\":1368:1369   */\n              dup1\n                /* \"#utility.yul\":1361:1373   */\n              revert\n                /* \"#utility.yul\":1312:1375   */\n            tag_173:\n                /* \"#utility.yul\":1259:1381   */\n              pop\n              jump\t// out\n                /* \"#utility.yul\":1387:1526   */\n            tag_110:\n                /* \"#utility.yul\":1433:1438   */\n              0x00\n                /* \"#utility.yul\":1471:1477   */\n              dup2\n                /* \"#utility.yul\":1458:1478   */\n              calldataload\n                /* \"#utility.yul\":1449:1478   */\n              swap1\n              pop\n                /* \"#utility.yul\":1487:1520   */\n              tag_175\n                /* \"#utility.yul\":1514:1519   */\n              dup2\n                /* \"#utility.yul\":1487:1520   */\n              tag_109\n              jump\t// in\n            tag_175:\n                /* \"#utility.yul\":1387:1526   */\n              swap3\n              swap2\n              pop\n              pop\n              jump\t// out\n                /* \"#utility.yul\":1532:1861   */\n            tag_20:\n                /* \"#utility.yul\":1591:1597   */\n              0x00\n                /* \"#utility.yul\":1640:1642   */\n              0x20\n                /* \"#utility.yul\":1628:1637   */\n              dup3\n                /* \"#utility.yul\":1619:1626   */\n              dup5\n                /* \"#utility.yul\":1615:1638   */\n              sub\n                /* \"#utility.yul\":1611:1643   */\n              slt\n                /* \"#utility.yul\":1608:1727   */\n              iszero\n              tag_177\n              jumpi\n                /* \"#utility.yul\":1646:1725   */\n              tag_178\n              tag_102\n              jump\t// in\n            tag_178:\n                /* \"#utility.yul\":1608:1727   */\n            tag_177:\n                /* \"#utility.yul\":1766:1767   */\n              0x00\n                /* \"#utility.yul\":1791:1844   */\n              tag_179\n                /* \"#utility.yul\":1836:1843   */\n              dup5\n                /* \"#utility.yul\":1827:1833   */\n              dup3\n                /* \"#utility.yul\":1816:1825   */\n              dup6\n                /* \"#utility.yul\":1812:1834   */\n              add\n                /* \"#utility.yul\":1791:1844   */\n              tag_110\n              jump\t// in\n            tag_179:\n                /* \"#utility.yul\":1781:1844   */\n              swap2\n              pop\n                /* \"#utility.yul\":1737:1854   */\n              pop\n                /* \"#utility.yul\":1532:1861   */\n              swap3\n              swap2\n              pop\n              pop\n              jump\t// out\n                /* \"#utility.yul\":1867:1957   */\n            tag_111:\n                /* \"#utility.yul\":1901:1908   */\n              0x00\n                /* \"#utility.yul\":1944:1949   */\n              dup2\n                /* \"#utility.yul\":1937:1950   */\n              iszero\n                /* \"#utility.yul\":1930:1951   */\n              iszero\n                /* \"#utility.yul\":1919:1951   */\n              swap1\n              pop\n                /* \"#utility.yul\":1867:1957   */\n              swap2\n              swap1\n              pop\n              jump\t// out\n                /* \"#utility.yul\":1963:2072   */\n            tag_112:\n                /* \"#utility.yul\":2044:2065   */\n              tag_182\n                /* \"#utility.yul\":2059:2064   */\n              dup2\n                /* \"#utility.yul\":2044:2065   */\n              tag_111\n              jump\t// in\n            tag_182:\n                /* \"#utility.yul\":2039:2042   */\n              dup3\n                /* \"#utility.yul\":2032:2066   */\n              mstore\n                /* \"#utility.yul\":1963:2072   */\n              pop\n              pop\n              jump\t// out\n                /* \"#utility.yul\":2078:2288   */\n            tag_23:\n                /* \"#utility.yul\":2165:2169   */\n              0x00\n                /* \"#utility.yul\":2203:2205   */\n              0x20\n                /* \"#utility.yul\":2192:2201   */\n              dup3\n                /* \"#utility.yul\":2188:2206   */\n              add\n                /* \"#utility.yul\":2180:2206   */\n              swap1\n              pop\n                /* \"#utility.yul\":2216:2281   */\n              tag_184\n                /* \"#utility.yul\":2278:2279   */\n              0x00\n                /* \"#utility.yul\":2267:2276   */\n              dup4\n                /* \"#utility.yul\":2263:2280   */\n              add\n                /* \"#utility.yul\":2254:2260   */\n              dup5\n                /* \"#utility.yul\":2216:2281   */\n              tag_112\n              jump\t// in\n            tag_184:\n                /* \"#utility.yul\":2078:2288   */\n              swap3\n              swap2\n              pop\n              pop\n              jump\t// out\n                /* \"#utility.yul\":2294:2412   */\n            tag_113:\n                /* \"#utility.yul\":2381:2405   */\n              tag_186\n                /* \"#utility.yul\":2399:2404   */\n              dup2\n                /* \"#utility.yul\":2381:2405   */\n              tag_108\n              jump\t// in\n            tag_186:\n                /* \"#utility.yul\":2376:2379   */\n              dup3\n                /* \"#utility.yul\":2369:2406   */\n              mstore\n                /* \"#utility.yul\":2294:2412   */\n              pop\n              pop\n              jump\t// out\n                /* \"#utility.yul\":2418:2640   */\n            tag_28:\n                /* \"#utility.yul\":2511:2515   */\n              0x00\n                /* \"#utility.yul\":2549:2551   */\n              0x20\n                /* \"#utility.yul\":2538:2547   */\n              dup3\n                /* \"#utility.yul\":2534:2552   */\n              add\n                /* \"#utility.yul\":2526:2552   */\n              swap1\n              pop\n                /* \"#utility.yul\":2562:2633   */\n              tag_188\n                /* \"#utility.yul\":2630:2631   */\n              0x00\n                /* \"#utility.yul\":2619:2628   */\n              dup4\n                /* \"#utility.yul\":2615:2632   */\n              add\n                /* \"#utility.yul\":2606:2612   */\n              dup5\n                /* \"#utility.yul\":2562:2633   */\n              tag_113\n              jump\t// in\n            tag_188:\n                /* \"#utility.yul\":2418:2640   */\n              swap3\n              swap2\n              pop\n              pop\n              jump\t// out\n                /* \"#utility.yul\":2646:2745   */\n            tag_114:\n                /* \"#utility.yul\":2698:2704   */\n              0x00\n                /* \"#utility.yul\":2732:2737   */\n              dup2\n                /* \"#utility.yul\":2726:2738   */\n              mload\n                /* \"#utility.yul\":2716:2738   */\n              swap1\n              pop\n                /* \"#utility.yul\":2646:2745   */\n              swap2\n              swap1\n              pop\n              jump\t// out\n                /* \"#utility.yul\":2751:2920   */\n            tag_115:\n                /* \"#utility.yul\":2835:2846   */\n              0x00\n                /* \"#utility.yul\":2869:2875   */\n              dup3\n                /* \"#utility.yul\":2864:2867   */\n              dup3\n                /* \"#utility.yul\":2857:2876   */\n              mstore\n                /* \"#utility.yul\":2909:2913   */\n              0x20\n                /* \"#utility.yul\":2904:2907   */\n              dup3\n                /* \"#utility.yul\":2900:2914   */\n              add\n                /* \"#utility.yul\":2885:2914   */\n              swap1\n              pop\n                /* \"#utility.yul\":2751:2920   */\n              swap3\n              swap2\n              pop\n              pop\n              jump\t// out\n                /* \"#utility.yul\":2926:3172   */\n            tag_116:\n                /* \"#utility.yul\":3007:3008   */\n              0x00\n                /* \"#utility.yul\":3017:3130   */\n            tag_192:\n                /* \"#utility.yul\":3031:3037   */\n              dup4\n                /* \"#utility.yul\":3028:3029   */\n              dup2\n                /* \"#utility.yul\":3025:3038   */\n              lt\n                /* \"#utility.yul\":3017:3130   */\n              iszero\n              tag_194\n              jumpi\n                /* \"#utility.yul\":3116:3117   */\n              dup1\n                /* \"#utility.yul\":3111:3114   */\n              dup3\n                /* \"#utility.yul\":3107:3118   */\n              add\n                /* \"#utility.yul\":3101:3119   */\n              mload\n                /* \"#utility.yul\":3097:3098   */\n              dup2\n                /* \"#utility.yul\":3092:3095   */\n              dup5\n                /* \"#utility.yul\":3088:3099   */\n              add\n                /* \"#utility.yul\":3081:3120   */\n              mstore\n                /* \"#utility.yul\":3053:3055   */\n              0x20\n                /* \"#utility.yul\":3050:3051   */\n              dup2\n                /* \"#utility.yul\":3046:3056   */\n              add\n                /* \"#utility.yul\":3041:3056   */\n              swap1\n              pop\n                /* \"#utility.yul\":3017:3130   */\n              jump(tag_192)\n            tag_194:\n                /* \"#utility.yul\":3164:3165   */\n              0x00\n                /* \"#utility.yul\":3155:3161   */\n              dup5\n                /* \"#utility.yul\":3150:3153   */\n              dup5\n                /* \"#utility.yul\":3146:3162   */\n              add\n                /* \"#utility.yul\":3139:3166   */\n              mstore\n                /* \"#utility.yul\":2988:3172   */\n              pop\n                /* \"#utility.yul\":2926:3172   */\n              pop\n              pop\n              pop\n              jump\t// out\n                /* \"#utility.yul\":3178:3280   */\n            tag_117:\n                /* \"#utility.yul\":3219:3225   */\n              0x00\n                /* \"#utility.yul\":3270:3272   */\n              0x1f\n                /* \"#utility.yul\":3266:3273   */\n              not\n                /* \"#utility.yul\":3261:3263   */\n              0x1f\n                /* \"#utility.yul\":3254:3259   */\n              dup4\n                /* \"#utility.yul\":3250:3264   */\n              add\n                /* \"#utility.yul\":3246:3274   */\n              and\n                /* \"#utility.yul\":3236:3274   */\n              swap1\n              pop\n                /* \"#utility.yul\":3178:3280   */\n              swap2\n              swap1\n              pop\n              jump\t// out\n                /* \"#utility.yul\":3286:3663   */\n            tag_118:\n                /* \"#utility.yul\":3374:3377   */\n              0x00\n                /* \"#utility.yul\":3402:3441   */\n              tag_197\n                /* \"#utility.yul\":3435:3440   */\n              dup3\n                /* \"#utility.yul\":3402:3441   */\n              tag_114\n              jump\t// in\n            tag_197:\n                /* \"#utility.yul\":3457:3528   */\n              tag_198\n                /* \"#utility.yul\":3521:3527   */\n              dup2\n                /* \"#utility.yul\":3516:3519   */\n              dup6\n                /* \"#utility.yul\":3457:3528   */\n              tag_115\n              jump\t// in\n            tag_198:\n                /* \"#utility.yul\":3450:3528   */\n              swap4\n              pop\n                /* \"#utility.yul\":3537:3602   */\n              tag_199\n                /* \"#utility.yul\":3595:3601   */\n              dup2\n                /* \"#utility.yul\":3590:3593   */\n              dup6\n                /* \"#utility.yul\":3583:3587   */\n              0x20\n                /* \"#utility.yul\":3576:3581   */\n              dup7\n                /* \"#utility.yul\":3572:3588   */\n              add\n                /* \"#utility.yul\":3537:3602   */\n              tag_116\n              jump\t// in\n            tag_199:\n                /* \"#utility.yul\":3627:3656   */\n              tag_200\n                /* \"#utility.yul\":3649:3655   */\n              dup2\n                /* \"#utility.yul\":3627:3656   */\n              tag_117\n              jump\t// in\n            tag_200:\n                /* \"#utility.yul\":3622:3625   */\n              dup5\n                /* \"#utility.yul\":3618:3657   */\n              add\n                /* \"#utility.yul\":3611:3657   */\n              swap2\n              pop\n                /* \"#utility.yul\":3378:3663   */\n              pop\n                /* \"#utility.yul\":3286:3663   */\n              swap3\n              swap2\n              pop\n              pop\n              jump\t// out\n                /* \"#utility.yul\":3669:3787   */\n            tag_119:\n                /* \"#utility.yul\":3756:3780   */\n              tag_202\n                /* \"#utility.yul\":3774:3779   */\n              dup2\n                /* \"#utility.yul\":3756:3780   */\n              tag_104\n              jump\t// in\n            tag_202:\n                /* \"#utility.yul\":3751:3754   */\n              dup3\n                /* \"#utility.yul\":3744:3781   */\n              mstore\n                /* \"#utility.yul\":3669:3787   */\n              pop\n              pop\n              jump\t// out\n                /* \"#utility.yul\":3793:3897   */\n            tag_120:\n                /* \"#utility.yul\":3838:3845   */\n              0x00\n                /* \"#utility.yul\":3867:3891   */\n              tag_204\n                /* \"#utility.yul\":3885:3890   */\n              dup3\n                /* \"#utility.yul\":3867:3891   */\n              tag_107\n              jump\t// in\n            tag_204:\n                /* \"#utility.yul\":3856:3891   */\n              swap1\n              pop\n                /* \"#utility.yul\":3793:3897   */\n              swap2\n              swap1\n              pop\n              jump\t// out\n                /* \"#utility.yul\":3903:4045   */\n            tag_121:\n                /* \"#utility.yul\":4006:4038   */\n              tag_206\n                /* \"#utility.yul\":4032:4037   */\n              dup2\n                /* \"#utility.yul\":4006:4038   */\n              tag_120\n              jump\t// in\n            tag_206:\n                /* \"#utility.yul\":4001:4004   */\n              dup3\n                /* \"#utility.yul\":3994:4039   */\n              mstore\n                /* \"#utility.yul\":3903:4045   */\n              pop\n              pop\n              jump\t// out\n                /* \"#utility.yul\":4051:4826   */\n            tag_34:\n                /* \"#utility.yul\":4286:4290   */\n              0x00\n                /* \"#utility.yul\":4324:4327   */\n              0xa0\n                /* \"#utility.yul\":4313:4322   */\n              dup3\n                /* \"#utility.yul\":4309:4328   */\n              add\n                /* \"#utility.yul\":4301:4328   */\n              swap1\n              pop\n                /* \"#utility.yul\":4374:4383   */\n              dup2\n                /* \"#utility.yul\":4368:4372   */\n              dup2\n                /* \"#utility.yul\":4364:4384   */\n              sub\n                /* \"#utility.yul\":4360:4361   */\n              0x00\n                /* \"#utility.yul\":4349:4358   */\n              dup4\n                /* \"#utility.yul\":4345:4362   */\n              add\n                /* \"#utility.yul\":4338:4385   */\n              mstore\n                /* \"#utility.yul\":4402:4480   */\n              tag_208\n                /* \"#utility.yul\":4475:4479   */\n              dup2\n                /* \"#utility.yul\":4466:4472   */\n              dup9\n                /* \"#utility.yul\":4402:4480   */\n              tag_118\n              jump\t// in\n            tag_208:\n                /* \"#utility.yul\":4394:4480   */\n              swap1\n              pop\n                /* \"#utility.yul\":4490:4562   */\n              tag_209\n                /* \"#utility.yul\":4558:4560   */\n              0x20\n                /* \"#utility.yul\":4547:4556   */\n              dup4\n                /* \"#utility.yul\":4543:4561   */\n              add\n                /* \"#utility.yul\":4534:4540   */\n              dup8\n                /* \"#utility.yul\":4490:4562   */\n              tag_119\n              jump\t// in\n            tag_209:\n                /* \"#utility.yul\":4572:4660   */\n              tag_210\n                /* \"#utility.yul\":4656:4658   */\n              0x40\n                /* \"#utility.yul\":4645:4654   */\n              dup4\n                /* \"#utility.yul\":4641:4659   */\n              add\n                /* \"#utility.yul\":4632:4638   */\n              dup7\n                /* \"#utility.yul\":4572:4660   */\n              tag_121\n              jump\t// in\n            tag_210:\n                /* \"#utility.yul\":4670:4736   */\n              tag_211\n                /* \"#utility.yul\":4732:4734   */\n              0x60\n                /* \"#utility.yul\":4721:4730   */\n              dup4\n                /* \"#utility.yul\":4717:4735   */\n              add\n                /* \"#utility.yul\":4708:4714   */\n              dup6\n                /* \"#utility.yul\":4670:4736   */\n              tag_112\n              jump\t// in\n            tag_211:\n                /* \"#utility.yul\":4746:4819   */\n              tag_212\n                /* \"#utility.yul\":4814:4817   */\n              0x80\n                /* \"#utility.yul\":4803:4812   */\n              dup4\n                /* \"#utility.yul\":4799:4818   */\n              add\n                /* \"#utility.yul\":4790:4796   */\n              dup5\n                /* \"#utility.yul\":4746:4819   */\n              tag_119\n              jump\t// in\n            tag_212:\n                /* \"#utility.yul\":4051:4826   */\n              swap7\n              swap6\n              pop\n              pop\n              pop\n              pop\n              pop\n              pop\n              jump\t// out\n                /* \"#utility.yul\":4832:5054   */\n            tag_39:\n                /* \"#utility.yul\":4925:4929   */\n              0x00\n                /* \"#utility.yul\":4963:4965   */\n              0x20\n                /* \"#utility.yul\":4952:4961   */\n              dup3\n                /* \"#utility.yul\":4948:4966   */\n              add\n                /* \"#utility.yul\":4940:4966   */\n              swap1\n              pop\n                /* \"#utility.yul\":4976:5047   */\n              tag_214\n                /* \"#utility.yul\":5044:5045   */\n              0x00\n                /* \"#utility.yul\":5033:5042   */\n              dup4\n                /* \"#utility.yul\":5029:5046   */\n              add\n                /* \"#utility.yul\":5020:5026   */\n              dup5\n                /* \"#utility.yul\":4976:5047   */\n              tag_119\n              jump\t// in\n            tag_214:\n                /* \"#utility.yul\":4832:5054   */\n              swap3\n              swap2\n              pop\n              pop\n              jump\t// out\n                /* \"#utility.yul\":5060:5177   */\n            tag_122:\n                /* \"#utility.yul\":5169:5170   */\n              0x00\n                /* \"#utility.yul\":5166:5167   */\n              dup1\n                /* \"#utility.yul\":5159:5171   */\n              revert\n                /* \"#utility.yul\":5183:5300   */\n            tag_123:\n                /* \"#utility.yul\":5292:5293   */\n              0x00\n                /* \"#utility.yul\":5289:5290   */\n              dup1\n                /* \"#utility.yul\":5282:5294   */\n              revert\n                /* \"#utility.yul\":5306:5423   */\n            tag_124:\n                /* \"#utility.yul\":5415:5416   */\n              0x00\n                /* \"#utility.yul\":5412:5413   */\n              dup1\n                /* \"#utility.yul\":5405:5417   */\n              revert\n                /* \"#utility.yul\":5443:5996   */\n            tag_125:\n                /* \"#utility.yul\":5501:5509   */\n              0x00\n                /* \"#utility.yul\":5511:5517   */\n              dup1\n                /* \"#utility.yul\":5561:5564   */\n              dup4\n                /* \"#utility.yul\":5554:5558   */\n              0x1f\n                /* \"#utility.yul\":5546:5552   */\n              dup5\n                /* \"#utility.yul\":5542:5559   */\n              add\n                /* \"#utility.yul\":5538:5565   */\n              slt\n                /* \"#utility.yul\":5528:5650   */\n              tag_219\n              jumpi\n                /* \"#utility.yul\":5569:5648   */\n              tag_220\n              tag_122\n              jump\t// in\n            tag_220:\n                /* \"#utility.yul\":5528:5650   */\n            tag_219:\n                /* \"#utility.yul\":5682:5688   */\n              dup3\n                /* \"#utility.yul\":5669:5689   */\n              calldataload\n                /* \"#utility.yul\":5659:5689   */\n              swap1\n              pop\n                /* \"#utility.yul\":5712:5730   */\n              0xffffffffffffffff\n                /* \"#utility.yul\":5704:5710   */\n              dup2\n                /* \"#utility.yul\":5701:5731   */\n              gt\n                /* \"#utility.yul\":5698:5815   */\n              iszero\n              tag_221\n              jumpi\n                /* \"#utility.yul\":5734:5813   */\n              tag_222\n              tag_123\n              jump\t// in\n            tag_222:\n                /* \"#utility.yul\":5698:5815   */\n            tag_221:\n                /* \"#utility.yul\":5848:5852   */\n              0x20\n                /* \"#utility.yul\":5840:5846   */\n              dup4\n                /* \"#utility.yul\":5836:5853   */\n              add\n                /* \"#utility.yul\":5824:5853   */\n              swap2\n              pop\n                /* \"#utility.yul\":5902:5905   */\n              dup4\n                /* \"#utility.yul\":5894:5898   */\n              0x01\n                /* \"#utility.yul\":5886:5892   */\n              dup3\n                /* \"#utility.yul\":5882:5899   */\n              mul\n                /* \"#utility.yul\":5872:5880   */\n              dup4\n                /* \"#utility.yul\":5868:5900   */\n              add\n                /* \"#utility.yul\":5865:5906   */\n              gt\n                /* \"#utility.yul\":5862:5990   */\n              iszero\n              tag_223\n              jumpi\n                /* \"#utility.yul\":5909:5988   */\n              tag_224\n              tag_124\n              jump\t// in\n            tag_224:\n                /* \"#utility.yul\":5862:5990   */\n            tag_223:\n                /* \"#utility.yul\":5443:5996   */\n              swap3\n              pop\n              swap3\n              swap1\n              pop\n              jump\t// out\n                /* \"#utility.yul\":6002:6140   */\n            tag_126:\n                /* \"#utility.yul\":6083:6115   */\n              tag_226\n                /* \"#utility.yul\":6109:6114   */\n              dup2\n                /* \"#utility.yul\":6083:6115   */\n              tag_120\n              jump\t// in\n            tag_226:\n                /* \"#utility.yul\":6076:6081   */\n              dup2\n                /* \"#utility.yul\":6073:6116   */\n              eq\n                /* \"#utility.yul\":6063:6134   */\n              tag_227\n              jumpi\n                /* \"#utility.yul\":6130:6131   */\n              0x00\n                /* \"#utility.yul\":6127:6128   */\n              dup1\n                /* \"#utility.yul\":6120:6132   */\n              revert\n                /* \"#utility.yul\":6063:6134   */\n            tag_227:\n                /* \"#utility.yul\":6002:6140   */\n              pop\n              jump\t// out\n                /* \"#utility.yul\":6146:6301   */\n            tag_127:\n                /* \"#utility.yul\":6200:6205   */\n              0x00\n                /* \"#utility.yul\":6238:6244   */\n              dup2\n                /* \"#utility.yul\":6225:6245   */\n              calldataload\n                /* \"#utility.yul\":6216:6245   */\n              swap1\n              pop\n                /* \"#utility.yul\":6254:6295   */\n              tag_229\n                /* \"#utility.yul\":6289:6294   */\n              dup2\n                /* \"#utility.yul\":6254:6295   */\n              tag_126\n              jump\t// in\n            tag_229:\n                /* \"#utility.yul\":6146:6301   */\n              swap3\n              swap2\n              pop\n              pop\n              jump\t// out\n                /* \"#utility.yul\":6307:7142   */\n            tag_43:\n                /* \"#utility.yul\":6404:6410   */\n              0x00\n                /* \"#utility.yul\":6412:6418   */\n              dup1\n                /* \"#utility.yul\":6420:6426   */\n              0x00\n                /* \"#utility.yul\":6428:6434   */\n              dup1\n                /* \"#utility.yul\":6477:6479   */\n              0x60\n                /* \"#utility.yul\":6465:6474   */\n              dup6\n                /* \"#utility.yul\":6456:6463   */\n              dup8\n                /* \"#utility.yul\":6452:6475   */\n              sub\n                /* \"#utility.yul\":6448:6480   */\n              slt\n                /* \"#utility.yul\":6445:6564   */\n              iszero\n              tag_231\n              jumpi\n                /* \"#utility.yul\":6483:6562   */\n              tag_232\n              tag_102\n              jump\t// in\n            tag_232:\n                /* \"#utility.yul\":6445:6564   */\n            tag_231:\n                /* \"#utility.yul\":6631:6632   */\n              0x00\n                /* \"#utility.yul\":6620:6629   */\n              dup6\n                /* \"#utility.yul\":6616:6633   */\n              add\n                /* \"#utility.yul\":6603:6634   */\n              calldataload\n                /* \"#utility.yul\":6661:6679   */\n              0xffffffffffffffff\n                /* \"#utility.yul\":6653:6659   */\n              dup2\n                /* \"#utility.yul\":6650:6680   */\n              gt\n                /* \"#utility.yul\":6647:6764   */\n              iszero\n              tag_233\n              jumpi\n                /* \"#utility.yul\":6683:6762   */\n              tag_234\n              tag_103\n              jump\t// in\n            tag_234:\n                /* \"#utility.yul\":6647:6764   */\n            tag_233:\n                /* \"#utility.yul\":6796:6861   */\n              tag_235\n                /* \"#utility.yul\":6853:6860   */\n              dup8\n                /* \"#utility.yul\":6844:6850   */\n              dup3\n                /* \"#utility.yul\":6833:6842   */\n              dup9\n                /* \"#utility.yul\":6829:6851   */\n              add\n                /* \"#utility.yul\":6796:6861   */\n              tag_125\n              jump\t// in\n            tag_235:\n                /* \"#utility.yul\":6778:6861   */\n              swap5\n              pop\n              swap5\n              pop\n                /* \"#utility.yul\":6574:6871   */\n              pop\n                /* \"#utility.yul\":6910:6912   */\n              0x20\n                /* \"#utility.yul\":6936:6989   */\n              tag_236\n                /* \"#utility.yul\":6981:6988   */\n              dup8\n                /* \"#utility.yul\":6972:6978   */\n              dup3\n                /* \"#utility.yul\":6961:6970   */\n              dup9\n                /* \"#utility.yul\":6957:6979   */\n              add\n                /* \"#utility.yul\":6936:6989   */\n              tag_106\n              jump\t// in\n            tag_236:\n                /* \"#utility.yul\":6926:6989   */\n              swap3\n              pop\n                /* \"#utility.yul\":6881:6999   */\n              pop\n                /* \"#utility.yul\":7038:7040   */\n              0x40\n                /* \"#utility.yul\":7064:7125   */\n              tag_237\n                /* \"#utility.yul\":7117:7124   */\n              dup8\n                /* \"#utility.yul\":7108:7114   */\n              dup3\n                /* \"#utility.yul\":7097:7106   */\n              dup9\n                /* \"#utility.yul\":7093:7115   */\n              add\n                /* \"#utility.yul\":7064:7125   */\n              tag_127\n              jump\t// in\n            tag_237:\n                /* \"#utility.yul\":7054:7125   */\n              swap2\n              pop\n                /* \"#utility.yul\":7009:7135   */\n              pop\n                /* \"#utility.yul\":6307:7142   */\n              swap3\n              swap6\n              swap2\n              swap5\n              pop\n              swap3\n              pop\n              jump\t// out\n                /* \"#utility.yul\":7148:7323   */\n            tag_128:\n                /* \"#utility.yul\":7288:7315   */\n              0x4e6f7420617574686f72697a6564206173206d616e6167657200000000000000\n                /* \"#utility.yul\":7284:7285   */\n              0x00\n                /* \"#utility.yul\":7276:7282   */\n              dup3\n                /* \"#utility.yul\":7272:7286   */\n              add\n                /* \"#utility.yul\":7265:7316   */\n              mstore\n                /* \"#utility.yul\":7148:7323   */\n              pop\n              jump\t// out\n                /* \"#utility.yul\":7329:7695   */\n            tag_129:\n                /* \"#utility.yul\":7471:7474   */\n              0x00\n                /* \"#utility.yul\":7492:7559   */\n              tag_240\n                /* \"#utility.yul\":7556:7558   */\n              0x19\n                /* \"#utility.yul\":7551:7554   */\n              dup4\n                /* \"#utility.yul\":7492:7559   */\n              tag_115\n              jump\t// in\n            tag_240:\n                /* \"#utility.yul\":7485:7559   */\n              swap2\n              pop\n                /* \"#utility.yul\":7568:7661   */\n              tag_241\n                /* \"#utility.yul\":7657:7660   */\n              dup3\n                /* \"#utility.yul\":7568:7661   */\n              tag_128\n              jump\t// in\n            tag_241:\n                /* \"#utility.yul\":7686:7688   */\n              0x20\n                /* \"#utility.yul\":7681:7684   */\n              dup3\n                /* \"#utility.yul\":7677:7689   */\n              add\n                /* \"#utility.yul\":7670:7689   */\n              swap1\n              pop\n                /* \"#utility.yul\":7329:7695   */\n              swap2\n              swap1\n              pop\n              jump\t// out\n                /* \"#utility.yul\":7701:8120   */\n            tag_58:\n                /* \"#utility.yul\":7867:7871   */\n              0x00\n                /* \"#utility.yul\":7905:7907   */\n              0x20\n                /* \"#utility.yul\":7894:7903   */\n              dup3\n                /* \"#utility.yul\":7890:7908   */\n              add\n                /* \"#utility.yul\":7882:7908   */\n              swap1\n              pop\n                /* \"#utility.yul\":7954:7963   */\n              dup2\n                /* \"#utility.yul\":7948:7952   */\n              dup2\n                /* \"#utility.yul\":7944:7964   */\n              sub\n                /* \"#utility.yul\":7940:7941   */\n              0x00\n                /* \"#utility.yul\":7929:7938   */\n              dup4\n                /* \"#utility.yul\":7925:7942   */\n              add\n                /* \"#utility.yul\":7918:7965   */\n              mstore\n                /* \"#utility.yul\":7982:8113   */\n              tag_243\n                /* \"#utility.yul\":8108:8112   */\n              dup2\n                /* \"#utility.yul\":7982:8113   */\n              tag_129\n              jump\t// in\n            tag_243:\n                /* \"#utility.yul\":7974:8113   */\n              swap1\n              pop\n                /* \"#utility.yul\":7701:8120   */\n              swap2\n              swap1\n              pop\n              jump\t// out\n                /* \"#utility.yul\":8126:8306   */\n            tag_62:\n                /* \"#utility.yul\":8174:8251   */\n              0x4e487b7100000000000000000000000000000000000000000000000000000000\n                /* \"#utility.yul\":8171:8172   */\n              0x00\n                /* \"#utility.yul\":8164:8252   */\n              mstore\n                /* \"#utility.yul\":8271:8275   */\n              0x32\n                /* \"#utility.yul\":8268:8269   */\n              0x04\n                /* \"#utility.yul\":8261:8276   */\n              mstore\n                /* \"#utility.yul\":8295:8299   */\n              0x24\n                /* \"#utility.yul\":8292:8293   */\n              0x00\n                /* \"#utility.yul\":8285:8300   */\n              revert\n                /* \"#utility.yul\":8312:8492   */\n            tag_130:\n                /* \"#utility.yul\":8360:8437   */\n              0x4e487b7100000000000000000000000000000000000000000000000000000000\n                /* \"#utility.yul\":8357:8358   */\n              0x00\n                /* \"#utility.yul\":8350:8438   */\n              mstore\n                /* \"#utility.yul\":8457:8461   */\n              0x12\n                /* \"#utility.yul\":8454:8455   */\n              0x04\n                /* \"#utility.yul\":8447:8462   */\n              mstore\n                /* \"#utility.yul\":8481:8485   */\n              0x24\n                /* \"#utility.yul\":8478:8479   */\n              0x00\n                /* \"#utility.yul\":8471:8486   */\n              revert\n                /* \"#utility.yul\":8498:8678   */\n            tag_131:\n                /* \"#utility.yul\":8546:8623   */\n              0x4e487b7100000000000000000000000000000000000000000000000000000000\n                /* \"#utility.yul\":8543:8544   */\n              0x00\n                /* \"#utility.yul\":8536:8624   */\n              mstore\n                /* \"#utility.yul\":8643:8647   */\n              0x11\n                /* \"#utility.yul\":8640:8641   */\n              0x04\n                /* \"#utility.yul\":8633:8648   */\n              mstore\n                /* \"#utility.yul\":8667:8671   */\n              0x24\n                /* \"#utility.yul\":8664:8665   */\n              0x00\n                /* \"#utility.yul\":8657:8672   */\n              revert\n                /* \"#utility.yul\":8684:8869   */\n            tag_65:\n                /* \"#utility.yul\":8724:8725   */\n              0x00\n                /* \"#utility.yul\":8741:8761   */\n              tag_248\n                /* \"#utility.yul\":8759:8760   */\n              dup3\n                /* \"#utility.yul\":8741:8761   */\n              tag_104\n              jump\t// in\n            tag_248:\n                /* \"#utility.yul\":8736:8761   */\n              swap2\n              pop\n                /* \"#utility.yul\":8775:8795   */\n              tag_249\n                /* \"#utility.yul\":8793:8794   */\n              dup4\n                /* \"#utility.yul\":8775:8795   */\n              tag_104\n              jump\t// in\n            tag_249:\n                /* \"#utility.yul\":8770:8795   */\n              swap3\n              pop\n                /* \"#utility.yul\":8814:8815   */\n              dup3\n                /* \"#utility.yul\":8804:8839   */\n              tag_250\n              jumpi\n                /* \"#utility.yul\":8819:8837   */\n              tag_251\n              tag_130\n              jump\t// in\n            tag_251:\n                /* \"#utility.yul\":8804:8839   */\n            tag_250:\n                /* \"#utility.yul\":8861:8862   */\n              dup3\n                /* \"#utility.yul\":8858:8859   */\n              dup3\n                /* \"#utility.yul\":8854:8863   */\n              div\n                /* \"#utility.yul\":8849:8863   */\n              swap1\n              pop\n                /* \"#utility.yul\":8684:8869   */\n              swap3\n              swap2\n              pop\n              pop\n              jump\t// out\n                /* \"#utility.yul\":8875:9055   */\n            tag_132:\n                /* \"#utility.yul\":8923:9000   */\n              0x4e487b7100000000000000000000000000000000000000000000000000000000\n                /* \"#utility.yul\":8920:8921   */\n              0x00\n                /* \"#utility.yul\":8913:9001   */\n              mstore\n                /* \"#utility.yul\":9020:9024   */\n              0x22\n                /* \"#utility.yul\":9017:9018   */\n              0x04\n                /* \"#utility.yul\":9010:9025   */\n              mstore\n                /* \"#utility.yul\":9044:9048   */\n              0x24\n                /* \"#utility.yul\":9041:9042   */\n              0x00\n                /* \"#utility.yul\":9034:9049   */\n              revert\n                /* \"#utility.yul\":9061:9381   */\n            tag_73:\n                /* \"#utility.yul\":9105:9111   */\n              0x00\n                /* \"#utility.yul\":9142:9143   */\n              0x02\n                /* \"#utility.yul\":9136:9140   */\n              dup3\n                /* \"#utility.yul\":9132:9144   */\n              div\n                /* \"#utility.yul\":9122:9144   */\n              swap1\n              pop\n                /* \"#utility.yul\":9189:9190   */\n              0x01\n                /* \"#utility.yul\":9183:9187   */\n              dup3\n                /* \"#utility.yul\":9179:9191   */\n              and\n                /* \"#utility.yul\":9210:9228   */\n              dup1\n                /* \"#utility.yul\":9200:9281   */\n              tag_254\n              jumpi\n                /* \"#utility.yul\":9266:9270   */\n              0x7f\n                /* \"#utility.yul\":9258:9264   */\n              dup3\n                /* \"#utility.yul\":9254:9271   */\n              and\n                /* \"#utility.yul\":9244:9271   */\n              swap2\n              pop\n                /* \"#utility.yul\":9200:9281   */\n            tag_254:\n                /* \"#utility.yul\":9328:9330   */\n              0x20\n                /* \"#utility.yul\":9320:9326   */\n              dup3\n                /* \"#utility.yul\":9317:9331   */\n              lt\n                /* \"#utility.yul\":9297:9315   */\n              dup2\n                /* \"#utility.yul\":9294:9332   */\n              sub\n                /* \"#utility.yul\":9291:9375   */\n              tag_255\n              jumpi\n                /* \"#utility.yul\":9347:9365   */\n              tag_256\n              tag_132\n              jump\t// in\n            tag_256:\n                /* \"#utility.yul\":9291:9375   */\n            tag_255:\n                /* \"#utility.yul\":9112:9381   */\n              pop\n                /* \"#utility.yul\":9061:9381   */\n              swap2\n              swap1\n              pop\n              jump\t// out\n                /* \"#utility.yul\":9387:9484   */\n            tag_133:\n                /* \"#utility.yul\":9446:9452   */\n              0x00\n                /* \"#utility.yul\":9474:9477   */\n              dup3\n                /* \"#utility.yul\":9464:9477   */\n              swap1\n              pop\n                /* \"#utility.yul\":9387:9484   */\n              swap3\n              swap2\n              pop\n              pop\n              jump\t// out\n                /* \"#utility.yul\":9490:9670   */\n            tag_134:\n                /* \"#utility.yul\":9538:9615   */\n              0x4e487b7100000000000000000000000000000000000000000000000000000000\n                /* \"#utility.yul\":9535:9536   */\n              0x00\n                /* \"#utility.yul\":9528:9616   */\n              mstore\n                /* \"#utility.yul\":9635:9639   */\n              0x41\n                /* \"#utility.yul\":9632:9633   */\n              0x04\n                /* \"#utility.yul\":9625:9640   */\n              mstore\n                /* \"#utility.yul\":9659:9663   */\n              0x24\n                /* \"#utility.yul\":9656:9657   */\n              0x00\n                /* \"#utility.yul\":9649:9664   */\n              revert\n                /* \"#utility.yul\":9676:9817   */\n            tag_135:\n                /* \"#utility.yul\":9725:9729   */\n              0x00\n                /* \"#utility.yul\":9748:9751   */\n              dup2\n                /* \"#utility.yul\":9740:9751   */\n              swap1\n              pop\n                /* \"#utility.yul\":9771:9774   */\n              dup2\n                /* \"#utility.yul\":9768:9769   */\n              0x00\n                /* \"#utility.yul\":9761:9775   */\n              mstore\n                /* \"#utility.yul\":9805:9809   */\n              0x20\n                /* \"#utility.yul\":9802:9803   */\n              0x00\n                /* \"#utility.yul\":9792:9810   */\n              keccak256\n                /* \"#utility.yul\":9784:9810   */\n              swap1\n              pop\n                /* \"#utility.yul\":9676:9817   */\n              swap2\n              swap1\n              pop\n              jump\t// out\n                /* \"#utility.yul\":9823:9916   */\n            tag_136:\n                /* \"#utility.yul\":9860:9866   */\n              0x00\n                /* \"#utility.yul\":9907:9909   */\n              0x20\n                /* \"#utility.yul\":9902:9904   */\n              0x1f\n                /* \"#utility.yul\":9895:9900   */\n              dup4\n                /* \"#utility.yul\":9891:9905   */\n              add\n                /* \"#utility.yul\":9887:9910   */\n              div\n                /* \"#utility.yul\":9877:9910   */\n              swap1\n              pop\n                /* \"#utility.yul\":9823:9916   */\n              swap2\n              swap1\n              pop\n              jump\t// out\n                /* \"#utility.yul\":9922:10029   */\n            tag_137:\n                /* \"#utility.yul\":9966:9974   */\n              0x00\n                /* \"#utility.yul\":10016:10021   */\n              dup3\n                /* \"#utility.yul\":10010:10014   */\n              dup3\n                /* \"#utility.yul\":10006:10022   */\n              shl\n                /* \"#utility.yul\":9985:10022   */\n              swap1\n              pop\n                /* \"#utility.yul\":9922:10029   */\n              swap3\n              swap2\n              pop\n              pop\n              jump\t// out\n                /* \"#utility.yul\":10035:10428   */\n            tag_138:\n                /* \"#utility.yul\":10104:10110   */\n              0x00\n                /* \"#utility.yul\":10154:10155   */\n              0x08\n                /* \"#utility.yul\":10142:10152   */\n              dup4\n                /* \"#utility.yul\":10138:10156   */\n              mul\n                /* \"#utility.yul\":10177:10274   */\n              tag_263\n                /* \"#utility.yul\":10207:10273   */\n              0xffffffffffffffffffffffffffffffffffffffffffffffffffffffffffffffff\n                /* \"#utility.yul\":10196:10205   */\n              dup3\n                /* \"#utility.yul\":10177:10274   */\n              tag_137\n              jump\t// in\n            tag_263:\n                /* \"#utility.yul\":10295:10334   */\n              tag_264\n                /* \"#utility.yul\":10325:10333   */\n              dup7\n                /* \"#utility.yul\":10314:10323   */\n              dup4\n                /* \"#utility.yul\":10295:10334   */\n              tag_137\n              jump\t// in\n            tag_264:\n                /* \"#utility.yul\":10283:10334   */\n              swap6\n              pop\n                /* \"#utility.yul\":10367:10371   */\n              dup1\n                /* \"#utility.yul\":10363:10372   */\n              not\n                /* \"#utility.yul\":10356:10361   */\n              dup5\n                /* \"#utility.yul\":10352:10373   */\n              and\n                /* \"#utility.yul\":10343:10373   */\n              swap4\n              pop\n                /* \"#utility.yul\":10416:10420   */\n              dup1\n                /* \"#utility.yul\":10406:10414   */\n              dup7\n                /* \"#utility.yul\":10402:10421   */\n              and\n                /* \"#utility.yul\":10395:10400   */\n              dup5\n                /* \"#utility.yul\":10392:10422   */\n              or\n                /* \"#utility.yul\":10382:10422   */\n              swap3\n              pop\n                /* \"#utility.yul\":10111:10428   */\n              pop\n              pop\n                /* \"#utility.yul\":10035:10428   */\n              swap4\n              swap3\n              pop\n              pop\n              pop\n              jump\t// out\n                /* \"#utility.yul\":10434:10494   */\n            tag_139:\n                /* \"#utility.yul\":10462:10465   */\n              0x00\n                /* \"#utility.yul\":10483:10488   */\n              dup2\n                /* \"#utility.yul\":10476:10488   */\n              swap1\n              pop\n                /* \"#utility.yul\":10434:10494   */\n              swap2\n              swap1\n              pop\n              jump\t// out\n                /* \"#utility.yul\":10500:10642   */\n            tag_140:\n                /* \"#utility.yul\":10550:10559   */\n              0x00\n                /* \"#utility.yul\":10583:10636   */\n              tag_267\n                /* \"#utility.yul\":10601:10635   */\n              tag_268\n                /* \"#utility.yul\":10610:10634   */\n              tag_269\n                /* \"#utility.yul\":10628:10633   */\n              dup5\n                /* \"#utility.yul\":10610:10634   */\n              tag_104\n              jump\t// in\n            tag_269:\n                /* \"#utility.yul\":10601:10635   */\n              tag_139\n              jump\t// in\n            tag_268:\n                /* \"#utility.yul\":10583:10636   */\n              tag_104\n              jump\t// in\n            tag_267:\n                /* \"#utility.yul\":10570:10636   */\n              swap1\n              pop\n                /* \"#utility.yul\":10500:10642   */\n              swap2\n              swap1\n              pop\n              jump\t// out\n                /* \"#utility.yul\":10648:10723   */\n            tag_141:\n                /* \"#utility.yul\":10691:10694   */\n              0x00\n                /* \"#utility.yul\":10712:10717   */\n              dup2\n                /* \"#utility.yul\":10705:10717   */\n              swap1\n              pop\n                /* \"#utility.yul\":10648:10723   */\n              swap2\n              swap1\n              pop\n              jump\t// out\n                /* \"#utility.yul\":10729:10998   */\n            tag_142:\n                /* \"#utility.yul\":10839:10878   */\n              tag_272\n                /* \"#utility.yul\":10870:10877   */\n              dup4\n                /* \"#utility.yul\":10839:10878   */\n              tag_140\n              jump\t// in\n            tag_272:\n                /* \"#utility.yul\":10900:10991   */\n              tag_273\n                /* \"#utility.yul\":10949:10990   */\n              tag_274\n                /* \"#utility.yul\":10973:10989   */\n              dup3\n                /* \"#utility.yul\":10949:10990   */\n              tag_141\n              jump\t// in\n            tag_274:\n                /* \"#utility.yul\":10941:10947   */\n              dup5\n                /* \"#utility.yul\":10934:10938   */\n              dup5\n                /* \"#utility.yul\":10928:10939   */\n              sload\n                /* \"#utility.yul\":10900:10991   */\n              tag_138\n              jump\t// in\n            tag_273:\n                /* \"#utility.yul\":10894:10898   */\n              dup3\n                /* \"#utility.yul\":10887:10992   */\n              sstore\n                /* \"#utility.yul\":10805:10998   */\n              pop\n                /* \"#utility.yul\":10729:10998   */\n              pop\n              pop\n              pop\n              jump\t// out\n                /* \"#utility.yul\":11004:11077   */\n            tag_143:\n                /* \"#utility.yul\":11049:11052   */\n              0x00\n                /* \"#utility.yul\":11004:11077   */\n              swap1\n              jump\t// out\n                /* \"#utility.yul\":11083:11272   */\n            tag_144:\n                /* \"#utility.yul\":11160:11192   */\n              tag_277\n              tag_143\n              jump\t// in\n            tag_277:\n                /* \"#utility.yul\":11201:11266   */\n              tag_278\n                /* \"#utility.yul\":11259:11265   */\n              dup2\n                /* \"#utility.yul\":11251:11257   */\n              dup5\n                /* \"#utility.yul\":11245:11249   */\n              dup5\n                /* \"#utility.yul\":11201:11266   */\n              tag_142\n              jump\t// in\n            tag_278:\n                /* \"#utility.yul\":11136:11272   */\n              pop\n                /* \"#utility.yul\":11083:11272   */\n              pop\n              pop\n              jump\t// out\n                /* \"#utility.yul\":11278:11464   */\n            tag_145:\n                /* \"#utility.yul\":11338:11458   */\n            tag_280:\n                /* \"#utility.yul\":11355:11358   */\n              dup2\n                /* \"#utility.yul\":11348:11353   */\n              dup2\n                /* \"#utility.yul\":11345:11359   */\n              lt\n                /* \"#utility.yul\":11338:11458   */\n              iszero\n              tag_282\n              jumpi\n                /* \"#utility.yul\":11409:11448   */\n              tag_283\n                /* \"#utility.yul\":11446:11447   */\n              0x00\n                /* \"#utility.yul\":11439:11444   */\n              dup3\n                /* \"#utility.yul\":11409:11448   */\n              tag_144\n              jump\t// in\n            tag_283:\n                /* \"#utility.yul\":11382:11383   */\n              0x01\n                /* \"#utility.yul\":11375:11380   */\n              dup2\n                /* \"#utility.yul\":11371:11384   */\n              add\n                /* \"#utility.yul\":11362:11384   */\n              swap1\n              pop\n                /* \"#utility.yul\":11338:11458   */\n              jump(tag_280)\n            tag_282:\n                /* \"#utility.yul\":11278:11464   */\n              pop\n              pop\n              jump\t// out\n                /* \"#utility.yul\":11470:12013   */\n            tag_146:\n                /* \"#utility.yul\":11571:11573   */\n              0x1f\n                /* \"#utility.yul\":11566:11569   */\n              dup3\n                /* \"#utility.yul\":11563:11574   */\n              gt\n                /* \"#utility.yul\":11560:12006   */\n              iszero\n              tag_285\n              jumpi\n                /* \"#utility.yul\":11605:11643   */\n              tag_286\n                /* \"#utility.yul\":11637:11642   */\n              dup2\n                /* \"#utility.yul\":11605:11643   */\n              tag_135\n              jump\t// in\n            tag_286:\n                /* \"#utility.yul\":11689:11718   */\n              tag_287\n                /* \"#utility.yul\":11707:11717   */\n              dup5\n                /* \"#utility.yul\":11689:11718   */\n              tag_136\n              jump\t// in\n            tag_287:\n                /* \"#utility.yul\":11679:11687   */\n              dup2\n                /* \"#utility.yul\":11675:11719   */\n              add\n                /* \"#utility.yul\":11872:11874   */\n              0x20\n                /* \"#utility.yul\":11860:11870   */\n              dup6\n                /* \"#utility.yul\":11857:11875   */\n              lt\n                /* \"#utility.yul\":11854:11903   */\n              iszero\n              tag_288\n              jumpi\n                /* \"#utility.yul\":11893:11901   */\n              dup2\n                /* \"#utility.yul\":11878:11901   */\n              swap1\n              pop\n                /* \"#utility.yul\":11854:11903   */\n            tag_288:\n                /* \"#utility.yul\":11916:11996   */\n              tag_289\n                /* \"#utility.yul\":11972:11994   */\n              tag_290\n                /* \"#utility.yul\":11990:11993   */\n              dup6\n                /* \"#utility.yul\":11972:11994   */\n              tag_136\n              jump\t// in\n            tag_290:\n                /* \"#utility.yul\":11962:11970   */\n              dup4\n                /* \"#utility.yul\":11958:11995   */\n              add\n                /* \"#utility.yul\":11945:11956   */\n              dup3\n                /* \"#utility.yul\":11916:11996   */\n              tag_145\n              jump\t// in\n            tag_289:\n                /* \"#utility.yul\":11575:12006   */\n              pop\n              pop\n                /* \"#utility.yul\":11560:12006   */\n            tag_285:\n                /* \"#utility.yul\":11470:12013   */\n              pop\n              pop\n              pop\n              jump\t// out\n                /* \"#utility.yul\":12019:12136   */\n            tag_147:\n                /* \"#utility.yul\":12073:12081   */\n              0x00\n                /* \"#utility.yul\":12123:12128   */\n              dup3\n                /* \"#utility.yul\":12117:12121   */\n              dup3\n                /* \"#utility.yul\":12113:12129   */\n              shr\n                /* \"#utility.yul\":12092:12129   */\n              swap1\n              pop\n                /* \"#utility.yul\":12019:12136   */\n              swap3\n              swap2\n              pop\n              pop\n              jump\t// out\n                /* \"#utility.yul\":12142:12311   */\n            tag_148:\n                /* \"#utility.yul\":12186:12192   */\n              0x00\n                /* \"#utility.yul\":12219:12270   */\n              tag_293\n                /* \"#utility.yul\":12267:12268   */\n              0x00\n                /* \"#utility.yul\":12263:12269   */\n              not\n                /* \"#utility.yul\":12255:12260   */\n              dup5\n                /* \"#utility.yul\":12252:12253   */\n              0x08\n                /* \"#utility.yul\":12248:12261   */\n              mul\n                /* \"#utility.yul\":12219:12270   */\n              tag_147\n              jump\t// in\n            tag_293:\n                /* \"#utility.yul\":12215:12271   */\n              not\n                /* \"#utility.yul\":12300:12304   */\n              dup1\n                /* \"#utility.yul\":12294:12298   */\n              dup4\n                /* \"#utility.yul\":12290:12305   */\n              and\n                /* \"#utility.yul\":12280:12305   */\n              swap2\n              pop\n                /* \"#utility.yul\":12193:12311   */\n              pop\n                /* \"#utility.yul\":12142:12311   */\n              swap3\n              swap2\n              pop\n              pop\n              jump\t// out\n                /* \"#utility.yul\":12316:12611   */\n            tag_149:\n                /* \"#utility.yul\":12392:12396   */\n              0x00\n                /* \"#utility.yul\":12538:12567   */\n              tag_295\n                /* \"#utility.yul\":12563:12566   */\n              dup4\n                /* \"#utility.yul\":12557:12561   */\n              dup4\n                /* \"#utility.yul\":12538:12567   */\n              tag_148\n              jump\t// in\n            tag_295:\n                /* \"#utility.yul\":12530:12567   */\n              swap2\n              pop\n                /* \"#utility.yul\":12600:12603   */\n              dup3\n                /* \"#utility.yul\":12597:12598   */\n              0x02\n                /* \"#utility.yul\":12593:12604   */\n              mul\n                /* \"#utility.yul\":12587:12591   */\n              dup3\n                /* \"#utility.yul\":12584:12605   */\n              or\n                /* \"#utility.yul\":12576:12605   */\n              swap1\n              pop\n                /* \"#utility.yul\":12316:12611   */\n              swap3\n              swap2\n              pop\n              pop\n              jump\t// out\n                /* \"#utility.yul\":12616:14019   */\n            tag_84:\n                /* \"#utility.yul\":12740:12784   */\n              tag_297\n                /* \"#utility.yul\":12780:12783   */\n              dup4\n                /* \"#utility.yul\":12775:12778   */\n              dup4\n                /* \"#utility.yul\":12740:12784   */\n              tag_133\n              jump\t// in\n            tag_297:\n                /* \"#utility.yul\":12849:12867   */\n              0xffffffffffffffff\n                /* \"#utility.yul\":12841:12847   */\n              dup2\n                /* \"#utility.yul\":12838:12868   */\n              gt\n                /* \"#utility.yul\":12835:12891   */\n              iszero\n              tag_298\n              jumpi\n                /* \"#utility.yul\":12871:12889   */\n              tag_299\n              tag_134\n              jump\t// in\n            tag_299:\n                /* \"#utility.yul\":12835:12891   */\n            tag_298:\n                /* \"#utility.yul\":12915:12953   */\n              tag_300\n                /* \"#utility.yul\":12947:12951   */\n              dup3\n                /* \"#utility.yul\":12941:12952   */\n              sload\n                /* \"#utility.yul\":12915:12953   */\n              tag_73\n              jump\t// in\n            tag_300:\n                /* \"#utility.yul\":13000:13067   */\n              tag_301\n                /* \"#utility.yul\":13060:13066   */\n              dup3\n                /* \"#utility.yul\":13052:13058   */\n              dup3\n                /* \"#utility.yul\":13046:13050   */\n              dup6\n                /* \"#utility.yul\":13000:13067   */\n              tag_146\n              jump\t// in\n            tag_301:\n                /* \"#utility.yul\":13094:13095   */\n              0x00\n                /* \"#utility.yul\":13123:13125   */\n              0x1f\n                /* \"#utility.yul\":13115:13121   */\n              dup4\n                /* \"#utility.yul\":13112:13126   */\n              gt\n                /* \"#utility.yul\":13140:13141   */\n              0x01\n                /* \"#utility.yul\":13135:13767   */\n              dup2\n              eq\n              tag_303\n              jumpi\n                /* \"#utility.yul\":13811:13812   */\n              0x00\n                /* \"#utility.yul\":13828:13834   */\n              dup5\n                /* \"#utility.yul\":13825:13909   */\n              iszero\n              tag_304\n              jumpi\n                /* \"#utility.yul\":13884:13893   */\n              dup3\n                /* \"#utility.yul\":13879:13882   */\n              dup8\n                /* \"#utility.yul\":13875:13894   */\n              add\n                /* \"#utility.yul\":13862:13895   */\n              calldataload\n                /* \"#utility.yul\":13853:13895   */\n              swap1\n              pop\n                /* \"#utility.yul\":13825:13909   */\n            tag_304:\n                /* \"#utility.yul\":13935:14002   */\n              tag_305\n                /* \"#utility.yul\":13995:14001   */\n              dup6\n                /* \"#utility.yul\":13988:13993   */\n              dup3\n                /* \"#utility.yul\":13935:14002   */\n              tag_149\n              jump\t// in\n            tag_305:\n                /* \"#utility.yul\":13929:13933   */\n              dup7\n                /* \"#utility.yul\":13922:14003   */\n              sstore\n                /* \"#utility.yul\":13784:14013   */\n              pop\n                /* \"#utility.yul\":13105:14013   */\n              jump(tag_302)\n                /* \"#utility.yul\":13135:13767   */\n            tag_303:\n                /* \"#utility.yul\":13187:13191   */\n              0x1f\n                /* \"#utility.yul\":13183:13192   */\n              not\n                /* \"#utility.yul\":13175:13181   */\n              dup5\n                /* \"#utility.yul\":13171:13193   */\n              and\n                /* \"#utility.yul\":13221:13258   */\n              tag_306\n                /* \"#utility.yul\":13253:13257   */\n              dup7\n                /* \"#utility.yul\":13221:13258   */\n              tag_135\n              jump\t// in\n            tag_306:\n                /* \"#utility.yul\":13280:13281   */\n              0x00\n                /* \"#utility.yul\":13294:13509   */\n            tag_307:\n                /* \"#utility.yul\":13308:13315   */\n              dup3\n                /* \"#utility.yul\":13305:13306   */\n              dup2\n                /* \"#utility.yul\":13302:13316   */\n              lt\n                /* \"#utility.yul\":13294:13509   */\n              iszero\n              tag_309\n              jumpi\n                /* \"#utility.yul\":13394:13403   */\n              dup5\n                /* \"#utility.yul\":13389:13392   */\n              dup10\n                /* \"#utility.yul\":13385:13404   */\n              add\n                /* \"#utility.yul\":13372:13405   */\n              calldataload\n                /* \"#utility.yul\":13364:13370   */\n              dup3\n                /* \"#utility.yul\":13357:13406   */\n              sstore\n                /* \"#utility.yul\":13445:13446   */\n              0x01\n                /* \"#utility.yul\":13437:13443   */\n              dup3\n                /* \"#utility.yul\":13433:13447   */\n              add\n                /* \"#utility.yul\":13423:13447   */\n              swap2\n              pop\n                /* \"#utility.yul\":13492:13494   */\n              0x20\n                /* \"#utility.yul\":13481:13490   */\n              dup6\n                /* \"#utility.yul\":13477:13495   */\n              add\n                /* \"#utility.yul\":13464:13495   */\n              swap5\n              pop\n                /* \"#utility.yul\":13331:13335   */\n              0x20\n                /* \"#utility.yul\":13328:13329   */\n              dup2\n                /* \"#utility.yul\":13324:13336   */\n              add\n                /* \"#utility.yul\":13319:13336   */\n              swap1\n              pop\n                /* \"#utility.yul\":13294:13509   */\n              jump(tag_307)\n            tag_309:\n                /* \"#utility.yul\":13537:13543   */\n              dup7\n                /* \"#utility.yul\":13528:13535   */\n              dup4\n                /* \"#utility.yul\":13525:13544   */\n              lt\n                /* \"#utility.yul\":13522:13708   */\n              iszero\n              tag_310\n              jumpi\n                /* \"#utility.yul\":13602:13611   */\n              dup5\n                /* \"#utility.yul\":13597:13600   */\n              dup10\n                /* \"#utility.yul\":13593:13612   */\n              add\n                /* \"#utility.yul\":13580:13613   */\n              calldataload\n                /* \"#utility.yul\":13645:13693   */\n              tag_311\n                /* \"#utility.yul\":13687:13691   */\n              0x1f\n                /* \"#utility.yul\":13679:13685   */\n              dup10\n                /* \"#utility.yul\":13675:13692   */\n              and\n                /* \"#utility.yul\":13664:13673   */\n              dup3\n                /* \"#utility.yul\":13645:13693   */\n              tag_148\n              jump\t// in\n            tag_311:\n                /* \"#utility.yul\":13637:13643   */\n              dup4\n                /* \"#utility.yul\":13630:13694   */\n              sstore\n                /* \"#utility.yul\":13545:13708   */\n              pop\n                /* \"#utility.yul\":13522:13708   */\n            tag_310:\n                /* \"#utility.yul\":13754:13755   */\n              0x01\n                /* \"#utility.yul\":13750:13751   */\n              0x02\n                /* \"#utility.yul\":13742:13748   */\n              dup9\n                /* \"#utility.yul\":13738:13752   */\n              mul\n                /* \"#utility.yul\":13734:13756   */\n              add\n                /* \"#utility.yul\":13728:13732   */\n              dup9\n                /* \"#utility.yul\":13721:13757   */\n              sstore\n                /* \"#utility.yul\":13142:13767   */\n              pop\n              pop\n              pop\n                /* \"#utility.yul\":13105:14013   */\n            tag_302:\n              pop\n                /* \"#utility.yul\":12715:14019   */\n              pop\n              pop\n              pop\n                /* \"#utility.yul\":12616:14019   */\n              pop\n              pop\n              pop\n              jump\t// out\n                /* \"#utility.yul\":14025:14202   */\n            tag_150:\n                /* \"#utility.yul\":14165:14194   */\n              0x596f75206e65656420746f20636f6e74726962757465206d6f72650000000000\n                /* \"#utility.yul\":14161:14162   */\n              0x00\n                /* \"#utility.yul\":14153:14159   */\n              dup3\n                /* \"#utility.yul\":14149:14163   */\n              add\n                /* \"#utility.yul\":14142:14195   */\n              mstore\n                /* \"#utility.yul\":14025:14202   */\n              pop\n              jump\t// out\n                /* \"#utility.yul\":14208:14574   */\n            tag_151:\n                /* \"#utility.yul\":14350:14353   */\n              0x00\n                /* \"#utility.yul\":14371:14438   */\n              tag_314\n                /* \"#utility.yul\":14435:14437   */\n              0x1b\n                /* \"#utility.yul\":14430:14433   */\n              dup4\n                /* \"#utility.yul\":14371:14438   */\n              tag_115\n              jump\t// in\n            tag_314:\n                /* \"#utility.yul\":14364:14438   */\n              swap2\n              pop\n                /* \"#utility.yul\":14447:14540   */\n              tag_315\n                /* \"#utility.yul\":14536:14539   */\n              dup3\n                /* \"#utility.yul\":14447:14540   */\n              tag_150\n              jump\t// in\n            tag_315:\n                /* \"#utility.yul\":14565:14567   */\n              0x20\n                /* \"#utility.yul\":14560:14563   */\n              dup3\n                /* \"#utility.yul\":14556:14568   */\n              add\n                /* \"#utility.yul\":14549:14568   */\n              swap1\n              pop\n                /* \"#utility.yul\":14208:14574   */\n              swap2\n              swap1\n              pop\n              jump\t// out\n                /* \"#utility.yul\":14580:14999   */\n            tag_88:\n                /* \"#utility.yul\":14746:14750   */\n              0x00\n                /* \"#utility.yul\":14784:14786   */\n              0x20\n                /* \"#utility.yul\":14773:14782   */\n              dup3\n                /* \"#utility.yul\":14769:14787   */\n              add\n                /* \"#utility.yul\":14761:14787   */\n              swap1\n              pop\n                /* \"#utility.yul\":14833:14842   */\n              dup2\n                /* \"#utility.yul\":14827:14831   */\n              dup2\n                /* \"#utility.yul\":14823:14843   */\n              sub\n                /* \"#utility.yul\":14819:14820   */\n              0x00\n                /* \"#utility.yul\":14808:14817   */\n              dup4\n                /* \"#utility.yul\":14804:14821   */\n              add\n                /* \"#utility.yul\":14797:14844   */\n              mstore\n                /* \"#utility.yul\":14861:14992   */\n              tag_317\n                /* \"#utility.yul\":14987:14991   */\n              dup2\n                /* \"#utility.yul\":14861:14992   */\n              tag_151\n              jump\t// in\n            tag_317:\n                /* \"#utility.yul\":14853:14992   */\n              swap1\n              pop\n                /* \"#utility.yul\":14580:14999   */\n              swap2\n              swap1\n              pop\n              jump\t// out\n                /* \"#utility.yul\":15005:15238   */\n            tag_91:\n                /* \"#utility.yul\":15044:15047   */\n              0x00\n                /* \"#utility.yul\":15067:15091   */\n              tag_319\n                /* \"#utility.yul\":15085:15090   */\n              dup3\n                /* \"#utility.yul\":15067:15091   */\n              tag_104\n              jump\t// in\n            tag_319:\n                /* \"#utility.yul\":15058:15091   */\n              swap2\n              pop\n                /* \"#utility.yul\":15113:15179   */\n              0xffffffffffffffffffffffffffffffffffffffffffffffffffffffffffffffff\n                /* \"#utility.yul\":15106:15111   */\n              dup3\n                /* \"#utility.yul\":15103:15180   */\n              sub\n                /* \"#utility.yul\":15100:15203   */\n              tag_320\n              jumpi\n                /* \"#utility.yul\":15183:15201   */\n              tag_321\n              tag_131\n              jump\t// in\n            tag_321:\n                /* \"#utility.yul\":15100:15203   */\n            tag_320:\n                /* \"#utility.yul\":15230:15231   */\n              0x01\n                /* \"#utility.yul\":15223:15228   */\n              dup3\n                /* \"#utility.yul\":15219:15232   */\n              add\n                /* \"#utility.yul\":15212:15232   */\n              swap1\n              pop\n                /* \"#utility.yul\":15005:15238   */\n              swap2\n              swap1\n              pop\n              jump\t// out\n                /* \"#utility.yul\":15244:15417   */\n            tag_152:\n                /* \"#utility.yul\":15384:15409   */\n              0x596f7520617265206e6f7420636f6e7472696275746f72000000000000000000\n                /* \"#utility.yul\":15380:15381   */\n              0x00\n                /* \"#utility.yul\":15372:15378   */\n              dup3\n                /* \"#utility.yul\":15368:15382   */\n              add\n                /* \"#utility.yul\":15361:15410   */\n              mstore\n                /* \"#utility.yul\":15244:15417   */\n              pop\n              jump\t// out\n                /* \"#utility.yul\":15423:15789   */\n            tag_153:\n                /* \"#utility.yul\":15565:15568   */\n              0x00\n                /* \"#utility.yul\":15586:15653   */\n              tag_324\n                /* \"#utility.yul\":15650:15652   */\n              0x17\n                /* \"#utility.yul\":15645:15648   */\n              dup4\n                /* \"#utility.yul\":15586:15653   */\n              tag_115\n              jump\t// in\n            tag_324:\n                /* \"#utility.yul\":15579:15653   */\n              swap2\n              pop\n                /* \"#utility.yul\":15662:15755   */\n              tag_325\n                /* \"#utility.yul\":15751:15754   */\n              dup3\n                /* \"#utility.yul\":15662:15755   */\n              tag_152\n              jump\t// in\n            tag_325:\n                /* \"#utility.yul\":15780:15782   */\n              0x20\n                /* \"#utility.yul\":15775:15778   */\n              dup3\n                /* \"#utility.yul\":15771:15783   */\n              add\n                /* \"#utility.yul\":15764:15783   */\n              swap1\n              pop\n                /* \"#utility.yul\":15423:15789   */\n              swap2\n              swap1\n              pop\n              jump\t// out\n                /* \"#utility.yul\":15795:16214   */\n            tag_98:\n                /* \"#utility.yul\":15961:15965   */\n              0x00\n                /* \"#utility.yul\":15999:16001   */\n              0x20\n                /* \"#utility.yul\":15988:15997   */\n              dup3\n                /* \"#utility.yul\":15984:16002   */\n              add\n                /* \"#utility.yul\":15976:16002   */\n              swap1\n              pop\n                /* \"#utility.yul\":16048:16057   */\n              dup2\n                /* \"#utility.yul\":16042:16046   */\n              dup2\n                /* \"#utility.yul\":16038:16058   */\n              sub\n                /* \"#utility.yul\":16034:16035   */\n              0x00\n                /* \"#utility.yul\":16023:16032   */\n              dup4\n                /* \"#utility.yul\":16019:16036   */\n              add\n                /* \"#utility.yul\":16012:16059   */\n              mstore\n                /* \"#utility.yul\":16076:16207   */\n              tag_327\n                /* \"#utility.yul\":16202:16206   */\n              dup2\n                /* \"#utility.yul\":16076:16207   */\n              tag_153\n              jump\t// in\n            tag_327:\n                /* \"#utility.yul\":16068:16207   */\n              swap1\n              pop\n                /* \"#utility.yul\":15795:16214   */\n              swap2\n              swap1\n              pop\n              jump\t// out\n\n            auxdata: 0xa26469706673582212202b79a44d9dcc65e35692217113993182a732278d5d34700b14e111510ba83af364736f6c63430008130033\n        }\n    }\n\n    auxdata: 0xa26469706673582212202d3109addfef139870b79c50b3b93bb1c568b4b087eab7474737774f7ee2f15564736f6c63430008130033\n}\n","bytecode":{"linkReferences":{},"object":"608060405234801561001057600080fd5b50611771806100206000396000f3fe608060405234801561001057600080fd5b50600436106100415760003560e01c806358c9aa4414610046578063d37b127b14610064578063e698bdf114610080575b600080fd5b61004e6100b0565b60405161005b919061031b565b60405180910390f35b61007e60048036038101906100799190610378565b61013e565b005b61009a60048036038101906100959190610378565b6101df565b6040516100a791906103b4565b60405180910390f35b6060600080548060200260200160405190810160405280929190818152602001828054801561013457602002820191906000526020600020905b8160009054906101000a900473ffffffffffffffffffffffffffffffffffffffff1673ffffffffffffffffffffffffffffffffffffffff16815260200190600101908083116100ea575b5050505050905090565b6000813360405161014e9061021e565b6101599291906103de565b604051809103906000f080158015610175573d6000803e3d6000fd5b5090506000819080600181540180825580915050600190039060005260206000200160009091909190916101000a81548173ffffffffffffffffffffffffffffffffffffffff021916908373ffffffffffffffffffffffffffffffffffffffff1602179055505050565b600081815481106101ef57600080fd5b906000526020600020016000915054906101000a900473ffffffffffffffffffffffffffffffffffffffff1681565b6113348061040883390190565b600081519050919050565b600082825260208201905092915050565b6000819050602082019050919050565b600073ffffffffffffffffffffffffffffffffffffffff82169050919050565b600061028282610257565b9050919050565b61029281610277565b82525050565b60006102a48383610289565b60208301905092915050565b6000602082019050919050565b60006102c88261022b565b6102d28185610236565b93506102dd83610247565b8060005b8381101561030e5781516102f58882610298565b9750610300836102b0565b9250506001810190506102e1565b5085935050505092915050565b6000602082019050818103600083015261033581846102bd565b905092915050565b600080fd5b6000819050919050565b61035581610342565b811461036057600080fd5b50565b6000813590506103728161034c565b92915050565b60006020828403121561038e5761038d61033d565b5b600061039c84828501610363565b91505092915050565b6103ae81610277565b82525050565b60006020820190506103c960008301846103a5565b92915050565b6103d881610342565b82525050565b60006040820190506103f360008301856103cf565b61040060208301846103a5565b939250505056fe60806040523480156200001157600080fd5b50604051620013343803806200133483398181016040528101906200003791906200012c565b80600160006101000a81548173ffffffffffffffffffffffffffffffffffffffff021916908373ffffffffffffffffffffffffffffffffffffffff16021790555081600281905550505062000173565b600080fd5b6000819050919050565b620000a1816200008c565b8114620000ad57600080fd5b50565b600081519050620000c18162000096565b92915050565b600073ffffffffffffffffffffffffffffffffffffffff82169050919050565b6000620000f482620000c7565b9050919050565b6200010681620000e7565b81146200011257600080fd5b50565b6000815190506200012681620000fb565b92915050565b6000806040838503121562000146576200014562000087565b5b60006200015685828601620000b0565b9250506020620001698582860162000115565b9150509250929050565b6111b180620001836000396000f3fe6080604052600436106100865760003560e01c806382fde0931161005957806382fde0931461015d5780638a9cfd5514610188578063937e09b1146101b1578063d7bb99ba146101dc578063d7d1bbdb146101e657610086565b8063034410061461008b5780630a144391146100b4578063481c6a75146100f157806381d12c581461011c575b600080fd5b34801561009757600080fd5b506100b260048036038101906100ad91906108c9565b61020f565b005b3480156100c057600080fd5b506100db60048036038101906100d69190610954565b61038e565b6040516100e8919061099c565b60405180910390f35b3480156100fd57600080fd5b506101066103ae565b60405161011391906109c6565b60405180910390f35b34801561012857600080fd5b50610143600480360381019061013e91906108c9565b6103d4565b604051610154959493929190610aa1565b60405180910390f35b34801561016957600080fd5b506101726104cf565b60405161017f9190610afb565b60405180910390f35b34801561019457600080fd5b506101af60048036038101906101aa9190610ba7565b6104d5565b005b3480156101bd57600080fd5b506101c66105f9565b6040516101d39190610afb565b60405180910390f35b6101e46105ff565b005b3480156101f257600080fd5b5061020d600480360381019061020891906108c9565b610707565b005b600160009054906101000a900473ffffffffffffffffffffffffffffffffffffffff1673ffffffffffffffffffffffffffffffffffffffff163373ffffffffffffffffffffffffffffffffffffffff161461029f576040517f08c379a000000000000000000000000000000000000000000000000000000000815260040161029690610c67565b60405180910390fd5b60008082815481106102b4576102b3610c87565b5b9060005260206000209060050201905060026004546102d39190610d14565b8160030154116102e257600080fd5b8060020160149054906101000a900460ff16156102fe57600080fd5b8060020160009054906101000a900473ffffffffffffffffffffffffffffffffffffffff1673ffffffffffffffffffffffffffffffffffffffff166108fc82600101549081150290604051600060405180830381858888f1935050505015801561036c573d6000803e3d6000fd5b5060018160020160146101000a81548160ff0219169083151502179055505050565b60036020528060005260406000206000915054906101000a900460ff1681565b600160009054906101000a900473ffffffffffffffffffffffffffffffffffffffff1681565b600081815481106103e457600080fd5b906000526020600020906005020160009150905080600001805461040790610d74565b80601f016020809104026020016040519081016040528092919081815260200182805461043390610d74565b80156104805780601f1061045557610100808354040283529160200191610480565b820191906000526020600020905b81548152906001019060200180831161046357829003601f168201915b5050505050908060010154908060020160009054906101000a900473ffffffffffffffffffffffffffffffffffffffff16908060020160149054906101000a900460ff16908060030154905085565b60045481565b600160009054906101000a900473ffffffffffffffffffffffffffffffffffffffff1673ffffffffffffffffffffffffffffffffffffffff163373ffffffffffffffffffffffffffffffffffffffff1614610565576040517f08c379a000000000000000000000000000000000000000000000000000000000815260040161055c90610c67565b60405180910390fd5b600080600181600181540180825580915050039060005260206000209060050201905060008160030181905550818160020160006101000a81548173ffffffffffffffffffffffffffffffffffffffff021916908373ffffffffffffffffffffffffffffffffffffffff16021790555082816001018190555084848260000191826105f1929190610f8b565b505050505050565b60025481565b6002543411610643576040517f08c379a000000000000000000000000000000000000000000000000000000000815260040161063a906110a7565b60405180910390fd5b600360003373ffffffffffffffffffffffffffffffffffffffff1673ffffffffffffffffffffffffffffffffffffffff16815260200190815260200160002060009054906101000a900460ff16610705576001600360003373ffffffffffffffffffffffffffffffffffffffff1673ffffffffffffffffffffffffffffffffffffffff16815260200190815260200160002060006101000a81548160ff021916908315150217905550600460008154809291906106ff906110c7565b91905055505b565b600080828154811061071c5761071b610c87565b5b90600052602060002090600502019050600360003373ffffffffffffffffffffffffffffffffffffffff1673ffffffffffffffffffffffffffffffffffffffff16815260200190815260200160002060009054906101000a900460ff166107b8576040517f08c379a00000000000000000000000000000000000000000000000000000000081526004016107af9061115b565b60405180910390fd5b8060040160003373ffffffffffffffffffffffffffffffffffffffff1673ffffffffffffffffffffffffffffffffffffffff16815260200190815260200160002060009054906101000a900460ff161561081157600080fd5b60018160040160003373ffffffffffffffffffffffffffffffffffffffff1673ffffffffffffffffffffffffffffffffffffffff16815260200190815260200160002060006101000a81548160ff021916908315150217905550806003016000815480929190610880906110c7565b91905055505050565b600080fd5b600080fd5b6000819050919050565b6108a681610893565b81146108b157600080fd5b50565b6000813590506108c38161089d565b92915050565b6000602082840312156108df576108de610889565b5b60006108ed848285016108b4565b91505092915050565b600073ffffffffffffffffffffffffffffffffffffffff82169050919050565b6000610921826108f6565b9050919050565b61093181610916565b811461093c57600080fd5b50565b60008135905061094e81610928565b92915050565b60006020828403121561096a57610969610889565b5b60006109788482850161093f565b91505092915050565b60008115159050919050565b61099681610981565b82525050565b60006020820190506109b1600083018461098d565b92915050565b6109c081610916565b82525050565b60006020820190506109db60008301846109b7565b92915050565b600081519050919050565b600082825260208201905092915050565b60005b83811015610a1b578082015181840152602081019050610a00565b60008484015250505050565b6000601f19601f8301169050919050565b6000610a43826109e1565b610a4d81856109ec565b9350610a5d8185602086016109fd565b610a6681610a27565b840191505092915050565b610a7a81610893565b82525050565b6000610a8b826108f6565b9050919050565b610a9b81610a80565b82525050565b600060a0820190508181036000830152610abb8188610a38565b9050610aca6020830187610a71565b610ad76040830186610a92565b610ae4606083018561098d565b610af16080830184610a71565b9695505050505050565b6000602082019050610b106000830184610a71565b92915050565b600080fd5b600080fd5b600080fd5b60008083601f840112610b3b57610b3a610b16565b5b8235905067ffffffffffffffff811115610b5857610b57610b1b565b5b602083019150836001820283011115610b7457610b73610b20565b5b9250929050565b610b8481610a80565b8114610b8f57600080fd5b50565b600081359050610ba181610b7b565b92915050565b60008060008060608587031215610bc157610bc0610889565b5b600085013567ffffffffffffffff811115610bdf57610bde61088e565b5b610beb87828801610b25565b94509450506020610bfe878288016108b4565b9250506040610c0f87828801610b92565b91505092959194509250565b7f4e6f7420617574686f72697a6564206173206d616e6167657200000000000000600082015250565b6000610c516019836109ec565b9150610c5c82610c1b565b602082019050919050565b60006020820190508181036000830152610c8081610c44565b9050919050565b7f4e487b7100000000000000000000000000000000000000000000000000000000600052603260045260246000fd5b7f4e487b7100000000000000000000000000000000000000000000000000000000600052601260045260246000fd5b7f4e487b7100000000000000000000000000000000000000000000000000000000600052601160045260246000fd5b6000610d1f82610893565b9150610d2a83610893565b925082610d3a57610d39610cb6565b5b828204905092915050565b7f4e487b7100000000000000000000000000000000000000000000000000000000600052602260045260246000fd5b60006002820490506001821680610d8c57607f821691505b602082108103610d9f57610d9e610d45565b5b50919050565b600082905092915050565b7f4e487b7100000000000000000000000000000000000000000000000000000000600052604160045260246000fd5b60008190508160005260206000209050919050565b60006020601f8301049050919050565b600082821b905092915050565b600060088302610e417fffffffffffffffffffffffffffffffffffffffffffffffffffffffffffffffff82610e04565b610e4b8683610e04565b95508019841693508086168417925050509392505050565b6000819050919050565b6000610e88610e83610e7e84610893565b610e63565b610893565b9050919050565b6000819050919050565b610ea283610e6d565b610eb6610eae82610e8f565b848454610e11565b825550505050565b600090565b610ecb610ebe565b610ed6818484610e99565b505050565b5b81811015610efa57610eef600082610ec3565b600181019050610edc565b5050565b601f821115610f3f57610f1081610ddf565b610f1984610df4565b81016020851015610f28578190505b610f3c610f3485610df4565b830182610edb565b50505b505050565b600082821c905092915050565b6000610f6260001984600802610f44565b1980831691505092915050565b6000610f7b8383610f51565b9150826002028217905092915050565b610f958383610da5565b67ffffffffffffffff811115610fae57610fad610db0565b5b610fb88254610d74565b610fc3828285610efe565b6000601f831160018114610ff25760008415610fe0578287013590505b610fea8582610f6f565b865550611052565b601f19841661100086610ddf565b60005b8281101561102857848901358255600182019150602085019450602081019050611003565b868310156110455784890135611041601f891682610f51565b8355505b6001600288020188555050505b50505050505050565b7f596f75206e65656420746f20636f6e74726962757465206d6f72650000000000600082015250565b6000611091601b836109ec565b915061109c8261105b565b602082019050919050565b600060208201905081810360008301526110c081611084565b9050919050565b60006110d282610893565b91507fffffffffffffffffffffffffffffffffffffffffffffffffffffffffffffffff820361110457611103610ce5565b5b600182019050919050565b7f596f7520617265206e6f7420636f6e7472696275746f72000000000000000000600082015250565b60006111456017836109ec565b91506111508261110f565b602082019050919050565b6000602082019050818103600083015261117481611138565b905091905056fea26469706673582212202b79a44d9dcc65e35692217113993182a732278d5d34700b14e111510ba83af364736f6c63430008130033a26469706673582212202d3109addfef139870b79c50b3b93bb1c568b4b087eab7474737774f7ee2f15564736f6c63430008130033","opcodes":"PUSH1 0x80 PUSH1 0x40 MSTORE CALLVALUE DUP1 ISZERO PUSH2 0x10 JUMPI PUSH1 0x0 DUP1 REVERT JUMPDEST POP PUSH2 0x1771 DUP1 PUSH2 0x20 PUSH1 0x0 CODECOPY PUSH1 0x0 RETURN INVALID PUSH1 0x80 PUSH1 0x40 MSTORE CALLVALUE DUP1 ISZERO PUSH2 0x10 JUMPI PUSH1 0x0 DUP1 REVERT JUMPDEST POP PUSH1 0x4 CALLDATASIZE LT PUSH2 0x41 JUMPI PUSH1 0x0 CALLDATALOAD PUSH1 0xE0 SHR DUP1 PUSH4 0x58C9AA44 EQ PUSH2 0x46 JUMPI DUP1 PUSH4 0xD37B127B EQ PUSH2 0x64 JUMPI DUP1 PUSH4 0xE698BDF1 EQ PUSH2 0x80 JUMPI JUMPDEST PUSH1 0x0 DUP1 REVERT JUMPDEST PUSH2 0x4E PUSH2 0xB0 JUMP JUMPDEST PUSH1 0x40 MLOAD PUSH2 0x5B SWAP2 SWAP1 PUSH2 0x31B JUMP JUMPDEST PUSH1 0x40 MLOAD DUP1 SWAP2 SUB SWAP1 RETURN JUMPDEST PUSH2 0x7E PUSH1 0x4 DUP1 CALLDATASIZE SUB DUP2 ADD SWAP1 PUSH2 0x79 SWAP2 SWAP1 PUSH2 0x378 JUMP JUMPDEST PUSH2 0x13E JUMP JUMPDEST STOP JUMPDEST PUSH2 0x9A PUSH1 0x4 DUP1 CALLDATASIZE SUB DUP2 ADD SWAP1 PUSH2 0x95 SWAP2 SWAP1 PUSH2 0x378 JUMP JUMPDEST PUSH2 0x1DF JUMP JUMPDEST PUSH1 0x40 MLOAD PUSH2 0xA7 SWAP2 SWAP1 PUSH2 0x3B4 JUMP JUMPDEST PUSH1 0x40 MLOAD DUP1 SWAP2 SUB SWAP1 RETURN JUMPDEST PUSH1 0x60 PUSH1 0x0 DUP1 SLOAD DUP1 PUSH1 0x20 MUL PUSH1 0x20 ADD PUSH1 0x40 MLOAD SWAP1 DUP2 ADD PUSH1 0x40 MSTORE DUP1 SWAP3 SWAP2 SWAP1 DUP2 DUP2 MSTORE PUSH1 0x20 ADD DUP3 DUP1 SLOAD DUP1 ISZERO PUSH2 0x134 JUMPI PUSH1 0x20 MUL DUP3 ADD SWAP2 SWAP1 PUSH1 0x0 MSTORE PUSH1 0x20 PUSH1 0x0 KECCAK256 SWAP1 JUMPDEST DUP2 PUSH1 0x0 SWAP1 SLOAD SWAP1 PUSH2 0x100 EXP SWAP1 DIV PUSH20 0xFFFFFFFFFFFFFFFFFFFFFFFFFFFFFFFFFFFFFFFF AND PUSH20 0xFFFFFFFFFFFFFFFFFFFFFFFFFFFFFFFFFFFFFFFF AND DUP2 MSTORE PUSH1 0x20 ADD SWAP1 PUSH1 0x1 ADD SWAP1 DUP1 DUP4 GT PUSH2 0xEA JUMPI JUMPDEST POP POP POP POP POP SWAP1 POP SWAP1 JUMP JUMPDEST PUSH1 0x0 DUP2 CALLER PUSH1 0x40 MLOAD PUSH2 0x14E SWAP1 PUSH2 0x21E JUMP JUMPDEST PUSH2 0x159 SWAP3 SWAP2 SWAP1 PUSH2 0x3DE JUMP JUMPDEST PUSH1 0x40 MLOAD DUP1 SWAP2 SUB SWAP1 PUSH1 0x0 CREATE DUP1 ISZERO DUP1 ISZERO PUSH2 0x175 JUMPI RETURNDATASIZE PUSH1 0x0 DUP1 RETURNDATACOPY RETURNDATASIZE PUSH1 0x0 REVERT JUMPDEST POP SWAP1 POP PUSH1 0x0 DUP2 SWAP1 DUP1 PUSH1 0x1 DUP2 SLOAD ADD DUP1 DUP3 SSTORE DUP1 SWAP2 POP POP PUSH1 0x1 SWAP1 SUB SWAP1 PUSH1 0x0 MSTORE PUSH1 0x20 PUSH1 0x0 KECCAK256 ADD PUSH1 0x0 SWAP1 SWAP2 SWAP1 SWAP2 SWAP1 SWAP2 PUSH2 0x100 EXP DUP2 SLOAD DUP2 PUSH20 0xFFFFFFFFFFFFFFFFFFFFFFFFFFFFFFFFFFFFFFFF MUL NOT AND SWAP1 DUP4 PUSH20 0xFFFFFFFFFFFFFFFFFFFFFFFFFFFFFFFFFFFFFFFF AND MUL OR SWAP1 SSTORE POP POP POP JUMP JUMPDEST PUSH1 0x0 DUP2 DUP2 SLOAD DUP2 LT PUSH2 0x1EF JUMPI PUSH1 0x0 DUP1 REVERT JUMPDEST SWAP1 PUSH1 0x0 MSTORE PUSH1 0x20 PUSH1 0x0 KECCAK256 ADD PUSH1 0x0 SWAP2 POP SLOAD SWAP1 PUSH2 0x100 EXP SWAP1 DIV PUSH20 0xFFFFFFFFFFFFFFFFFFFFFFFFFFFFFFFFFFFFFFFF AND DUP2 JUMP JUMPDEST PUSH2 0x1334 DUP1 PUSH2 0x408 DUP4 CODECOPY ADD SWAP1 JUMP JUMPDEST PUSH1 0x0 DUP2 MLOAD SWAP1 POP SWAP2 SWAP1 POP JUMP JUMPDEST PUSH1 0x0 DUP3 DUP3 MSTORE PUSH1 0x20 DUP3 ADD SWAP1 POP SWAP3 SWAP2 POP POP JUMP JUMPDEST PUSH1 0x0 DUP2 SWAP1 POP PUSH1 0x20 DUP3 ADD SWAP1 POP SWAP2 SWAP1 POP JUMP JUMPDEST PUSH1 0x0 PUSH20 0xFFFFFFFFFFFFFFFFFFFFFFFFFFFFFFFFFFFFFFFF DUP3 AND SWAP1 POP SWAP2 SWAP1 POP JUMP JUMPDEST PUSH1 0x0 PUSH2 0x282 DUP3 PUSH2 0x257 JUMP JUMPDEST SWAP1 POP SWAP2 SWAP1 POP JUMP JUMPDEST PUSH2 0x292 DUP2 PUSH2 0x277 JUMP JUMPDEST DUP3 MSTORE POP POP JUMP JUMPDEST PUSH1 0x0 PUSH2 0x2A4 DUP4 DUP4 PUSH2 0x289 JUMP JUMPDEST PUSH1 0x20 DUP4 ADD SWAP1 POP SWAP3 SWAP2 POP POP JUMP JUMPDEST PUSH1 0x0 PUSH1 0x20 DUP3 ADD SWAP1 POP SWAP2 SWAP1 POP JUMP JUMPDEST PUSH1 0x0 PUSH2 0x2C8 DUP3 PUSH2 0x22B JUMP JUMPDEST PUSH2 0x2D2 DUP2 DUP6 PUSH2 0x236 JUMP JUMPDEST SWAP4 POP PUSH2 0x2DD DUP4 PUSH2 0x247 JUMP JUMPDEST DUP1 PUSH1 0x0 JUMPDEST DUP4 DUP2 LT ISZERO PUSH2 0x30E JUMPI DUP2 MLOAD PUSH2 0x2F5 DUP9 DUP3 PUSH2 0x298 JUMP JUMPDEST SWAP8 POP PUSH2 0x300 DUP4 PUSH2 0x2B0 JUMP JUMPDEST SWAP3 POP POP PUSH1 0x1 DUP2 ADD SWAP1 POP PUSH2 0x2E1 JUMP JUMPDEST POP DUP6 SWAP4 POP POP POP POP SWAP3 SWAP2 POP POP JUMP JUMPDEST PUSH1 0x0 PUSH1 0x20 DUP3 ADD SWAP1 POP DUP2 DUP2 SUB PUSH1 0x0 DUP4 ADD MSTORE PUSH2 0x335 DUP2 DUP5 PUSH2 0x2BD JUMP JUMPDEST SWAP1 POP SWAP3 SWAP2 POP POP JUMP JUMPDEST PUSH1 0x0 DUP1 REVERT JUMPDEST PUSH1 0x0 DUP2 SWAP1 POP SWAP2 SWAP1 POP JUMP JUMPDEST PUSH2 0x355 DUP2 PUSH2 0x342 JUMP JUMPDEST DUP2 EQ PUSH2 0x360 JUMPI PUSH1 0x0 DUP1 REVERT JUMPDEST POP JUMP JUMPDEST PUSH1 0x0 DUP2 CALLDATALOAD SWAP1 POP PUSH2 0x372 DUP2 PUSH2 0x34C JUMP JUMPDEST SWAP3 SWAP2 POP POP JUMP JUMPDEST PUSH1 0x0 PUSH1 0x20 DUP3 DUP5 SUB SLT ISZERO PUSH2 0x38E JUMPI PUSH2 0x38D PUSH2 0x33D JUMP JUMPDEST JUMPDEST PUSH1 0x0 PUSH2 0x39C DUP5 DUP3 DUP6 ADD PUSH2 0x363 JUMP JUMPDEST SWAP2 POP POP SWAP3 SWAP2 POP POP JUMP JUMPDEST PUSH2 0x3AE DUP2 PUSH2 0x277 JUMP JUMPDEST DUP3 MSTORE POP POP JUMP JUMPDEST PUSH1 0x0 PUSH1 0x20 DUP3 ADD SWAP1 POP PUSH2 0x3C9 PUSH1 0x0 DUP4 ADD DUP5 PUSH2 0x3A5 JUMP JUMPDEST SWAP3 SWAP2 POP POP JUMP JUMPDEST PUSH2 0x3D8 DUP2 PUSH2 0x342 JUMP JUMPDEST DUP3 MSTORE POP POP JUMP JUMPDEST PUSH1 0x0 PUSH1 0x40 DUP3 ADD SWAP1 POP PUSH2 0x3F3 PUSH1 0x0 DUP4 ADD DUP6 PUSH2 0x3CF JUMP JUMPDEST PUSH2 0x400 PUSH1 0x20 DUP4 ADD DUP5 PUSH2 0x3A5 JUMP JUMPDEST SWAP4 SWAP3 POP POP POP JUMP INVALID PUSH1 0x80 PUSH1 0x40 MSTORE CALLVALUE DUP1 ISZERO PUSH3 0x11 JUMPI PUSH1 0x0 DUP1 REVERT JUMPDEST POP PUSH1 0x40 MLOAD PUSH3 0x1334 CODESIZE SUB DUP1 PUSH3 0x1334 DUP4 CODECOPY DUP2 DUP2 ADD PUSH1 0x40 MSTORE DUP2 ADD SWAP1 PUSH3 0x37 SWAP2 SWAP1 PUSH3 0x12C JUMP JUMPDEST DUP1 PUSH1 0x1 PUSH1 0x0 PUSH2 0x100 EXP DUP2 SLOAD DUP2 PUSH20 0xFFFFFFFFFFFFFFFFFFFFFFFFFFFFFFFFFFFFFFFF MUL NOT AND SWAP1 DUP4 PUSH20 0xFFFFFFFFFFFFFFFFFFFFFFFFFFFFFFFFFFFFFFFF AND MUL OR SWAP1 SSTORE POP DUP2 PUSH1 0x2 DUP2 SWAP1 SSTORE POP POP POP PUSH3 0x173 JUMP JUMPDEST PUSH1 0x0 DUP1 REVERT JUMPDEST PUSH1 0x0 DUP2 SWAP1 POP SWAP2 SWAP1 POP JUMP JUMPDEST PUSH3 0xA1 DUP2 PUSH3 0x8C JUMP JUMPDEST DUP2 EQ PUSH3 0xAD JUMPI PUSH1 0x0 DUP1 REVERT JUMPDEST POP JUMP JUMPDEST PUSH1 0x0 DUP2 MLOAD SWAP1 POP PUSH3 0xC1 DUP2 PUSH3 0x96 JUMP JUMPDEST SWAP3 SWAP2 POP POP JUMP JUMPDEST PUSH1 0x0 PUSH20 0xFFFFFFFFFFFFFFFFFFFFFFFFFFFFFFFFFFFFFFFF DUP3 AND SWAP1 POP SWAP2 SWAP1 POP JUMP JUMPDEST PUSH1 0x0 PUSH3 0xF4 DUP3 PUSH3 0xC7 JUMP JUMPDEST SWAP1 POP SWAP2 SWAP1 POP JUMP JUMPDEST PUSH3 0x106 DUP2 PUSH3 0xE7 JUMP JUMPDEST DUP2 EQ PUSH3 0x112 JUMPI PUSH1 0x0 DUP1 REVERT JUMPDEST POP JUMP JUMPDEST PUSH1 0x0 DUP2 MLOAD SWAP1 POP PUSH3 0x126 DUP2 PUSH3 0xFB JUMP JUMPDEST SWAP3 SWAP2 POP POP JUMP JUMPDEST PUSH1 0x0 DUP1 PUSH1 0x40 DUP4 DUP6 SUB SLT ISZERO PUSH3 0x146 JUMPI PUSH3 0x145 PUSH3 0x87 JUMP JUMPDEST JUMPDEST PUSH1 0x0 PUSH3 0x156 DUP6 DUP3 DUP7 ADD PUSH3 0xB0 JUMP JUMPDEST SWAP3 POP POP PUSH1 0x20 PUSH3 0x169 DUP6 DUP3 DUP7 ADD PUSH3 0x115 JUMP JUMPDEST SWAP2 POP POP SWAP3 POP SWAP3 SWAP1 POP JUMP JUMPDEST PUSH2 0x11B1 DUP1 PUSH3 0x183 PUSH1 0x0 CODECOPY PUSH1 0x0 RETURN INVALID PUSH1 0x80 PUSH1 0x40 MSTORE PUSH1 0x4 CALLDATASIZE LT PUSH2 0x86 JUMPI PUSH1 0x0 CALLDATALOAD PUSH1 0xE0 SHR DUP1 PUSH4 0x82FDE093 GT PUSH2 0x59 JUMPI DUP1 PUSH4 0x82FDE093 EQ PUSH2 0x15D JUMPI DUP1 PUSH4 0x8A9CFD55 EQ PUSH2 0x188 JUMPI DUP1 PUSH4 0x937E09B1 EQ PUSH2 0x1B1 JUMPI DUP1 PUSH4 0xD7BB99BA EQ PUSH2 0x1DC JUMPI DUP1 PUSH4 0xD7D1BBDB EQ PUSH2 0x1E6 JUMPI PUSH2 0x86 JUMP JUMPDEST DUP1 PUSH4 0x3441006 EQ PUSH2 0x8B JUMPI DUP1 PUSH4 0xA144391 EQ PUSH2 0xB4 JUMPI DUP1 PUSH4 0x481C6A75 EQ PUSH2 0xF1 JUMPI DUP1 PUSH4 0x81D12C58 EQ PUSH2 0x11C JUMPI JUMPDEST PUSH1 0x0 DUP1 REVERT JUMPDEST CALLVALUE DUP1 ISZERO PUSH2 0x97 JUMPI PUSH1 0x0 DUP1 REVERT JUMPDEST POP PUSH2 0xB2 PUSH1 0x4 DUP1 CALLDATASIZE SUB DUP2 ADD SWAP1 PUSH2 0xAD SWAP2 SWAP1 PUSH2 0x8C9 JUMP JUMPDEST PUSH2 0x20F JUMP JUMPDEST STOP JUMPDEST CALLVALUE DUP1 ISZERO PUSH2 0xC0 JUMPI PUSH1 0x0 DUP1 REVERT JUMPDEST POP PUSH2 0xDB PUSH1 0x4 DUP1 CALLDATASIZE SUB DUP2 ADD SWAP1 PUSH2 0xD6 SWAP2 SWAP1 PUSH2 0x954 JUMP JUMPDEST PUSH2 0x38E JUMP JUMPDEST PUSH1 0x40 MLOAD PUSH2 0xE8 SWAP2 SWAP1 PUSH2 0x99C JUMP JUMPDEST PUSH1 0x40 MLOAD DUP1 SWAP2 SUB SWAP1 RETURN JUMPDEST CALLVALUE DUP1 ISZERO PUSH2 0xFD JUMPI PUSH1 0x0 DUP1 REVERT JUMPDEST POP PUSH2 0x106 PUSH2 0x3AE JUMP JUMPDEST PUSH1 0x40 MLOAD PUSH2 0x113 SWAP2 SWAP1 PUSH2 0x9C6 JUMP JUMPDEST PUSH1 0x40 MLOAD DUP1 SWAP2 SUB SWAP1 RETURN JUMPDEST CALLVALUE DUP1 ISZERO PUSH2 0x128 JUMPI PUSH1 0x0 DUP1 REVERT JUMPDEST POP PUSH2 0x143 PUSH1 0x4 DUP1 CALLDATASIZE SUB DUP2 ADD SWAP1 PUSH2 0x13E SWAP2 SWAP1 PUSH2 0x8C9 JUMP JUMPDEST PUSH2 0x3D4 JUMP JUMPDEST PUSH1 0x40 MLOAD PUSH2 0x154 SWAP6 SWAP5 SWAP4 SWAP3 SWAP2 SWAP1 PUSH2 0xAA1 JUMP JUMPDEST PUSH1 0x40 MLOAD DUP1 SWAP2 SUB SWAP1 RETURN JUMPDEST CALLVALUE DUP1 ISZERO PUSH2 0x169 JUMPI PUSH1 0x0 DUP1 REVERT JUMPDEST POP PUSH2 0x172 PUSH2 0x4CF JUMP JUMPDEST PUSH1 0x40 MLOAD PUSH2 0x17F SWAP2 SWAP1 PUSH2 0xAFB JUMP JUMPDEST PUSH1 0x40 MLOAD DUP1 SWAP2 SUB SWAP1 RETURN JUMPDEST CALLVALUE DUP1 ISZERO PUSH2 0x194 JUMPI PUSH1 0x0 DUP1 REVERT JUMPDEST POP PUSH2 0x1AF PUSH1 0x4 DUP1 CALLDATASIZE SUB DUP2 ADD SWAP1 PUSH2 0x1AA SWAP2 SWAP1 PUSH2 0xBA7 JUMP JUMPDEST PUSH2 0x4D5 JUMP JUMPDEST STOP JUMPDEST CALLVALUE DUP1 ISZERO PUSH2 0x1BD JUMPI PUSH1 0x0 DUP1 REVERT JUMPDEST POP PUSH2 0x1C6 PUSH2 0x5F9 JUMP JUMPDEST PUSH1 0x40 MLOAD PUSH2 0x1D3 SWAP2 SWAP1 PUSH2 0xAFB JUMP JUMPDEST PUSH1 0x40 MLOAD DUP1 SWAP2 SUB SWAP1 RETURN JUMPDEST PUSH2 0x1E4 PUSH2 0x5FF JUMP JUMPDEST STOP JUMPDEST CALLVALUE DUP1 ISZERO PUSH2 0x1F2 JUMPI PUSH1 0x0 DUP1 REVERT JUMPDEST POP PUSH2 0x20D PUSH1 0x4 DUP1 CALLDATASIZE SUB DUP2 ADD SWAP1 PUSH2 0x208 SWAP2 SWAP1 PUSH2 0x8C9 JUMP JUMPDEST PUSH2 0x707 JUMP JUMPDEST STOP JUMPDEST PUSH1 0x1 PUSH1 0x0 SWAP1 SLOAD SWAP1 PUSH2 0x100 EXP SWAP1 DIV PUSH20 0xFFFFFFFFFFFFFFFFFFFFFFFFFFFFFFFFFFFFFFFF AND PUSH20 0xFFFFFFFFFFFFFFFFFFFFFFFFFFFFFFFFFFFFFFFF AND CALLER PUSH20 0xFFFFFFFFFFFFFFFFFFFFFFFFFFFFFFFFFFFFFFFF AND EQ PUSH2 0x29F JUMPI PUSH1 0x40 MLOAD PUSH32 0x8C379A000000000000000000000000000000000000000000000000000000000 DUP2 MSTORE PUSH1 0x4 ADD PUSH2 0x296 SWAP1 PUSH2 0xC67 JUMP JUMPDEST PUSH1 0x40 MLOAD DUP1 SWAP2 SUB SWAP1 REVERT JUMPDEST PUSH1 0x0 DUP1 DUP3 DUP2 SLOAD DUP2 LT PUSH2 0x2B4 JUMPI PUSH2 0x2B3 PUSH2 0xC87 JUMP JUMPDEST JUMPDEST SWAP1 PUSH1 0x0 MSTORE PUSH1 0x20 PUSH1 0x0 KECCAK256 SWAP1 PUSH1 0x5 MUL ADD SWAP1 POP PUSH1 0x2 PUSH1 0x4 SLOAD PUSH2 0x2D3 SWAP2 SWAP1 PUSH2 0xD14 JUMP JUMPDEST DUP2 PUSH1 0x3 ADD SLOAD GT PUSH2 0x2E2 JUMPI PUSH1 0x0 DUP1 REVERT JUMPDEST DUP1 PUSH1 0x2 ADD PUSH1 0x14 SWAP1 SLOAD SWAP1 PUSH2 0x100 EXP SWAP1 DIV PUSH1 0xFF AND ISZERO PUSH2 0x2FE JUMPI PUSH1 0x0 DUP1 REVERT JUMPDEST DUP1 PUSH1 0x2 ADD PUSH1 0x0 SWAP1 SLOAD SWAP1 PUSH2 0x100 EXP SWAP1 DIV PUSH20 0xFFFFFFFFFFFFFFFFFFFFFFFFFFFFFFFFFFFFFFFF AND PUSH20 0xFFFFFFFFFFFFFFFFFFFFFFFFFFFFFFFFFFFFFFFF AND PUSH2 0x8FC DUP3 PUSH1 0x1 ADD SLOAD SWAP1 DUP2 ISZERO MUL SWAP1 PUSH1 0x40 MLOAD PUSH1 0x0 PUSH1 0x40 MLOAD DUP1 DUP4 SUB DUP2 DUP6 DUP9 DUP9 CALL SWAP4 POP POP POP POP ISZERO DUP1 ISZERO PUSH2 0x36C JUMPI RETURNDATASIZE PUSH1 0x0 DUP1 RETURNDATACOPY RETURNDATASIZE PUSH1 0x0 REVERT JUMPDEST POP PUSH1 0x1 DUP2 PUSH1 0x2 ADD PUSH1 0x14 PUSH2 0x100 EXP DUP2 SLOAD DUP2 PUSH1 0xFF MUL NOT AND SWAP1 DUP4 ISZERO ISZERO MUL OR SWAP1 SSTORE POP POP POP JUMP JUMPDEST PUSH1 0x3 PUSH1 0x20 MSTORE DUP1 PUSH1 0x0 MSTORE PUSH1 0x40 PUSH1 0x0 KECCAK256 PUSH1 0x0 SWAP2 POP SLOAD SWAP1 PUSH2 0x100 EXP SWAP1 DIV PUSH1 0xFF AND DUP2 JUMP JUMPDEST PUSH1 0x1 PUSH1 0x0 SWAP1 SLOAD SWAP1 PUSH2 0x100 EXP SWAP1 DIV PUSH20 0xFFFFFFFFFFFFFFFFFFFFFFFFFFFFFFFFFFFFFFFF AND DUP2 JUMP JUMPDEST PUSH1 0x0 DUP2 DUP2 SLOAD DUP2 LT PUSH2 0x3E4 JUMPI PUSH1 0x0 DUP1 REVERT JUMPDEST SWAP1 PUSH1 0x0 MSTORE PUSH1 0x20 PUSH1 0x0 KECCAK256 SWAP1 PUSH1 0x5 MUL ADD PUSH1 0x0 SWAP2 POP SWAP1 POP DUP1 PUSH1 0x0 ADD DUP1 SLOAD PUSH2 0x407 SWAP1 PUSH2 0xD74 JUMP JUMPDEST DUP1 PUSH1 0x1F ADD PUSH1 0x20 DUP1 SWAP2 DIV MUL PUSH1 0x20 ADD PUSH1 0x40 MLOAD SWAP1 DUP2 ADD PUSH1 0x40 MSTORE DUP1 SWAP3 SWAP2 SWAP1 DUP2 DUP2 MSTORE PUSH1 0x20 ADD DUP3 DUP1 SLOAD PUSH2 0x433 SWAP1 PUSH2 0xD74 JUMP JUMPDEST DUP1 ISZERO PUSH2 0x480 JUMPI DUP1 PUSH1 0x1F LT PUSH2 0x455 JUMPI PUSH2 0x100 DUP1 DUP4 SLOAD DIV MUL DUP4 MSTORE SWAP2 PUSH1 0x20 ADD SWAP2 PUSH2 0x480 JUMP JUMPDEST DUP3 ADD SWAP2 SWAP1 PUSH1 0x0 MSTORE PUSH1 0x20 PUSH1 0x0 KECCAK256 SWAP1 JUMPDEST DUP2 SLOAD DUP2 MSTORE SWAP1 PUSH1 0x1 ADD SWAP1 PUSH1 0x20 ADD DUP1 DUP4 GT PUSH2 0x463 JUMPI DUP3 SWAP1 SUB PUSH1 0x1F AND DUP3 ADD SWAP2 JUMPDEST POP POP POP POP POP SWAP1 DUP1 PUSH1 0x1 ADD SLOAD SWAP1 DUP1 PUSH1 0x2 ADD PUSH1 0x0 SWAP1 SLOAD SWAP1 PUSH2 0x100 EXP SWAP1 DIV PUSH20 0xFFFFFFFFFFFFFFFFFFFFFFFFFFFFFFFFFFFFFFFF AND SWAP1 DUP1 PUSH1 0x2 ADD PUSH1 0x14 SWAP1 SLOAD SWAP1 PUSH2 0x100 EXP SWAP1 DIV PUSH1 0xFF AND SWAP1 DUP1 PUSH1 0x3 ADD SLOAD SWAP1 POP DUP6 JUMP JUMPDEST PUSH1 0x4 SLOAD DUP2 JUMP JUMPDEST PUSH1 0x1 PUSH1 0x0 SWAP1 SLOAD SWAP1 PUSH2 0x100 EXP SWAP1 DIV PUSH20 0xFFFFFFFFFFFFFFFFFFFFFFFFFFFFFFFFFFFFFFFF AND PUSH20 0xFFFFFFFFFFFFFFFFFFFFFFFFFFFFFFFFFFFFFFFF AND CALLER PUSH20 0xFFFFFFFFFFFFFFFFFFFFFFFFFFFFFFFFFFFFFFFF AND EQ PUSH2 0x565 JUMPI PUSH1 0x40 MLOAD PUSH32 0x8C379A000000000000000000000000000000000000000000000000000000000 DUP2 MSTORE PUSH1 0x4 ADD PUSH2 0x55C SWAP1 PUSH2 0xC67 JUMP JUMPDEST PUSH1 0x40 MLOAD DUP1 SWAP2 SUB SWAP1 REVERT JUMPDEST PUSH1 0x0 DUP1 PUSH1 0x1 DUP2 PUSH1 0x1 DUP2 SLOAD ADD DUP1 DUP3 SSTORE DUP1 SWAP2 POP POP SUB SWAP1 PUSH1 0x0 MSTORE PUSH1 0x20 PUSH1 0x0 KECCAK256 SWAP1 PUSH1 0x5 MUL ADD SWAP1 POP PUSH1 0x0 DUP2 PUSH1 0x3 ADD DUP2 SWAP1 SSTORE POP DUP2 DUP2 PUSH1 0x2 ADD PUSH1 0x0 PUSH2 0x100 EXP DUP2 SLOAD DUP2 PUSH20 0xFFFFFFFFFFFFFFFFFFFFFFFFFFFFFFFFFFFFFFFF MUL NOT AND SWAP1 DUP4 PUSH20 0xFFFFFFFFFFFFFFFFFFFFFFFFFFFFFFFFFFFFFFFF AND MUL OR SWAP1 SSTORE POP DUP3 DUP2 PUSH1 0x1 ADD DUP2 SWAP1 SSTORE POP DUP5 DUP5 DUP3 PUSH1 0x0 ADD SWAP2 DUP3 PUSH2 0x5F1 SWAP3 SWAP2 SWAP1 PUSH2 0xF8B JUMP JUMPDEST POP POP POP POP POP POP JUMP JUMPDEST PUSH1 0x2 SLOAD DUP2 JUMP JUMPDEST PUSH1 0x2 SLOAD CALLVALUE GT PUSH2 0x643 JUMPI PUSH1 0x40 MLOAD PUSH32 0x8C379A000000000000000000000000000000000000000000000000000000000 DUP2 MSTORE PUSH1 0x4 ADD PUSH2 0x63A SWAP1 PUSH2 0x10A7 JUMP JUMPDEST PUSH1 0x40 MLOAD DUP1 SWAP2 SUB SWAP1 REVERT JUMPDEST PUSH1 0x3 PUSH1 0x0 CALLER PUSH20 0xFFFFFFFFFFFFFFFFFFFFFFFFFFFFFFFFFFFFFFFF AND PUSH20 0xFFFFFFFFFFFFFFFFFFFFFFFFFFFFFFFFFFFFFFFF AND DUP2 MSTORE PUSH1 0x20 ADD SWAP1 DUP2 MSTORE PUSH1 0x20 ADD PUSH1 0x0 KECCAK256 PUSH1 0x0 SWAP1 SLOAD SWAP1 PUSH2 0x100 EXP SWAP1 DIV PUSH1 0xFF AND PUSH2 0x705 JUMPI PUSH1 0x1 PUSH1 0x3 PUSH1 0x0 CALLER PUSH20 0xFFFFFFFFFFFFFFFFFFFFFFFFFFFFFFFFFFFFFFFF AND PUSH20 0xFFFFFFFFFFFFFFFFFFFFFFFFFFFFFFFFFFFFFFFF AND DUP2 MSTORE PUSH1 0x20 ADD SWAP1 DUP2 MSTORE PUSH1 0x20 ADD PUSH1 0x0 KECCAK256 PUSH1 0x0 PUSH2 0x100 EXP DUP2 SLOAD DUP2 PUSH1 0xFF MUL NOT AND SWAP1 DUP4 ISZERO ISZERO MUL OR SWAP1 SSTORE POP PUSH1 0x4 PUSH1 0x0 DUP2 SLOAD DUP1 SWAP3 SWAP2 SWAP1 PUSH2 0x6FF SWAP1 PUSH2 0x10C7 JUMP JUMPDEST SWAP2 SWAP1 POP SSTORE POP JUMPDEST JUMP JUMPDEST PUSH1 0x0 DUP1 DUP3 DUP2 SLOAD DUP2 LT PUSH2 0x71C JUMPI PUSH2 0x71B PUSH2 0xC87 JUMP JUMPDEST JUMPDEST SWAP1 PUSH1 0x0 MSTORE PUSH1 0x20 PUSH1 0x0 KECCAK256 SWAP1 PUSH1 0x5 MUL ADD SWAP1 POP PUSH1 0x3 PUSH1 0x0 CALLER PUSH20 0xFFFFFFFFFFFFFFFFFFFFFFFFFFFFFFFFFFFFFFFF AND PUSH20 0xFFFFFFFFFFFFFFFFFFFFFFFFFFFFFFFFFFFFFFFF AND DUP2 MSTORE PUSH1 0x20 ADD SWAP1 DUP2 MSTORE PUSH1 0x20 ADD PUSH1 0x0 KECCAK256 PUSH1 0x0 SWAP1 SLOAD SWAP1 PUSH2 0x100 EXP SWAP1 DIV PUSH1 0xFF AND PUSH2 0x7B8 JUMPI PUSH1 0x40 MLOAD PUSH32 0x8C379A000000000000000000000000000000000000000000000000000000000 DUP2 MSTORE PUSH1 0x4 ADD PUSH2 0x7AF SWAP1 PUSH2 0x115B JUMP JUMPDEST PUSH1 0x40 MLOAD DUP1 SWAP2 SUB SWAP1 REVERT JUMPDEST DUP1 PUSH1 0x4 ADD PUSH1 0x0 CALLER PUSH20 0xFFFFFFFFFFFFFFFFFFFFFFFFFFFFFFFFFFFFFFFF AND PUSH20 0xFFFFFFFFFFFFFFFFFFFFFFFFFFFFFFFFFFFFFFFF AND DUP2 MSTORE PUSH1 0x20 ADD SWAP1 DUP2 MSTORE PUSH1 0x20 ADD PUSH1 0x0 KECCAK256 PUSH1 0x0 SWAP1 SLOAD SWAP1 PUSH2 0x100 EXP SWAP1 DIV PUSH1 0xFF AND ISZERO PUSH2 0x811 JUMPI PUSH1 0x0 DUP1 REVERT JUMPDEST PUSH1 0x1 DUP2 PUSH1 0x4 ADD PUSH1 0x0 CALLER PUSH20 0xFFFFFFFFFFFFFFFFFFFFFFFFFFFFFFFFFFFFFFFF AND PUSH20 0xFFFFFFFFFFFFFFFFFFFFFFFFFFFFFFFFFFFFFFFF AND DUP2 MSTORE PUSH1 0x20 ADD SWAP1 DUP2 MSTORE PUSH1 0x20 ADD PUSH1 0x0 KECCAK256 PUSH1 0x0 PUSH2 0x100 EXP DUP2 SLOAD DUP2 PUSH1 0xFF MUL NOT AND SWAP1 DUP4 ISZERO ISZERO MUL OR SWAP1 SSTORE POP DUP1 PUSH1 0x3 ADD PUSH1 0x0 DUP2 SLOAD DUP1 SWAP3 SWAP2 SWAP1 PUSH2 0x880 SWAP1 PUSH2 0x10C7 JUMP JUMPDEST SWAP2 SWAP1 POP SSTORE POP POP POP JUMP JUMPDEST PUSH1 0x0 DUP1 REVERT JUMPDEST PUSH1 0x0 DUP1 REVERT JUMPDEST PUSH1 0x0 DUP2 SWAP1 POP SWAP2 SWAP1 POP JUMP JUMPDEST PUSH2 0x8A6 DUP2 PUSH2 0x893 JUMP JUMPDEST DUP2 EQ PUSH2 0x8B1 JUMPI PUSH1 0x0 DUP1 REVERT JUMPDEST POP JUMP JUMPDEST PUSH1 0x0 DUP2 CALLDATALOAD SWAP1 POP PUSH2 0x8C3 DUP2 PUSH2 0x89D JUMP JUMPDEST SWAP3 SWAP2 POP POP JUMP JUMPDEST PUSH1 0x0 PUSH1 0x20 DUP3 DUP5 SUB SLT ISZERO PUSH2 0x8DF JUMPI PUSH2 0x8DE PUSH2 0x889 JUMP JUMPDEST JUMPDEST PUSH1 0x0 PUSH2 0x8ED DUP5 DUP3 DUP6 ADD PUSH2 0x8B4 JUMP JUMPDEST SWAP2 POP POP SWAP3 SWAP2 POP POP JUMP JUMPDEST PUSH1 0x0 PUSH20 0xFFFFFFFFFFFFFFFFFFFFFFFFFFFFFFFFFFFFFFFF DUP3 AND SWAP1 POP SWAP2 SWAP1 POP JUMP JUMPDEST PUSH1 0x0 PUSH2 0x921 DUP3 PUSH2 0x8F6 JUMP JUMPDEST SWAP1 POP SWAP2 SWAP1 POP JUMP JUMPDEST PUSH2 0x931 DUP2 PUSH2 0x916 JUMP JUMPDEST DUP2 EQ PUSH2 0x93C JUMPI PUSH1 0x0 DUP1 REVERT JUMPDEST POP JUMP JUMPDEST PUSH1 0x0 DUP2 CALLDATALOAD SWAP1 POP PUSH2 0x94E DUP2 PUSH2 0x928 JUMP JUMPDEST SWAP3 SWAP2 POP POP JUMP JUMPDEST PUSH1 0x0 PUSH1 0x20 DUP3 DUP5 SUB SLT ISZERO PUSH2 0x96A JUMPI PUSH2 0x969 PUSH2 0x889 JUMP JUMPDEST JUMPDEST PUSH1 0x0 PUSH2 0x978 DUP5 DUP3 DUP6 ADD PUSH2 0x93F JUMP JUMPDEST SWAP2 POP POP SWAP3 SWAP2 POP POP JUMP JUMPDEST PUSH1 0x0 DUP2 ISZERO ISZERO SWAP1 POP SWAP2 SWAP1 POP JUMP JUMPDEST PUSH2 0x996 DUP2 PUSH2 0x981 JUMP JUMPDEST DUP3 MSTORE POP POP JUMP JUMPDEST PUSH1 0x0 PUSH1 0x20 DUP3 ADD SWAP1 POP PUSH2 0x9B1 PUSH1 0x0 DUP4 ADD DUP5 PUSH2 0x98D JUMP JUMPDEST SWAP3 SWAP2 POP POP JUMP JUMPDEST PUSH2 0x9C0 DUP2 PUSH2 0x916 JUMP JUMPDEST DUP3 MSTORE POP POP JUMP JUMPDEST PUSH1 0x0 PUSH1 0x20 DUP3 ADD SWAP1 POP PUSH2 0x9DB PUSH1 0x0 DUP4 ADD DUP5 PUSH2 0x9B7 JUMP JUMPDEST SWAP3 SWAP2 POP POP JUMP JUMPDEST PUSH1 0x0 DUP2 MLOAD SWAP1 POP SWAP2 SWAP1 POP JUMP JUMPDEST PUSH1 0x0 DUP3 DUP3 MSTORE PUSH1 0x20 DUP3 ADD SWAP1 POP SWAP3 SWAP2 POP POP JUMP JUMPDEST PUSH1 0x0 JUMPDEST DUP4 DUP2 LT ISZERO PUSH2 0xA1B JUMPI DUP1 DUP3 ADD MLOAD DUP2 DUP5 ADD MSTORE PUSH1 0x20 DUP2 ADD SWAP1 POP PUSH2 0xA00 JUMP JUMPDEST PUSH1 0x0 DUP5 DUP5 ADD MSTORE POP POP POP POP JUMP JUMPDEST PUSH1 0x0 PUSH1 0x1F NOT PUSH1 0x1F DUP4 ADD AND SWAP1 POP SWAP2 SWAP1 POP JUMP JUMPDEST PUSH1 0x0 PUSH2 0xA43 DUP3 PUSH2 0x9E1 JUMP JUMPDEST PUSH2 0xA4D DUP2 DUP6 PUSH2 0x9EC JUMP JUMPDEST SWAP4 POP PUSH2 0xA5D DUP2 DUP6 PUSH1 0x20 DUP7 ADD PUSH2 0x9FD JUMP JUMPDEST PUSH2 0xA66 DUP2 PUSH2 0xA27 JUMP JUMPDEST DUP5 ADD SWAP2 POP POP SWAP3 SWAP2 POP POP JUMP JUMPDEST PUSH2 0xA7A DUP2 PUSH2 0x893 JUMP JUMPDEST DUP3 MSTORE POP POP JUMP JUMPDEST PUSH1 0x0 PUSH2 0xA8B DUP3 PUSH2 0x8F6 JUMP JUMPDEST SWAP1 POP SWAP2 SWAP1 POP JUMP JUMPDEST PUSH2 0xA9B DUP2 PUSH2 0xA80 JUMP JUMPDEST DUP3 MSTORE POP POP JUMP JUMPDEST PUSH1 0x0 PUSH1 0xA0 DUP3 ADD SWAP1 POP DUP2 DUP2 SUB PUSH1 0x0 DUP4 ADD MSTORE PUSH2 0xABB DUP2 DUP9 PUSH2 0xA38 JUMP JUMPDEST SWAP1 POP PUSH2 0xACA PUSH1 0x20 DUP4 ADD DUP8 PUSH2 0xA71 JUMP JUMPDEST PUSH2 0xAD7 PUSH1 0x40 DUP4 ADD DUP7 PUSH2 0xA92 JUMP JUMPDEST PUSH2 0xAE4 PUSH1 0x60 DUP4 ADD DUP6 PUSH2 0x98D JUMP JUMPDEST PUSH2 0xAF1 PUSH1 0x80 DUP4 ADD DUP5 PUSH2 0xA71 JUMP JUMPDEST SWAP7 SWAP6 POP POP POP POP POP POP JUMP JUMPDEST PUSH1 0x0 PUSH1 0x20 DUP3 ADD SWAP1 POP PUSH2 0xB10 PUSH1 0x0 DUP4 ADD DUP5 PUSH2 0xA71 JUMP JUMPDEST SWAP3 SWAP2 POP POP JUMP JUMPDEST PUSH1 0x0 DUP1 REVERT JUMPDEST PUSH1 0x0 DUP1 REVERT JUMPDEST PUSH1 0x0 DUP1 REVERT JUMPDEST PUSH1 0x0 DUP1 DUP4 PUSH1 0x1F DUP5 ADD SLT PUSH2 0xB3B JUMPI PUSH2 0xB3A PUSH2 0xB16 JUMP JUMPDEST JUMPDEST DUP3 CALLDATALOAD SWAP1 POP PUSH8 0xFFFFFFFFFFFFFFFF DUP2 GT ISZERO PUSH2 0xB58 JUMPI PUSH2 0xB57 PUSH2 0xB1B JUMP JUMPDEST JUMPDEST PUSH1 0x20 DUP4 ADD SWAP2 POP DUP4 PUSH1 0x1 DUP3 MUL DUP4 ADD GT ISZERO PUSH2 0xB74 JUMPI PUSH2 0xB73 PUSH2 0xB20 JUMP JUMPDEST JUMPDEST SWAP3 POP SWAP3 SWAP1 POP JUMP JUMPDEST PUSH2 0xB84 DUP2 PUSH2 0xA80 JUMP JUMPDEST DUP2 EQ PUSH2 0xB8F JUMPI PUSH1 0x0 DUP1 REVERT JUMPDEST POP JUMP JUMPDEST PUSH1 0x0 DUP2 CALLDATALOAD SWAP1 POP PUSH2 0xBA1 DUP2 PUSH2 0xB7B JUMP JUMPDEST SWAP3 SWAP2 POP POP JUMP JUMPDEST PUSH1 0x0 DUP1 PUSH1 0x0 DUP1 PUSH1 0x60 DUP6 DUP8 SUB SLT ISZERO PUSH2 0xBC1 JUMPI PUSH2 0xBC0 PUSH2 0x889 JUMP JUMPDEST JUMPDEST PUSH1 0x0 DUP6 ADD CALLDATALOAD PUSH8 0xFFFFFFFFFFFFFFFF DUP2 GT ISZERO PUSH2 0xBDF JUMPI PUSH2 0xBDE PUSH2 0x88E JUMP JUMPDEST JUMPDEST PUSH2 0xBEB DUP8 DUP3 DUP9 ADD PUSH2 0xB25 JUMP JUMPDEST SWAP5 POP SWAP5 POP POP PUSH1 0x20 PUSH2 0xBFE DUP8 DUP3 DUP9 ADD PUSH2 0x8B4 JUMP JUMPDEST SWAP3 POP POP PUSH1 0x40 PUSH2 0xC0F DUP8 DUP3 DUP9 ADD PUSH2 0xB92 JUMP JUMPDEST SWAP2 POP POP SWAP3 SWAP6 SWAP2 SWAP5 POP SWAP3 POP JUMP JUMPDEST PUSH32 0x4E6F7420617574686F72697A6564206173206D616E6167657200000000000000 PUSH1 0x0 DUP3 ADD MSTORE POP JUMP JUMPDEST PUSH1 0x0 PUSH2 0xC51 PUSH1 0x19 DUP4 PUSH2 0x9EC JUMP JUMPDEST SWAP2 POP PUSH2 0xC5C DUP3 PUSH2 0xC1B JUMP JUMPDEST PUSH1 0x20 DUP3 ADD SWAP1 POP SWAP2 SWAP1 POP JUMP JUMPDEST PUSH1 0x0 PUSH1 0x20 DUP3 ADD SWAP1 POP DUP2 DUP2 SUB PUSH1 0x0 DUP4 ADD MSTORE PUSH2 0xC80 DUP2 PUSH2 0xC44 JUMP JUMPDEST SWAP1 POP SWAP2 SWAP1 POP JUMP JUMPDEST PUSH32 0x4E487B7100000000000000000000000000000000000000000000000000000000 PUSH1 0x0 MSTORE PUSH1 0x32 PUSH1 0x4 MSTORE PUSH1 0x24 PUSH1 0x0 REVERT JUMPDEST PUSH32 0x4E487B7100000000000000000000000000000000000000000000000000000000 PUSH1 0x0 MSTORE PUSH1 0x12 PUSH1 0x4 MSTORE PUSH1 0x24 PUSH1 0x0 REVERT JUMPDEST PUSH32 0x4E487B7100000000000000000000000000000000000000000000000000000000 PUSH1 0x0 MSTORE PUSH1 0x11 PUSH1 0x4 MSTORE PUSH1 0x24 PUSH1 0x0 REVERT JUMPDEST PUSH1 0x0 PUSH2 0xD1F DUP3 PUSH2 0x893 JUMP JUMPDEST SWAP2 POP PUSH2 0xD2A DUP4 PUSH2 0x893 JUMP JUMPDEST SWAP3 POP DUP3 PUSH2 0xD3A JUMPI PUSH2 0xD39 PUSH2 0xCB6 JUMP JUMPDEST JUMPDEST DUP3 DUP3 DIV SWAP1 POP SWAP3 SWAP2 POP POP JUMP JUMPDEST PUSH32 0x4E487B7100000000000000000000000000000000000000000000000000000000 PUSH1 0x0 MSTORE PUSH1 0x22 PUSH1 0x4 MSTORE PUSH1 0x24 PUSH1 0x0 REVERT JUMPDEST PUSH1 0x0 PUSH1 0x2 DUP3 DIV SWAP1 POP PUSH1 0x1 DUP3 AND DUP1 PUSH2 0xD8C JUMPI PUSH1 0x7F DUP3 AND SWAP2 POP JUMPDEST PUSH1 0x20 DUP3 LT DUP2 SUB PUSH2 0xD9F JUMPI PUSH2 0xD9E PUSH2 0xD45 JUMP JUMPDEST JUMPDEST POP SWAP2 SWAP1 POP JUMP JUMPDEST PUSH1 0x0 DUP3 SWAP1 POP SWAP3 SWAP2 POP POP JUMP JUMPDEST PUSH32 0x4E487B7100000000000000000000000000000000000000000000000000000000 PUSH1 0x0 MSTORE PUSH1 0x41 PUSH1 0x4 MSTORE PUSH1 0x24 PUSH1 0x0 REVERT JUMPDEST PUSH1 0x0 DUP2 SWAP1 POP DUP2 PUSH1 0x0 MSTORE PUSH1 0x20 PUSH1 0x0 KECCAK256 SWAP1 POP SWAP2 SWAP1 POP JUMP JUMPDEST PUSH1 0x0 PUSH1 0x20 PUSH1 0x1F DUP4 ADD DIV SWAP1 POP SWAP2 SWAP1 POP JUMP JUMPDEST PUSH1 0x0 DUP3 DUP3 SHL SWAP1 POP SWAP3 SWAP2 POP POP JUMP JUMPDEST PUSH1 0x0 PUSH1 0x8 DUP4 MUL PUSH2 0xE41 PUSH32 0xFFFFFFFFFFFFFFFFFFFFFFFFFFFFFFFFFFFFFFFFFFFFFFFFFFFFFFFFFFFFFFFF DUP3 PUSH2 0xE04 JUMP JUMPDEST PUSH2 0xE4B DUP7 DUP4 PUSH2 0xE04 JUMP JUMPDEST SWAP6 POP DUP1 NOT DUP5 AND SWAP4 POP DUP1 DUP7 AND DUP5 OR SWAP3 POP POP POP SWAP4 SWAP3 POP POP POP JUMP JUMPDEST PUSH1 0x0 DUP2 SWAP1 POP SWAP2 SWAP1 POP JUMP JUMPDEST PUSH1 0x0 PUSH2 0xE88 PUSH2 0xE83 PUSH2 0xE7E DUP5 PUSH2 0x893 JUMP JUMPDEST PUSH2 0xE63 JUMP JUMPDEST PUSH2 0x893 JUMP JUMPDEST SWAP1 POP SWAP2 SWAP1 POP JUMP JUMPDEST PUSH1 0x0 DUP2 SWAP1 POP SWAP2 SWAP1 POP JUMP JUMPDEST PUSH2 0xEA2 DUP4 PUSH2 0xE6D JUMP JUMPDEST PUSH2 0xEB6 PUSH2 0xEAE DUP3 PUSH2 0xE8F JUMP JUMPDEST DUP5 DUP5 SLOAD PUSH2 0xE11 JUMP JUMPDEST DUP3 SSTORE POP POP POP POP JUMP JUMPDEST PUSH1 0x0 SWAP1 JUMP JUMPDEST PUSH2 0xECB PUSH2 0xEBE JUMP JUMPDEST PUSH2 0xED6 DUP2 DUP5 DUP5 PUSH2 0xE99 JUMP JUMPDEST POP POP POP JUMP JUMPDEST JUMPDEST DUP2 DUP2 LT ISZERO PUSH2 0xEFA JUMPI PUSH2 0xEEF PUSH1 0x0 DUP3 PUSH2 0xEC3 JUMP JUMPDEST PUSH1 0x1 DUP2 ADD SWAP1 POP PUSH2 0xEDC JUMP JUMPDEST POP POP JUMP JUMPDEST PUSH1 0x1F DUP3 GT ISZERO PUSH2 0xF3F JUMPI PUSH2 0xF10 DUP2 PUSH2 0xDDF JUMP JUMPDEST PUSH2 0xF19 DUP5 PUSH2 0xDF4 JUMP JUMPDEST DUP2 ADD PUSH1 0x20 DUP6 LT ISZERO PUSH2 0xF28 JUMPI DUP2 SWAP1 POP JUMPDEST PUSH2 0xF3C PUSH2 0xF34 DUP6 PUSH2 0xDF4 JUMP JUMPDEST DUP4 ADD DUP3 PUSH2 0xEDB JUMP JUMPDEST POP POP JUMPDEST POP POP POP JUMP JUMPDEST PUSH1 0x0 DUP3 DUP3 SHR SWAP1 POP SWAP3 SWAP2 POP POP JUMP JUMPDEST PUSH1 0x0 PUSH2 0xF62 PUSH1 0x0 NOT DUP5 PUSH1 0x8 MUL PUSH2 0xF44 JUMP JUMPDEST NOT DUP1 DUP4 AND SWAP2 POP POP SWAP3 SWAP2 POP POP JUMP JUMPDEST PUSH1 0x0 PUSH2 0xF7B DUP4 DUP4 PUSH2 0xF51 JUMP JUMPDEST SWAP2 POP DUP3 PUSH1 0x2 MUL DUP3 OR SWAP1 POP SWAP3 SWAP2 POP POP JUMP JUMPDEST PUSH2 0xF95 DUP4 DUP4 PUSH2 0xDA5 JUMP JUMPDEST PUSH8 0xFFFFFFFFFFFFFFFF DUP2 GT ISZERO PUSH2 0xFAE JUMPI PUSH2 0xFAD PUSH2 0xDB0 JUMP JUMPDEST JUMPDEST PUSH2 0xFB8 DUP3 SLOAD PUSH2 0xD74 JUMP JUMPDEST PUSH2 0xFC3 DUP3 DUP3 DUP6 PUSH2 0xEFE JUMP JUMPDEST PUSH1 0x0 PUSH1 0x1F DUP4 GT PUSH1 0x1 DUP2 EQ PUSH2 0xFF2 JUMPI PUSH1 0x0 DUP5 ISZERO PUSH2 0xFE0 JUMPI DUP3 DUP8 ADD CALLDATALOAD SWAP1 POP JUMPDEST PUSH2 0xFEA DUP6 DUP3 PUSH2 0xF6F JUMP JUMPDEST DUP7 SSTORE POP PUSH2 0x1052 JUMP JUMPDEST PUSH1 0x1F NOT DUP5 AND PUSH2 0x1000 DUP7 PUSH2 0xDDF JUMP JUMPDEST PUSH1 0x0 JUMPDEST DUP3 DUP2 LT ISZERO PUSH2 0x1028 JUMPI DUP5 DUP10 ADD CALLDATALOAD DUP3 SSTORE PUSH1 0x1 DUP3 ADD SWAP2 POP PUSH1 0x20 DUP6 ADD SWAP5 POP PUSH1 0x20 DUP2 ADD SWAP1 POP PUSH2 0x1003 JUMP JUMPDEST DUP7 DUP4 LT ISZERO PUSH2 0x1045 JUMPI DUP5 DUP10 ADD CALLDATALOAD PUSH2 0x1041 PUSH1 0x1F DUP10 AND DUP3 PUSH2 0xF51 JUMP JUMPDEST DUP4 SSTORE POP JUMPDEST PUSH1 0x1 PUSH1 0x2 DUP9 MUL ADD DUP9 SSTORE POP POP POP JUMPDEST POP POP POP POP POP POP POP JUMP JUMPDEST PUSH32 0x596F75206E65656420746F20636F6E74726962757465206D6F72650000000000 PUSH1 0x0 DUP3 ADD MSTORE POP JUMP JUMPDEST PUSH1 0x0 PUSH2 0x1091 PUSH1 0x1B DUP4 PUSH2 0x9EC JUMP JUMPDEST SWAP2 POP PUSH2 0x109C DUP3 PUSH2 0x105B JUMP JUMPDEST PUSH1 0x20 DUP3 ADD SWAP1 POP SWAP2 SWAP1 POP JUMP JUMPDEST PUSH1 0x0 PUSH1 0x20 DUP3 ADD SWAP1 POP DUP2 DUP2 SUB PUSH1 0x0 DUP4 ADD MSTORE PUSH2 0x10C0 DUP2 PUSH2 0x1084 JUMP JUMPDEST SWAP1 POP SWAP2 SWAP1 POP JUMP JUMPDEST PUSH1 0x0 PUSH2 0x10D2 DUP3 PUSH2 0x893 JUMP JUMPDEST SWAP2 POP PUSH32 0xFFFFFFFFFFFFFFFFFFFFFFFFFFFFFFFFFFFFFFFFFFFFFFFFFFFFFFFFFFFFFFFF DUP3 SUB PUSH2 0x1104 JUMPI PUSH2 0x1103 PUSH2 0xCE5 JUMP JUMPDEST JUMPDEST PUSH1 0x1 DUP3 ADD SWAP1 POP SWAP2 SWAP1 POP JUMP JUMPDEST PUSH32 0x596F7520617265206E6F7420636F6E7472696275746F72000000000000000000 PUSH1 0x0 DUP3 ADD MSTORE POP JUMP JUMPDEST PUSH1 0x0 PUSH2 0x1145 PUSH1 0x17 DUP4 PUSH2 0x9EC JUMP JUMPDEST SWAP2 POP PUSH2 0x1150 DUP3 PUSH2 0x110F JUMP JUMPDEST PUSH1 0x20 DUP3 ADD SWAP1 POP SWAP2 SWAP1 POP JUMP JUMPDEST PUSH1 0x0 PUSH1 0x20 DUP3 ADD SWAP1 POP DUP2 DUP2 SUB PUSH1 0x0 DUP4 ADD MSTORE PUSH2 0x1174 DUP2 PUSH2 0x1138 JUMP JUMPDEST SWAP1 POP SWAP2 SWAP1 POP JUMP INVALID LOG2 PUSH5 0x6970667358 0x22 SLT KECCAK256 0x2B PUSH26 0xA44D9DCC65E35692217113993182A732278D5D34700B14E11151 SIGNEXTEND 0xA8 GASPRICE RETURN PUSH5 0x736F6C6343 STOP ADDMOD SGT STOP CALLER LOG2 PUSH5 0x6970667358 0x22 SLT KECCAK256 0x2D BALANCE MULMOD 0xAD 0xDF 0xEF SGT SWAP9 PUSH17 0xB79C50B3B93BB1C568B4B087EAB7474737 PUSH24 0x4F7EE2F15564736F6C634300081300330000000000000000 "},"gasEstimates":{"creation":{"codeDepositCost":"1200200","executionCost":"1248","totalCost":"1201448"},"external":{"createCompaign(uint256)":"infinite","deployedCompaigns(uint256)":"4978","getDeployedCompaigns()":"infinite"}},"methodIdentifiers":{"createCompaign(uint256)":"d37b127b","deployedCompaigns(uint256)":"e698bdf1","getDeployedCompaigns()":"58c9aa44"}},"storageLayout":{"storage":[{"astId":4,"contract":"Campaign.sol:Compaignfactory","label":"deployedCompaigns","offset":0,"slot":"0","type":"t_array(t_address)dyn_storage"}],"types":{"t_address":{"encoding":"inplace","label":"address","numberOfBytes":"20"},"t_array(t_address)dyn_storage":{"base":"t_address","encoding":"dynamic_array","label":"address[]","numberOfBytes":"32"}}},"userdoc":{"kind":"user","methods":{},"version":1}}